:020000040800F2
:10BD2000F3E70021E2E700BFC8170020034B1B78B0
:10BD300013B10370002070470120704712180020D3
:10BD40000022014B1A70704712180020002307B51B
:10BD50000A210DF107020DF106008DF806308DF86D
:10BD60000730FEF793FB38B99DF80630A3F11102B6
:10BD7000062A9CBF024A137003B05DF804FB00BFA3
:10BD80001218002010B5064C08232246002101207D
:10BD9000FFF7B2FD2078BDE81040FDF7A1BD00BF60
:10BDA000BA010020F7B500250DF105008DF805500A
:10BDB0008DF80650FFF7BAFF2D4B9DF805401A7815
:10BDC000A2421FD0162C1C702BD0172C37D0152C4C
:10BDD00018D10A20274F3870FDF782FD0546FFF77E
:10BDE000AFFF8DB901262B4632460DF107012046E3
:10BDF0008DF80760FFF76CFF08233A462946304666
:10BE0000FFF730FD03B0F0BD012DFBD146238DF8C7
:10BE100007302A462B4620460DF10701FFF758FF51
:10BE2000F0E70B20134F3870FDF75AFD0546FFF77A
:10BE300087FF002DD6D0012DE4D13C23E7E70D4C40
:10BE40000823224629460120FFF756FDFFF778FF19
:10BE500023780A2B03D101238DF8063001E00B2B48
:10BE6000FAD00023012217200DF10601D6E700BF0A
:10BE700013180020BA01002008B56420FDF742FD28
:10BE8000BDE80840082202490248FDF717BD00BF7F
:10BE9000C2010020D201002010B5064C2046FFF759
:10BEA000CFFB23780133DBB2652B28BF002323703F
:10BEB00010BD00BF1418002070B5860747D0541E6F
:10BEC000002A3ED00346CAB201E0013C39D303F850
:10BED000012B9D07F9D1032C2CD9CDB205EB0525FB
:10BEE0000F2C1A4605EB054534D9A4F1100C2CF0A3
:10BEF0000F0603F1100EB6444FEA1C1CC2E90055B0
:10BF0000C2E9025510327245F8D10CF1010214F069
:10BF10000C0F03EB021204F00F0C13D0ACF104036E
:10BF200023F003030433134442F8045B9342FBD130
:10BF30000CF003042CB1C9B21C4403F8011BA3424A
:10BF4000FBD170BD64461346002CF4D1F9E70346DB
:10BF50001446C0E7A446E1E720F0030110F0030017
:10BF6000C0F1000051F8043B00F1040C4FEACC0C86
:10BF70006FF000021CBF22FA0CF213434FF0010CC9
:10BF80004CEA0C2C4CEA0C4CA3EB0C0222EA030208
:10BF900012EACC1204BF51F8043B0430F4D0C2F1D1
:10BFA000000102EA0102B2FA82F2C2F11F0200EBC2
:10BFB000D2007047F8B500BFF8BC08BC9E46704779
:0CBFC000F8B500BFF8BC08BC9E467047F6
:10BFCC00000000000102030400000000000000005B
:10BFDC00010203040607080901020203040506070F
:10BFEC0008090A0B0C0D0E0F1010010202030405B8
:10BFFC00060708090A0B0C0D0E0F101041542B43A9
:10C00C004E4D493D302C302C302C302C300D0A004C
:10C01C0041542B434D47463D310D0A0041542B43AF
:10C02C00504D533D22534D222C22534D222C225342
:10C03C004D220D0A0041542B434D47443D312C34C5
:10C04C000D0A0041542B434D47533D22004F4B00EA
:10C05C004552524F520041542B434D47523D310DE6
:10C06C000A0053454900534D5346554C4C0041541E
:10C07C002B434D47443D310D0A0049444C45004982
:10C08C006E6974207461736B005461736B20313072
:08C09C006D73000006000000B6
:08C0A4008C90FF7F01000000F9
:10C0AC0000127A0001000000100000001A000505C3
:10C0BC00080100000000000000000000000000006B
:10C0CC00080000000000000000000000000000005C
:10C0DC00120100008813000008000000000000009E
:10C0EC00000000001301000088130000080000008D
:10C0FC000000000000000000F428FF18640000009D
:10C10C000800000001010100000000001401000003
:10C11C0064000000080000000000000000000000A7
:10C12C00F4E50618E803000007000000000000001A
:10C13C000000000000000000EF60FA18640000002E
:10C14C00080000000000000000000000F4FF0018D0
:10C15C00E8030000080000000000000000000000E0
:10C16C00F428FE180A00000008000000000000007F
:10C17C000000000011010000640000000800000035
:10C18C00000001000001000010010000640000002C
:10C19C000800000000000000000000000801000082
:10C1AC000A0000000800000003000000AAAAAAAAC6
:10C1BC0000004C00010000002B170020500008006C
:10C1CC000100000023170020010002000B000C00EE
:10C1DC000D000E000F0010001100120013001900CA
:10C1EC001A001D001F002000210022002300250042
:10C1FC00260027002C002E003100330035003600BD
:10C20C00370038003A003B00400041004200430038
:10C21C00470048005700580059005B005E0063005F
:10C22C0095009600970098009B009C00A400A80025
:10C23C00A900AA00AB00AD00AF00B200B400B90079
:10C24C00BD00BE00BF00C400C500C900CA00CB00C1
:10C25C00DC00DD00DF000B00000000000000C80067
:10C26C00C800C800C800C800C800C800C800050144
:10C27C00260149015D018801B801EE010B020000A5
:020000042000DA
:0400000000000000FC
:040000050800548516
:00000001FF
