:020000040802F0
:1004000000000220810B02085D1602085F16020838
:100410006116020863160208651602080000000053
:10042000000000000000000000000000B1A202086F
:10043000671602080000000041A30208A5A30208F5
:100440007D0B02087D0B02087D0B02087D0B020864
:100450007D0B02087D0B02087D0B02087D0B020854
:100460007D0B02087D0B02087D0B02087D0B020844
:100470007D0B02087D0B02087D0B02087D0B020834
:100480007D0B02087D0B02087D0B0208691602082D
:100490007516020881160208851602087D0B0208EF
:1004A0007D0B02087D0B02087D0B02087D0B020804
:1004B000891602087D0B02087D0B020895160208BA
:1004C0007D0B02087D0B02087D0B02087D0B0208E4
:1004D0007D0B0208A1160208AD160208B916020823
:1004E0007D0B02087D0B0208000000007D0B020856
:1004F0007D0B02087D0B02087D0B02087D0B0208B4
:100500007D0B02087D0B02087D0B02087D0B0208A3
:100510007D0B02087D0B02087D0B02087D0B020893
:100520007D0B02087D0B02087D0B02087D0B020883
:100530007D0B02087D0B02087D0B02087D0B020873
:100540007D0B02087D0B0208000000000000000087
:100550007D0B02087D0B02087D0B02087D0B020853
:100560007D0B02087D0B02087D0B02087D0B020843
:100570007D0B02087D0B02087D0B020800000000C5
:100580007D0B02087D0B02087D0B02087D0B020823
:100590007D0B02087D0B02087D0B02087D0B020813
:1005A0007D0B02087D0B02087D0B02087D0B020803
:1005B0007D0B02087D0B02087D0B02087D0B0208F3
:1005C0007D0B02087D0B02087D0B02087D0B0208E3
:1005D0007D0B02087D0B02087D0B02087D0B0208D3
:1005E0007D0B02087D0B02087D0B02087D0B0208C3
:1005F0007D0B02087D0B02087D0B02087D0B0208B3
:100600007D0B02087D0B02087D0B02087D0B0208A2
:100610007D0B02087D0B02087D0B02087D0B020892
:100620007D0B02087D0B02087D0B02087D0B020882
:100630007D0B02087D0B02087D0B02087D0B020872
:100640007D0B02087D0B02087D0B02087D0B020862
:100650007D0B02087D0B02087D0B02087D0B020852
:100660007D0B02087D0B02087D0B02087D0B020842
:100670007D0B02087D0B02087D0B02087D0B020832
:100680007D0B02087D0B02087D0B020800000000B4
:080690007D0B02087D0B02083E
:1006C00053B94AB9002908BF00281CBF4FF0FF31B9
:1006D0004FF0FF3000F00CB8ADF1080C6DE904CE1E
:1006E0000BF068FADDF804E0DDE9022304B070479E
:1006F000704700BF844641EA000313F003036DD145
:10070000403A41D351F8043B40F8043B51F8043BD4
:1007100040F8043B51F8043B40F8043B51F8043BDB
:1007200040F8043B51F8043B40F8043B51F8043BCB
:1007300040F8043B51F8043B40F8043B51F8043BBB
:1007400040F8043B51F8043B40F8043B51F8043BAB
:1007500040F8043B51F8043B40F8043B51F8043B9B
:1007600040F8043B51F8043B40F8043B51F8043B8B
:1007700040F8043B51F8043B40F8043B51F8043B7B
:1007800040F8043B403ABDD2303211D351F8043B1B
:1007900040F8043B51F8043B40F8043B51F8043B5B
:1007A00040F8043B51F8043B40F8043B103AEDD2CA
:1007B0000C3205D351F8043B40F8043B043AF9D21B
:1007C000043208D0D2071CBF11F8013B00F8013BEE
:1007D00001D30B8803806046704700BF082A13D3FB
:1007E0008B078DD010F003038AD0C3F10403D21A13
:1007F000DB071CBF11F8013B00F8013B80D331F847
:10080000023B20F8023B7BE7043AD9D3013A11F8C6
:10081000013B00F8013BF9D20B7803704B78437031
:100820008B78837060467047000000000000000075
:1008300000000000000000000000000000000000B8
:1008400030B490F800F020F007016FF0000C10F0C9
:10085000070491F820F040F048804FF000046FF05A
:100860000700D1E9002391F840F000F1080082FA76
:100870004CF2A4FA8CF283FA4CF3A2FA8CF34BBB41
:10088000D1E9022382FA4CF200F10800A4FA8CF2BA
:1008900083FA4CF3A2FA8CF3E3B9D1E9042382FA88
:1008A0004CF200F10800A4FA8CF283FA4CF3A2FA9D
:1008B0008CF37BB9D1E9062301F1200182FA4CF2D5
:1008C00000F10800A4FA8CF283FA4CF3A2FA8CF33C
:1008D000002BC6D0002A04BF04301A4612BAB2FA5E
:1008E00082F200EBD20030BC7047D1E9002304F063
:1008F0000305C4F100004FEAC50514F0040F91F898
:1009000040F00CFA05F562EA05021CBF63EA050334
:1009100062464FF00004AAE703461A7818460133EE
:100920000AB9104601E08A42F7D17047FFF788BF45
:100930000BF09EBA10B548B141B14AB10023C45C76
:10094000CC5401339A42FAD1002010BD0220FCE7BA
:100950000720FAE70023013930B59CB2A24201D842
:10096000002006E0C55C0133CC5CA542F5D001D97E
:10097000012030BD4FF0FF30FBE72DE9F041064686
:1009800008460F46FFF7D2FF0446A0B13046FFF7F6
:10099000CDFFA0420ED9051B4FF00008A2B206EB16
:1009A000080439462046FFF7D5FF20B108F10108B9
:1009B000A845F4D900242046BDE8F081034641B1A2
:1009C0004AB102810122016000201A7358605881E7
:1009D0007047042070470520704710B50446D1B118
:1009E000C8B1037BCBB98388012200681844FFF7A4
:1009F000A1FFA0B96389013B9BB2638113B90123B5
:100A0000237310BD2289A388013A934216BF013394
:100A1000A080A380F5E70420F3E70320F1E7082096
:100A2000EFE770B506460C4669B160B16AB143891B
:100A300093420CD38D18214601343046FFF7CDFF89
:100A4000AC42F8D170BD0420FCE70520FAE707208E
:100A5000F8E770B505460C4661B158B146890020EB
:100A60000E44B44200D170BD214628460134FFF740
:100A7000B4FFF6E70420F6E730B10023012243601B
:100A800002734381184670470420704720B119B1A2
:100A9000037B00200B7070470420704740B139B1D0
:100AA0000389428900209A1A534253410B707047C0
:100AB00004207047002373B504460E468DF80730B6
:100AC00011B308B30DF10701FFF7E8FFD0B99DF8A6
:100AD0000730012B1AD0237B3046E588012B216893
:100AE0001FBF01352389B5FBF3F203FB1255012229
:100AF000EDB22944FFF71EFF50B96389E580013349
:100B00002073638102B070BD0420FBE70220F9E787
:100B10000820F7E720B119B1438900200B80704706
:100B20000420704730B129B10389428900209B1A03
:100B30000B80704704207047F7B500240646154621
:100B40000F46ADF8064099B190B19AB10DF106018A
:100B5000FFF7E8FFBDF80630AB420DD33919013479
:100B60003046E4B2FFF7A6FFAC42F7D303B0F0BDC6
:100B70000420FBE70520F9E70620F7E7FEE7000081
:100B800008B507F0C9FC0748074A0849121AFFF7D9
:100B9000B1FD0748074A0021121A0BF069F909F064
:100BA000A5FEFEE7040000206802002064C00208E1
:100BB000680200204C1B002010B59CB04C22002184
:100BC00009A80BF055F92022002101A80BF050F9DB
:100BD000022003F0B5FC00230093264BDA6A22F0D2
:100BE0000102DA62DB6A244A03F00103009393698D
:100BF00023F4404343F480439361936903F44043F7
:100C00000093009B93699B04FCD509204FF480332B
:100C10001E2201244FF00C0C0E941494CDE909030C
:100C2000022309A8CDE915230522CDE91233CDE928
:100C300017230023CDE919C31B9301F07FFB08B1F3
:100C400072B6FEE703233F22402105900890CDE9CC
:100C500001234FF40063CDE903304FF4806301A812
:100C6000CDE90613214601F0B3FE08B172B6FEE7E6
:100C70001CB010BD000400580048025800B5B3B0C5
:100C8000C022002102A80BF0F3F800234FF000422D
:100C90006846CDE900234FF00053169302F01AF98D
:100CA00008B172B6FEE733B05DF804FB07B503F098
:100CB000D5FCFFF781FFFFF7E1FF144B0020D3F8CD
:100CC000E02042F00072C3F8E020D3F8E03003F0F7
:100CD00000730193019B03F075FA0021084603F0AD
:100CE0007FFA00F01FF800F07FF800F06FFB00F0D3
:100CF0001BF900F09DFB00F035FA00F047F900F019
:100D0000F3FA03B05DF804EB00F092BC0044025823
:100D10000368B3F1804F01D103F0CEBC704772B6C7
:100D2000FEE70000F0B514228BB000212B4F0DEB35
:100D300002002B4E0BF09CF82A4B38460121D3F8C9
:100D4000E0200125002442F00102C3F8E020D3F89E
:100D5000E02002F001020192019AD3F8E02042F073
:100D60002002C3F8E020D3F8E02002F02002029233
:100D7000029AD3F8E02042F01002C3F8E020D3F842
:100D8000E02002F010020392039AD3F8E02042F030
:100D90000202C3F8E0200022D3F8E03003F002039F
:100DA0000493049B03F000FA002230464FF4C07114
:100DB00003F0FAF905A93846CDE90555CDE9074410
:100DC00003F00AF94FF4C07305A93046CDE90535A3
:100DD000CDE9074403F000F90BB0F0BD0000025864
:100DE000001002580044025830B500258BB01C2278
:100DF000244C294603A80295CDE900550BF038F89C
:100E0000214B2046E56023600423A5822361012352
:100E10002577A361656384F83850E363C4E9095515
:100E2000C4E90B5501F0C4F808B1FFF778FF4FF49F
:100E3000402300251348C4E9013501F0B9F808B191
:100E4000FFF76DFF69460F48009501F011FA08B1F0
:100E5000FFF765FF0D4A062303A90A48CDE90323DE
:100E6000002340F2FF72CDE9053204228DF82530CF
:100E7000CDE9072300F02CFD08B1FFF750FF0BB0C0
:100E800030BD00BF6802002000200240040060085E
:100E900010B5BAB004461422002103A80AF0E8FFF6
:100EA000C822002108A80AF0E3FF22681B4B9A42DF
:100EB00031D100234FF4002208A8CDE908234FF4D4
:100EC0000033329302F006F808B1FFF728FF144B05
:100ED00003A91448D3F8D82042F02002C3F8D82040
:100EE000D3F8D82002F020020192019AD3F8E02032
:100EF00042F02002C3F8E0204FF40062D3F8E03063
:100F000003F020030293029B0323CDE90323002374
:100F1000059303F061F83AB010BD00BF0020024015
:100F2000004402580014025808B516480122164B16
:100F30000C214FF00D0C03600023C0E90512C0E93D
:100F40000922022103828374C0E90B220422C0E932
:100F50000233C0E907C1C0E90D33C0E90F33C0E96E
:100F60001123C0E91323C0E91523C0E91733C0E9F1
:100F7000193204F073FE18B1BDE80840FFF7CFBE88
:100F800008BD00BF7003002000A0004008B516484F
:100F90000122164B0C214FF00D0C03600023C0E919
:100FA0000512C0E90922022103828374C0E90B22E1
:100FB0000422C0E90233C0E907C1C0E90D33C0E92A
:100FC0000F33C0E91123C0E91323C0E91523C0E999
:100FD0001733C0E9193204F041FE18B1BDE80840EA
:100FE000FFF79DBE08BD00BFD002002000A4004056
:100FF00010B51422BCB0044600210DEB02000AF02B
:1010000037FFC82200210AA80AF032FF23684F4A9E
:1010100093424DD100234FF400420AA8CDE90A23A0
:101020004FF08053279301F055FF08B1FFF777FE8B
:10103000474A13680133012B13600CD1454BD3F899
:10104000EC2042F48072C3F8EC20D3F8EC3003F4C7
:1010500080730193019B3F4B4FF4C05100243E48E5
:10106000D3F8E02042F00102C3F8E020D3F8E030EA
:1010700003F001030293029B0223CDE90513092328
:1010800005A90993CDE9074402F0A6FF22462146AF
:10109000132003F0A3FA132003F0D2FA15202246FE
:1010A000214603F09BFA152003F0CAFA3CB010BDAC
:1010B0002A4A9342FAD100234FF400420AA8CDE90C
:1010C0000A234FF08053279301F004FF08B1FFF784
:1010D00026FE1F4A13680133012B13600CD11D4BF0
:1010E000D3F8EC2042F48072C3F8EC20D3F8EC3053
:1010F00003F480730393039B164B002405A918483F
:10110000D3F8E02042F00202C3F8E0204FF440524E
:10111000D3F8E03003F002030493049B0223CDE9EB
:1011200005230923CDE90744099302F055FF224620
:101130002146142003F052FA142003F081FA1620FD
:101140002246214603F04AFA1620ADE700A00040EF
:10115000CC020020004402580000025800A40040C5
:101160000004025808B51248124A134BC0E9002384
:1011700000230122C0E90433C0E90232C0E906338A
:10118000036203F0B1FC08B1FFF7C9FD0021084874
:1011900004F0DAFC08B1FFF7C2FD0021044804F0B6
:1011A000F9FC18B1BDE80840FFF7B9BD08BD00BFA4
:1011B0001004002000540040AF74700030B5BBB084
:1011C00004461422002103A80AF052FEC82200217E
:1011D00008A80AF04DFE22681E4B9A4237D1082219
:1011E000002308A8CDE9082301F074FE08B1FFF739
:1011F00096FD194CC022002503A9D4F8E030174809
:1012000043F00203C4F8E030D4F8E03003F0020306
:101210000193019B1223CDE903230423CDE9055556
:10122000079302F0D9FED4F8E8301F202A46294659
:1012300043F40013C4F8E830D4F8E83003F40013A2
:101240000293029B03F0CAF91F2003F0F9F93BB0A7
:1012500030BD00BF00540040004402580004025852
:10126000026882B0084B9A420CD1084BD3F8F020A8
:1012700042F00102C3F8F020D3F8F03003F001038C
:101280000193019B02B070470000014000440258E6
:1012900010B586B004461422002101A80AF0E8FD2A
:1012A00022680E4B9A4217D10D4B01A90D48D3F875
:1012B000E02042F01002C3F8E0204FF40072D3F8AF
:1012C000E03003F010030093009B0223CDE90123DB
:1012D0000123059302F080FE06B010BD000001401E
:1012E000004402580010025810B510229AB0002491
:1012F00000210DEB02000AF0BBFD1C22214608A8CC
:101300000394CDE901440AF0B3FD2C2221460FA835
:101310000AF0AEFD2B482C4B8460C0E900344FF638
:10132000FF73C0E90544C0E9033405F0CDFB08B103
:10133000FFF7F5FC4FF4805304A92248049305F00D
:10134000E9FC08B1FFF7EBFC1E4805F0EDFB08B126
:10135000FFF7E5FC002401A91A480394CDE90144F4
:1013600005F08EFE08B1FFF7DAFC6023002208A921
:1013700014480E94CDE90834CDE90A44CDE90C4473
:1013800005F042FC08B1FFF7CAFC00234FF40052FD
:101390000FA90C48139316931993CDE914234FF01A
:1013A0000072CDE90F33CDE91133CDE9172305F0F4
:1013B000B1FE08B1FFF7B3FC0248FFF769FF1AB0AE
:1013C00010BD00BF640400200000014008B51648AD
:1013D0004FF41653154AC0E9002300230C22C0E93C
:1013E00002330361C0E90523C0E90733C0E90933CB
:1013F00006F09CFE08B1FFF792FC00210A4806F0B7
:10140000AFFF08B1FFF78BFC0021074806F0C8FFCB
:1014100008B1FFF784FC044806F087FF18B1BDE867
:101420000840FFF77CBC08BDD80500200010014033
:1014300008B516484FF4E133154AC0E900230023EC
:101440000C22C0E902330361C0E90523C0E9073378
:10145000C0E9093306F06AFE08B1FFF760FC00211D
:101460000A4806F07DFF08B1FFF759FC0021074844
:1014700006F096FF08B1FFF752FC044806F055FF4E
:1014800018B1BDE80840FFF74ABC08BD440500207C
:101490000044004010B5BEB004461422002107A845
:1014A0000AF0E6FCC82200210CA80AF0E1FC23683F
:1014B000594A93423AD1012200230CA8CDE90C23CA
:1014C00001F008FD08B1FFF72AFC544B4FF44040EF
:1014D000002407A9D3F8F02042F01002C3F8F0204E
:1014E000D3F8F02002F010020192019AD3F8E02024
:1014F00042F00202C3F8E020D3F8E03003F0020328
:101500000293029B0223CDE90703042344480B9373
:10151000CDE9094402F060FD25202246214603F072
:101520005DF8252003F08CF83EB010BD3D4A934293
:1015300036D1022200230CA8CDE90C2301F0CAFC0D
:1015400008B1FFF7ECFB354B0C2100243648D3F8EB
:10155000E82042F40032C3F8E820D3F8E82002F48F
:1015600000320392039AD3F8E02042F00102C3F85C
:10157000E020D3F8E03003F001030493049B02233E
:10158000CDE90713072307A90B93CDE9094402F01E
:1015900023FD26202246214603F020F82620C1E71D
:1015A000224A9342C0D1022200230CA8CDE90C2389
:1015B00001F090FC08B1FFF7B2FB184B002407A91B
:1015C0001748D3F8E82042F48022C3F8E820D3F883
:1015D000E82002F480220592059AD3F8E02042F038
:1015E0000202C3F8E0204FF44062D3F8E03003F089
:1015F00002030693069B0223CDE907230723CDE9C7
:1016000009440B9302F0E8FC27202246214602F011
:10161000E5FF272086E700BF001001400044025884
:1016200000040258004400400000025800480040F6
:1016300008B508480623084AC0E9002340F6FF73AE
:10164000C0E9023306F035FF18B1BDE80840FFF7E6
:1016500066BB08BD6C06002000480058FEE7FEE7A8
:10166000FEE7FEE7FEE77047014804F071BE00BFE9
:1016700070030020014804F06BBE00BFD0020020C0
:10168000FFF7F2BFFFF7F6BF014805F024B900BF2E
:10169000A0060020014803F059BC00BF1004002040
:1016A000014805F0BBBE00BFD8050020014805F089
:1016B000B5BE00BF44050020014805F0AFBE00BF25
:1016C000B0040020074B82B0D3F8F42042F00202AD
:1016D000C3F8F420D3F8F43003F002030193019B24
:1016E00002B07047004402580F2810B504468AB073
:1016F00002D901200AB010BD014600221C2002F0D0
:101700006DFF1C2002F09CFF194B694602A81C606B
:10171000184BD3F8E82042F00102C3F8E820D3F8D0
:10172000E83003F001030193019B01F0BDFA079B30
:10173000CBB901F095FA104C4FF08043236040F292
:10174000E733E3600D4BB0FBF3F00138002360603A
:1017500020462361A36005F0B7F90028C9D12046CF
:1017600005F076F8C6E701F07BFA4000E3E700BF3A
:101770000800002000440258A006002040420F004C
:1017800030B5CC0D1430C1F30451072504F0040426
:101790008D408A40035923EA05031343035130BDAA
:1017A000806800F0010070478068C0F380007047D7
:1017B0000368414A93422DE9F04104460E461CD08D
:1017C0003E4802F540723E49834218BF0A462569E9
:1017D0009768082D07F01F0722D040F22122FA4017
:1017E000D1070CD5DB6813F0010F18D0636D012011
:1017F00043F020036365BDE8F081324AE7E72E4AF3
:1018000093420AD02D4802F540722D49834218BFF9
:101810000A46936813F4404FE7E72A4AF9E704259C
:1018200002F056FF804623681A682A4225D0626D6E
:1018300042F400726265DA6812F4406F0FD1627D83
:101840006AB91A6816070AD5626D22F48072626559
:10185000626DD00403D4626D42F001026265174AE2
:10186000934204D140F22122FA40D1071BD5DA6815
:10187000082D1BD11D600020BDE7721CD4D002F0E2
:1018800027FFA0EB0800B04201D8002ECBD123687F
:101890001B682B40C7D1626D032084F8503042F0A2
:1018A00004026265A7E7044AD268E1E75204E2D481
:1018B0000C221A60DFE700BF002002400021024036
:1018C00000630258002302400368186C7047000050
:1018D0000023F7B50193054690F850300E46012BD2
:1018E00000F0A6810122046880F850202046FFF70E
:1018F0005BFF002840F070810B68002B4FEA93617A
:1019000007DBC3F3130000286AD18A40E36913435D
:10191000E361726804F1300C1F2701F01F01900988
:1019200002F01F0200F00C00974091405CF800307C
:1019300023EA07030B434CF800302046FFF734FF3F
:10194000A36803F0080303433FD1B268204631681F
:10195000FFF716FFB74B72691B6803F07043B3F1D2
:10196000805FE36845D1C3F382035B0037699A4027
:101970003168042F45D004F1600001F0F84150F8BF
:10198000273003F000430B43134340F82730727EA7
:101990003169571E50F821307A4223F000437A41D2
:1019A00043EAC27340F82130337E316903F1FF3CD2
:1019B000226901F01F01DCF1000322F4F04243EB45
:1019C0000C03DB028B40134323612046FFF7E8FE44
:1019D00000283DD00020002385F8503003B0F0BD32
:1019E00093FAA3F3B3FA83F3012203F01F039A409F
:1019F0008CE713F0100FE368B5D05B0803F0080321
:101A0000B4E7236E8A0603F0F843B3EB816F03D18A
:101A1000236E23F000432366636E03F0F8439A427B
:101A200003D1636E23F000436366A36E03F0F843B3
:101A30009A4203D1A36E23F00043A366E36E03F042
:101A4000F8439A42C1D1E36E23F00043E366BCE75A
:101A5000F768336807F0180C774AD4F8C010C3F35E
:101A6000130022FA0CF221EA00011A400A43C4F8DA
:101A7000C020724A97421BD1002858D19A0E0121EA
:101A8000013202F01F079206092F70D802F0F842C7
:101A9000B9401143002865D19B0E013303F01F03A9
:101AA00003EB43031B051943B2682046FFF768FEAA
:101AB0003268002A8EDA62498C4200F08680614EDC
:101AC000614B6248B44218BF03468C429B6802D007
:101AD0005C498C427BD15A48FFF762FE0146594867
:101AE000FFF75EFE014377D1594803F0E07182426F
:101AF00078D118023FF56EAF564B9C427FF46AAF27
:101B0000524A936823F0E0730B4343F4000393605D
:101B1000514B524A1B68B3FBF2F301335B00019354
:101B2000019B002B3FF456AF019B013BF7E793FA73
:101B3000A3F232B1B2FA82F2013202F01F02092A94
:101B400025D893FAA3F2B2FA82F20132920602F099
:101B5000F84293FAA3F7B7FA87F70121013707F0A4
:101B60001F0795E793FAA3F3B3FA83F395E702F01F
:101B7000F842B9401143D8B99B0E013303F01F035B
:101B800003EB43031E3B1B0543F000738BE793FA03
:101B9000A3F2B2FA82F20132920602F0F84293FA0C
:101BA000A3F7B7FA87F70121013707F01F07E0E72E
:101BB00093FAA3F2B2FA82F203236FF01D0001320E
:101BC00002F01F0213FB0203DDE71F4B7DE72148F4
:101BD000FFF7E6FD002887D06B6D012043F020035E
:101BE0006B65F8E61E4882420FD1DA013FF5F2AE8E
:101BF000184B9C427FF4EEAE144A936823F0E073D6
:101C00000B4343F080739360E4E6164882427FF40E
:101C1000E1AE5B023FF5DEAE0E4B9C427FF4DAAEE6
:101C20000A4A936823F0E0730B4343F48003EAE726
:101C30000220D3E60010005CFFFF0F000000FF470A
:101C400000200240002102400023024000630258AD
:101C5000000084CB0060025810000020400D0300FB
:101C6000000052C70000B8CF026870B504461046A5
:101C7000FFF796FD08B1002070BD9168214B194215
:101C800009D0636D012043F010036365A36D43F039
:101C90000103A365F0E7936823F0004323F03F03BB
:101CA00043F00103936002F013FD2268164B0546D2
:101CB00016499A420CD003F5407315488A4218BF62
:101CC00003468A429B6801D1D906D4D1114E13E054
:101CD000114BF6E71046FFF763FD20B993683340D8
:101CE00043F00103936002F0F3FC401B022803D988
:101CF00023681B68DA07C4D522681368DB07E9D5B7
:101D0000B9E700BF3F0000800020024000210240F0
:101D100000630258C0FFFF7F002302403A4B70B5BA
:101D200004460068984255D0384903F54073384A54
:101D3000884218BF13469E68FFF736FD0546002807
:101D40005FD194F85030012B5BD00123204684F8FA
:101D50005030FFF789FF002850D1636D06F01F0156
:101D60002A4A23F4706323F0010343F4807363650C
:101D70002368934230D189BBA2F58072656D25F44A
:101D800080156565656D15F4805502D0A56D25F04B
:101D90000605A5651C2593421D604FF0000584F8DB
:101DA000505005D040F2212525FA01F1C90717D579
:101DB000DA68920105D5626D22F4405242F48052F5
:101DC00062659A6822F0004222F03F0242F004026B
:101DD0009A6070BD0F4BAEE71A46CFE70A4AD1E7CB
:101DE000636D43F480136365D3689B01F1D5636D24
:101DF00023F4405343F480536365EAE784F850507A
:101E0000E7E70220E5E700BF002002400021024092
:101E10000063025800230240026838B504461046A9
:101E20009368FFF7BDFC08B9002038BD9907FBD4C3
:101E3000936803F00D03012B19D1936823F000433D
:101E400023F03F0343F0020393600323136002F087
:101E50003FFC054623689B68DB07E5D502F038FCAC
:101E6000401B0228F6D923689B68DA07F2D5636D18
:101E7000012043F010036365A36D43F00103A365E4
:101E8000D3E7000038B5434A05460368934203D0C0
:101E900002F58072934225D13F4B9B6813F4403F7B
:101EA00014BF01230023FBB94FF40020002101F0EF
:101EB0002BFF6B680446B3F5101F4AD03FD8B3F52B
:101EC000E01F44D036D8B3F5801F08D02CD8B3F526
:101ED000002F04D023F40022B2F5802F16D19B0CE2
:101EE0005B000FE02D4BD8E700F098FE6B680446CE
:101EF000B3F5003F05D0B3F5403F06D0B3F5803FC2
:101F000004D11B0CB4FBF3F400E0840802F0F8FBEE
:101F100041F2030398422B6823D8214A94429A68DD
:101F20001BD942F480721AE0B3F5A01FD7D0B3F5E5
:101F3000C01FD3E7B3F5001FE8D14409E6E7B3F5C6
:101F4000201F08D0B3F5301FE0D1040ADEE70409F2
:101F5000DCE78409DAE7C409D8E722F480729A60E2
:101F600038BD104A944203D89A6822F44072F6E7CA
:101F70000D4A944203D89A6822F44072D1E70B4A82
:101F800094429A6896BF22F4407242F4407242F43E
:101F90000072E4E700200240002302400063025880
:101FA000002D310121BCBE0041787D0181F0FA0293
:101FB000002373B504460193002800F0ED80456DC1
:101FC00025B9FEF765FFA56584F8505023689A6827
:101FD000900005D59A6822F0204222F03F029A60D4
:101FE0009A68D10040F19E809A68D20000F1B080DA
:101FF000626D012542F010026265A26D42F001029D
:10200000A2651846FFF7D0FB626D02F01002024392
:1020100040F0BE80626D184622F4817242F00202E6
:102020006265FFF7BDFB88B95C4A934204D002F5B4
:102030008072934240F08E805848FFF7B1FB034610
:102040005748FFF7ADFB034300F0928002F058FBC6
:1020500041F20303A2689842217F607D236B40F226
:102060008980102A40F086800A0442EA40321343F5
:1020700043F01C03012902BF226A02F1FF3243EA46
:102080004243626A22B102F47872A16A0A4313439E
:1020900022684449D068014010461943D160FFF7D7
:1020A00083FB936803F00803034327D1D368217DA2
:1020B00023F4804323F0030343EA8133E16A0B43B3
:1020C000D36094F83830012B5AD1E36B1069591E54
:1020D000D4E91036334343EA0143A16C0B43324940
:1020E00001400B4343F00103136120461369616B08
:1020F00023F070430B431361FFF7C4FEE3682268CB
:10210000012B41D1116BA36921F00F01013B0B435E
:102110001363636D23F0030343F0010363652846F3
:1021200002B070BD9A68214922F0104222F03F02AD
:1021300042F080529A601E4A1268B2FBF1F20132FC
:102140000192019A002A3FF44FAF019A013AF7E752
:10215000002556E71748FFF723FB00287FF476AFEA
:10216000154A9368616823F47C130B4393606DE711
:10217000124AF6E7134343EA403343EA014379E75F
:10218000136923F00103AFE7136B23F00F03BFE7DD
:10219000636D43F0100363650125C0E70020024032
:1021A0000021024003C0F0FF1EF800FC400D0300B8
:1021B0001000002000600258006302580023024013
:1021C000806800F0010070478068C0F380007047AD
:1021D000002373B50193044690F850300D4616461F
:1021E000012B3ED0012380F85030FFF715FE636DC0
:1021F000002833D123F48853226806F0804605F482
:10220000803523F0020343F002036365164B9168A7
:102210000B4033432B4343F0004393609368002B00
:1022200012DA019B013301930199104B9942F5D3C6
:10223000636D012023F0120343F010036365002354
:1022400084F8503002B070BD636D23F0030343F097
:1022500001036365002384F85030F3E743F0100373
:10226000F7E70220EEE700BFC0FFFE3F00F8C325FE
:1022700070B590F850209AB00346012A55D001223B
:102280002B4C80F8502000201D681690A542179016
:102290000ED12848FFF798FF04462846FFF794FF21
:1022A00020430ED0596D104641F02001596524E0BD
:1022B000596D83F85000104641F0200159651AB05D
:1022C00070BD0C681C4AE4B190684E6820F4404030
:1022D000304390602846FFF773FF05461548FFF727
:1022E0006FFF054308D1896890680C4320F4716141
:1022F00021F00F010C4394600020002283F850204D
:10230000DDE79168284621F440419160FFF758FFCE
:1023100001460848FFF754FF0143EDD1916821F4CD
:10232000716121F00F019160E6E70220C7E700BF6D
:10233000002002400021024000230240F8B504467C
:10234000002874D00368D8075ED42368990700F189
:10235000AD802368DA0627D59C4A1369916A03F099
:102360003803082B07D0182B40F0038101F003033A
:10237000012B40F0FE801368DB0502D5E369802B5A
:1023800055D102F0BDF941F20303216A98428F4B07
:1023900000F2E8805A68202922F0F8420CBF42F08F
:1023A000804242EA81625A602368190700F1238162
:1023B00023689A0600F1448123685D071ED5844D89
:1023C0002B6843F480732B6002F082F906462B6879
:1023D000DA0540F15A81A3687C4D012B40F05C8105
:1023E0002B6F43F001032B6741F2883702F070F93D
:1023F000764E0546336F9B0740F17481616A002970
:1024000040F0778100202BE0704A1369916A03F055
:102410003803102B05D0182B0BD101F00303022B2E
:1024200007D113689A0390D56368002B8DD10120E2
:1024300016E06368654DB3F5803F12D12B6843F415
:1024400080332B6002F044F9604E054633689B03ED
:102450003FF57BAF02F03CF9401B6428F6D903201E
:10246000F8BDA3B92B6823F480332B602B6823F4C9
:1024700080232B6002F02CF906462B689F037FF522
:1024800064AF02F025F9801B6428F6D9E7E7B3F5BD
:10249000A02F2B6803D143F480232B60CEE723F4D5
:1024A00080332B602B6823F48023CAE74749E26816
:1024B0000B69886A13F0380303D0182B2AD18007E0
:1024C00028D10B685B0701D5002AB0D03F4D2B689F
:1024D00023F0190313432B6002F0FAF806462B6829
:1024E0005F0711D502F00CF941F20303226998420B
:1024F0006B6822D823F47C33402A0CBF43F40033AA
:1025000043EA02336B6024E702F0E2F8801B022802
:10251000E5D9A4E72D4D2B68A2B123F0190313438D
:102520002B6002F0D5F806462B685807DAD402F083
:10253000CFF8801B0228F7D991E723F0FE4343EA46
:102540000263DFE723F001032B6002F0C1F80646C7
:102550002B6859077FF5FDAE02F0BAF8801B022800
:10256000F6D97CE7DA6822F07C5242EA0162DA604E
:102570001AE7E369154D6BB32B6843F080032B60BA
:1025800002F0A6F806462B68DF0511D502F0B8F870
:1025900041F20303226A984210D86B68202A23F084
:1025A000F8430CBF43F0804343EA82636B60FBE671
:1025B00002F08EF8801B0228E5D950E7EB6823F083
:1025C0007C5343EA0263EB60EEE600BF004402582E
:1025D000004802582B6823F080032B6002F078F843
:1025E00006462B68D8057FF5DFAE02F071F8801B38
:1025F0000228F6D933E76369A34D83B16B6F43F0CB
:1026000001036B6702F064F806466B6F9B073FF5AA
:10261000CFAE02F05DF8801B0228F6D91FE76B6F82
:1026200023F001036B6702F053F806466B6F9F07B8
:102630007FF5BEAE02F04CF8801B0228F6D90EE7FB
:10264000A369914D83B12B6843F480532B6002F052
:102650003FF806462B6898043FF5AEAE02F038F816
:10266000801B0228F6D9FAE62B6823F480532B60EE
:1026700002F02EF806462B6899047FF59DAE02F015
:1026800027F8801B0228F6D9E9E602F021F8801B22
:1026900064287FF69CAEE2E6B3B92B6F41F288372F
:1026A00023F001032B672B6F23F004032B6702F049
:1026B0000FF806462B6F98077FF5A0AE02F008F8DA
:1026C000801BB842F6D9CAE6052B2B6F03D143F025
:1026D00004032B6784E623F001032B672B6F23F0A1
:1026E000040380E601F0F4FF401BB8427FF682AE9F
:1026F000B5E6654D2B6903F03803182B78D02B68AD
:10270000022923F080732B6065D101F0E1FF0646BA
:102710002B68990159D4AB6AA26A23F47C7323F025
:1027200003031343E26A43EA0213AB62636BA26BD7
:10273000013B013A5B0212049BB202F4FE02134316
:10274000226B013AC2F308021343E26B013A12060C
:1027500002F0FE4213432B63EB6A23F00103EB62AA
:102760006B6BA26C6FF3CF0343EAC2036B63EB6A3C
:10277000226C23F00C031343EB62EB6A626C23F0D0
:1027800002031343EB62EB6A43F48033EB62EB6AC0
:1027900043F40033EB62EB6A43F48023EB62EB6AB1
:1027A00043F00103EB622B6843F080732B6001F070
:1027B0008FFF354D04462B689A013FF523AE01F09B
:1027C00087FF001B0228F6D949E601F081FF801B34
:1027D00002289DD943E601F07BFF04462B689B014C
:1027E0007FF510AE01F074FF001B0228F6D936E623
:1027F0000129AA6A2B6B3FF41AAE02F00301A06A0A
:1028000081427FF414AEC2F30512E16A8A427FF47A
:102810000EAE226BC3F30801013A91427FF407AE7A
:10282000626BC3F34621013A91427FF400AEA26B82
:10283000C3F30641013A91427FF4F9ADE26BC3F371
:102840000663013A93427FF4F2AD6B6BA26CC3F363
:10285000CC039A423FF4D6AD0B4DEB6A23F0010353
:10286000EB6201F035FF064601F032FFB042FBD0CB
:102870006B6BA26C6FF3CF0343EAC2036B63EB6A2B
:1028800043F00103EB62BDE500440258494B1A696D
:1028900002F03802102A30B500F08880182A0CD0D7
:1028A000002A40F085801A68434812F0200F03D0B8
:1028B0001B68C3F3C103D84030BD996A9D6ADC6AC6
:1028C00015F47C7FC5F305105A6BF5D0C2F3CC022A
:1028D00004F0010401F0030107EE900A6243B7EE31
:1028E000006A0129B8EEE77A06EE902AFAEEE96A64
:1028F0004ED002293ED000294AD11A68920627D527
:1029000019682D4AC1F3C1011B6BCA40C3F3080308
:1029100007EE902AF8EEE75AC5EE877A07EE103AEE
:10292000B8EEC77A37EE267A37EE067A67EE877A00
:10293000204B1B6BC3F34623013307EE103AF8EE2E
:10294000C76A87EEA67AFCEEC77A17EE900AB3E75D
:102950001B6BC3F3080307EE903AF8EEE77A77EEC5
:10296000A67A77EE867A9FED156AC6EE076A67EE5D
:10297000A67ADDE71B6BC3F3080307EE903AF8EE87
:10298000E77A77EEA67A77EE867A9FED0D6AECE726
:102990001B6BC3F3080307EE903AF8EEE77A77EE85
:1029A000A67A77EE867A9FED076ADEE7064883E728
:1029B000064881E7004402580090D0030024744C7C
:1029C0000024F44A0024744A00127A0000093D00F1
:1029D0002DE9F0410D46044610B90120BDE8F08113
:1029E000884A136803F00F038B42C0F0938023687A
:1029F0005F0700F19B801E070BD583496069CA6998
:102A000002F07002904204D9CA6922F070020243B7
:102A1000CA61D8060BD57C49A069CA6902F4E06294
:102A2000904204D9CA6922F4E0620243CA6199065D
:102A30000BD57549E0690A6A02F07002904204D928
:102A40000A6A22F0700202430A629A070BD56E49A5
:102A5000E0688A6902F00F02904204D98A6922F084
:102A60000F0202438A61DF076ED423689E0700F1DC
:102A7000A18064490A6802F00F02AA4200F2A8800D
:102A8000580700F1B18019070BD55F496069CA6921
:102A900002F07002904204D2CA6922F0700202432E
:102AA000CA61DA060BD55849A069CA6902F4E06226
:102AB000904204D2CA6922F4E0620243CA619B06D2
:102AC0000BD5514AE169136A03F07003994204D2AD
:102AD000136A23F070030B431362FFF7D7FE4A49D2
:102AE0004A4A8B69C3F30323D35C03F01F03D84026
:102AF0008B6903F00F03D35C454A03F01F0320FAF0
:102B000003F31360434B1860434BBDE8F041186872
:102B1000FEF7EABD136823F00F030B43136013683D
:102B200003F00F038B427FF458AF60E7364920690A
:102B30008A6902F0700290427FF65DAF8A6922F0E6
:102B4000700202438A6156E72F4BA1689A6922F40A
:102B500070620A439A6161681A6802291DD112F4F1
:102B6000003F3FF43AAF1A6941F28838264F22F00D
:102B700007020A431A6101F0ABFD06463B69626831
:102B800003F03803B3EBC20F3FF46FAF01F0A0FDC9
:102B9000801B4045F2D9032020E7032902D112F01F
:102BA000007FDEE7012902D112F4807FD9E712F01D
:102BB000040FD6E71449E0688A6902F00F029042D8
:102BC000BFF457AF8A6922F00F0202438A6150E7CF
:102BD0000A6822F00F022A430A600A6802F00F0214
:102BE000AA427FF4FAAE4BE7074920698A6902F0EE
:102BF00070029042BFF447AF8A6922F0700202432C
:102C00008A6140E70020005200440258B0BF020829
:102C10000C000020100000200800002008B5FFF77D
:102C200035FE0B4A0B4993699269C3F3032302F003
:102C30000F02CB5C03F01F0320FA03F3885C064A03
:102C400000F01F0023FA00F01060044A136008BD72
:102C500000440258B0BF02080C0000201000002001
:102C600008B5FFF7DBFF054B054ADB69C3F3021329
:102C7000D35C03F01F03D84008BD00BF00440258D6
:102C8000B0BF020808B5FFF7C9FF054B054ADB696D
:102C9000C3F30223D35C03F01F03D84008BD00BF79
:102CA00000440258B0BF02083F230360114B1A6969
:102CB00002F0070242609A6902F4706282609A69C7
:102CC00002F00F02C2609A6902F070020261DA69D2
:102CD00002F070024261DA6902F4E06282611B6A0A
:102CE00003F07003C361044B1B6803F00F030B6018
:102CF000704700BF0044025800200052F8B5394C1C
:102D000006460D46A36A03F00303032B67D023682E
:102D100023F08063236001F0DBFC074623681A017F
:102D200049D4A36A326823F47C3343EA0233A362B2
:102D3000B368F268013B013A5B0212049BB202F4F1
:102D4000FE0213437268013AC2F308021343326968
:102D5000013A120602F0FE421343A363E36A72696A
:102D600023F0C0031343E362E36AB26923F0200354
:102D70001343E362E36A23F01003E362E36BF26957
:102D80006FF3CF0343EAC203E363E36A43F0100344
:102D9000E362E36AB5B943F40023E362114C2368AC
:102DA00043F08063236001F093FC054623681B0118
:102DB0000FD5002005E001F08BFCC01B0228ADD927
:102DC0000320F8BD012D0CBF43F4801343F400131E
:102DD000E3E701F07DFC401B0228E7D9F0E7012082
:102DE000EFE700BF00440258F8B5394C06460D46DF
:102DF000A36A03F00303032B67D0236823F08053F7
:102E0000236001F065FC074623689A0049D4A36A51
:102E1000326823F07C7343EA0253A362B368F2681A
:102E2000013B013A5B0212049BB202F4FE0213431F
:102E30007268013AC2F3080213433269013A12067A
:102E400002F0FE4213432364E36A726923F4406391
:102E50001343E362E36AB26923F400731343E3624A
:102E6000E36A23F48073E362636CF2696FF3CF0368
:102E700043EAC2036364E36A43F48073E362E36A90
:102E8000B5B943F48003E362114C236843F08053E7
:102E9000236001F01DFC054623689B000FD5002030
:102EA00005E001F015FCC01B0228ADD90320F8BDD8
:102EB000012D0CBF43F4000343F08073E3E701F0FE
:102EC00007FC401B0228E7D9F0E70120EFE700BF2D
:102ED000004402582DE9F843036805461C011ED53D
:102EE000C36EB3F5001F2AD00FD8D3B1B3F5801F3E
:102EF0001DD001262B68D8054FD5EB6D042B4BD880
:102F0000DFE803F0223D44272700B3F5401FF0D14E
:102F1000864AE96E136D23F440130B4313650026B4
:102F2000E8E7824AD36A43F40033D362F0E7022130
:102F30000830FFF7E3FE06460028DBD1E8E7022170
:102F40002830FFF751FFF6E7784AD36A43F400339D
:102F5000D36234461CBB754AE96D136D23F0070339
:102F60000B4313652B68990528D52B6E802B43D016
:102F700017D8A3B3402B38D0012634461EE00021D9
:102F800005F10800FFF7BAFE0446E3E7002105F16A
:102F90002800FFF729FFF7E701263446E2E7264637
:102FA000E0E7C02B02D0B3F5807FE5D154BB5F4A88
:102FB000296E136D23F4E0730B4313652B685A05D8
:102FC00031D5D5F8AC30B3F5800F49D01CD8002BE3
:102FD00039D0B3F5001F3CD00126344623E0534AD4
:102FE000D36A43F40033D362E0E7002105F108001F
:102FF000FFF784FE0446D9E7002105F12800FFF71A
:10300000F3FEF7E72646D9E7B3F5C00F02D0B3F5D4
:10301000000FE1D154BB454AD5F8AC10936D23F4B1
:1030200060030B4393652B681B0530D5D5F8B03092
:10303000B3F1007F45D01BD8B3B3B3F1807F39D053
:103040000126344623E0394AD36A43F40033D3627D
:10305000E0E7002105F10800FFF750FE0446D9E73C
:10306000002105F12800FFF7BFFEF7E72646DAE763
:10307000B3F1407F02D0B3F1806FE1D13CBB2B4A6A
:10308000D5F8B010936D23F0E0630B4393652B6884
:103090009F0128D5EB6C202B3ED01AD8DBB1102B2A
:1030A00034D0012634461EE0204AD36A43F400336C
:1030B000D362E3E7002105F10800FFF71FFE044695
:1030C000DCE7002105F12800FFF78EFEF7E7264632
:1030D000DDE7302BE5D134BB144AE96CD36C23F027
:1030E00030030B43D3642B68D80430D56B6EB3F533
:1030F000005F00F095801BD8002B00F08480B3F5B2
:10310000805F00F086800126344620E0074AD36ABB
:1031100043F40033D362DEE7022105F10800FFF734
:10312000EDFD0446D7E72646DDE700BF0044025820
:10313000B3F5405F02D0B3F5804FE4D1002C75D1D8
:10314000934A696E136D23F4E0430B4313652B68B8
:1031500099040CD5AB6EB3F5003F00F0818067D8C1
:10316000002B6DD0B3F5803F73D0012634462B6819
:103170005A040ED5D5F8B430B3F1005F00F0918059
:1031800076D8002B7CD0B3F1805F00F083800126DD
:1031900034462B685B0115D52B6D4BB1B3F5807FA1
:1031A00040F08780012105F10800FFF7A7FD0446E4
:1031B000002C40F08180764A296DD36C23F4807313
:1031C0000B43D3642B681F0411D56B6FB3F1805F81
:1031D00074D0B3F1005F77D0002B7CD1002C7DD16F
:1031E0006B4A696F136D23F040530B4313652B68D3
:1031F000D80140F18380AB6C032B00F2C480DFE880
:1032000003F0746FBB74624AD36A43F40033D36231
:1032100094E7002105F10800FFF770FD04468DE7F3
:10322000002105F12800FFF7DFFDF7E726468EE7CE
:1032300023F48032B2F5802F02D0B3F5403F94D111
:10324000A4B9534AA96E136D23F4E0230B4313650D
:103250008DE7012105F10800FFF750FD0446EFE777
:10326000012105F12800FFF7BFFDF7E726467EE7BD
:1032700023F08052B2F1804F02D0B3F1405F86D18B
:10328000ACB9434AD5F8B410936D23F0E0430B4337
:1032900093657EE7012105F10800FFF72FFD044645
:1032A000EEE7012105F12800FFF79EFDF7E726462E
:1032B0006FE70126344685E7264683E7344AD36A1A
:1032C00043F40033D36289E7012105F10800FFF7D9
:1032D00015FD044682E70126344688E7264686E740
:1032E0002B4AD36A43F40033D362002C4ED1284AD0
:1032F000A96CD36C23F003030B43D3642B685902EE
:1033000054D5244F3B6843F480733B6001F0E0F9EF
:1033100080463B68DA0541D5002C74D11C4BD5F8AA
:10332000B8001A6F424012F4407F0BD01A6F196F29
:1033300022F4407241F480311967196F21F4803111
:1033400019671A67B0F5807F48D0D5F8B8301049B2
:1033500003F44072B2F5407F51D108690E4A20F45F
:103360007C5002EA131202430A61C3F30B03084ABA
:10337000116F0B43136719E0022105F10800FFF7F5
:10338000BDFC0446B1E701263446B7E72646B5E75B
:103390000044025800480258CFFFFF0001F098F99E
:1033A000A0EB08006428B4D9032634462B68D8075C
:1033B00009D5D5F88030102B3ED026D85BB3082B2A
:1033C00033D0012634462B6899074BD5EB6F052B7C
:1033D0005ED8DFE803F03F39573F3F3F01F078F90F
:1033E000DFF8B880074641F28839D8F870309B077B
:1033F000ABD401F06DF9C01B4845F6D9D4E70A6992
:1034000022F47C52B0E72646D0E723F00802202AB7
:1034100001D0182BD5D1ACB9204AD5F88010536D06
:1034200023F038030B435365CDE7012105F1080074
:10343000FFF764FC0446EEE7012105F12800FFF7E1
:10344000D3FCF7E72646BEE7012105F10800FFF7A8
:1034500055FC0446FCB9114AE96F536D23F007038C
:103460000B4353652B685A072BD5D5F89830052B9D
:1034700000F26E81DFE813F01A00140066011A00F2
:103480001A001A00012105F12800FFF7ADFCE0E762
:1034900001263446E6E72646E4E700BF004402582A
:1034A000012105F10800FFF729FC0446002C40F03B
:1034B0005281AA4AD5F89810936D23F007030B4365
:1034C00093652B689B0610D5D5F89430B3F1005F57
:1034D00000F0608100F24481002B00F04A81B3F1DA
:1034E000805F00F05081012634462B685F0610D5BE
:1034F000D5F8A030B3F5006F00F06E8100F2528174
:10350000002B00F05881B3F5806F00F05E8101263A
:1035100034462B68180610D5D5F8A430B3F5804F83
:1035200000F07C8100F26081002B00F06681B3F531
:10353000005F00F06C81012634462B68190714D512
:10354000D5F88830B3F5805F07D1022105F1280056
:10355000FFF74AFC002818BF0126804AD5F88810DA
:10356000536D23F440530B4353652B68DA0614D58F
:10357000D5F89C30B3F5807F07D1022105F12800F2
:10358000FFF732FC002818BF0126744AD5F89C10BA
:10359000936D23F440730B4393652B681B031BD57A
:1035A000D5F8A810B1F5803F00F04081B1F5003F9B
:1035B00007D0002940F0408105F10800FFF79EFB8D
:1035C0000446002C40F03B81644AD5F8A810936D66
:1035D00023F440330B4393652B685F030FD5D5F875
:1035E0008C30B3F5001F00F03B81B3F5401F00F0B5
:1035F0002D81B3F5801F00F02481012634462B680D
:10360000D80309D56B6D002B00F03381B3F5803FF3
:1036100000F03D81012634462B68990007D5022130
:1036200005F12800FFF7E0FB002818BF0126D5E9C7
:1036300000319A0340F14381D5F88400B0F5807FD2
:1036400000F03F8100F22C81002800F02F8101243E
:10365000DF0206D54148AE6F026D22F000423243D0
:103660000265DE0007D53D48D5F8BC60026922F44A
:10367000804232430261980206D538482E6F026DAF
:1036800022F08072324302655A0009D5334A10692C
:1036900020F4004010611069D5F8C060304310611B
:1036A000002B06DA2D48AE6DC26C22F04052324338
:1036B000C2641F0207D5294AD5F89000536D23F440
:1036C000400303435365CE0706D5002105F10800EA
:1036D000FFF714FB074600B927466B689C0706D521
:1036E000012105F10800FFF709FB064600B93E4637
:1036F0006B68580706D5022105F10800FFF7FEFAAE
:10370000044600B934466B68190706D5002105F157
:103710002800FFF769FB064600B926466B68DA0603
:1037200006D5012105F12800FFF75EFB044600B92C
:1037300034466B689B0600F1CA80201E18BF01202A
:10374000BDE8F883012105F12800FFF74DFBACE649
:1037500001263446B5E62646B3E600BF00440258CB
:1037600023F08052B2F1804F03D0B3F1405F7FF479
:10377000BAAEACB95B4AD5F89410536D23F0E04370
:103780000B435365B1E6002105F10800FFF7B6FAD7
:103790000446EEE7022105F12800FFF725FBF7E7D5
:1037A0002646A2E623F48062B2F5805F03D0B3F52B
:1037B000406F7FF4ACAEACB94A4AD5F8A010936D17
:1037C00023F4E0530B439365A3E6002105F10800C1
:1037D000FFF794FA0446EEE7022105F12800FFF70F
:1037E00003FBF7E7264694E623F40052B2F5004FB8
:1037F00003D0B3F5C04F7FF49EAEACB9394AD5F8CB
:10380000A410936D23F460430B43936595E6002168
:1038100005F10800FFF772FA0446EEE7022105F110
:103820002800FFF7E1FAF7E7264686E6022105F1D0
:103830002800FFF7D9FAC3E601263446CCE626462F
:10384000CAE6284AD36A43F40033D3627CB9254AD6
:10385000D5F88C10536D23F440130B435365CEE61B
:10386000012105F12800FFF7BFFA0446EEE72646DE
:10387000C5E61C4AD36A43F40033D36274B9194ACB
:10388000696DD36C23F480330B43D364C4E6022107
:1038900005F10800FFF732FA0446EFE72646BBE6DB
:1038A00020F48072B2F5007F7FF4D1AE002C7FF45B
:1038B000CFAE0C4C626D22F4407202436265344616
:1038C000C6E6084FFA6A42F40032FA62EEE70221D5
:1038D00005F12800FFF788FA00283FF42EAF0120F9
:1038E0002EE700BF0044025808B5FFF797F9054BD3
:1038F000054A1B6AC3F30213D35C03F01F03D840CD
:1039000008BD00BF00440258B0BF02084F4970B55F
:103910008C6A8E6ACD6A16F47C3FC6F30533CA6B97
:1039200000F0908007EE903AC2F3CC03C5F300128A
:1039300004F00304B8EEE77A5343012CB7EE006AB3
:1039400006EE903AFAEEE96A6ED0022C5ED0002CB8
:103950006AD10B689B0647D50A688B6BC2F3C1011D
:103960003B4AC3F30803CA4007EE902AF8EEE75A31
:10397000C5EE877A07EE103AB8EEC77A37EE267AA8
:1039800037EE067A67EE877A304A936BC3F34623A5
:1039900007EE103AB8EEC77A37EE067AC7EE876AB6
:1039A000FCEEE66AC0ED006A936BC3F3064307EED4
:1039B000103AB8EEC77A37EE067AC7EE876AFCEEA1
:1039C000E66AC0ED016A936BC3F3066306EE903AB4
:1039D000F8EEE66A76EE866A87EEA67AFCEEC77A9D
:1039E00017EE903A836070BD8B6BDFED1A5AC3F30C
:1039F000080307EE903AF8EEE77A77EEA67A77EECC
:103A0000867AC5EE876A67EEA67ABDE78B6BDFED37
:103A1000125AC3F3080307EE903AF8EEE77A77EE0E
:103A2000A67A77EE867AECE78B6BDFED0C5AC3F360
:103A3000080307EE903AF8EEE77A77EEA67A77EE8B
:103A4000867ADEE7C0E90033CCE700BF00440258C5
:103A50000090D0030024744C0024F44A0024744ADB
:103A60004F4970B58C6A8E6ACD6A16F07C7FC6F3BA
:103A700005534A6C00F0908007EE903AC2F3CC03F5
:103A8000C5F3002204F00304B8EEE77A5343012C97
:103A9000B7EE006A06EE903AFAEEE96A6ED0022CB2
:103AA0005ED0002C6AD10B689B0647D50A680B6C68
:103AB000C2F3C1013B4AC3F30803CA4007EE902A90
:103AC000F8EEE75AC5EE877A07EE103AB8EEC77AF5
:103AD00037EE267A37EE067A67EE877A304A136C2D
:103AE000C3F3462307EE103AB8EEC77A37EE067AEC
:103AF000C7EE876AFCEEE66AC0ED006A136CC3F39A
:103B0000064307EE103AB8EEC77A37EE067AC7EEEC
:103B1000876AFCEEE66AC0ED016A136CC3F30663C4
:103B200006EE903AF8EEE66A76EE866A87EEA67AB8
:103B3000FCEEC77A17EE903A836070BD0B6CDFED38
:103B40001A5AC3F3080307EE903AF8EEE77A77EED5
:103B5000A67A77EE867AC5EE876A67EEA67ABDE723
:103B60000B6CDFED125AC3F3080307EE903AF8EE40
:103B7000E77A77EEA67A77EE867AECE70B6CDFEDE4
:103B80000C5AC3F3080307EE903AF8EEE77A77EEA3
:103B9000A67A77EE867ADEE7C0E90033CCE700BF8D
:103BA000004402580090D0030024744C0024F44ACE
:103BB0000024744A4F4970B58C6A8E6ACD6A16F437
:103BC0007C7FC6F305134A6B00F0908007EE903AB5
:103BD000C2F3CC0305F0010204F00304B8EEE77A67
:103BE0005343012CB7EE006A06EE903AFAEEE96A0A
:103BF0004ED0022C5ED0002C6AD10B689B0667D594
:103C00000A680B6BC2F3C1013B4AC3F30803CA4005
:103C100007EE902AF8EEE75AC5EE877A07EE103ADB
:103C2000B8EEC77A37EE267A37EE067A67EE877AED
:103C3000304A136BC3F3462307EE103AB8EEC77A47
:103C400037EE067AC7EE876AFCEEE66AC0ED006AD8
:103C5000136BC3F3064307EE103AB8EEC77A37EE9C
:103C6000067AC7EE876AFCEEE66AC0ED016A136B5E
:103C7000C3F3066306EE903AF8EEE66A76EE866ADD
:103C800087EEA67AFCEEC77A17EE903A836070BD95
:103C90000B6BDFED1A5AC3F3080307EE903AF8EE08
:103CA000E77A77EEA67A77EE867AC5EE876A67EED0
:103CB000A67ABDE70B6BDFED125AC3F3080307EEDC
:103CC000903AF8EEE77A77EEA67A77EE867AECE726
:103CD0000B6BDFED0C5AC3F3080307EE903AF8EED6
:103CE000E77A77EEA67A77EE867ADEE7C0E90033E8
:103CF000CCE700BF004402580090D0030024744A6F
:103D00000024F44A0024744C1FB5A0F580730B43C3
:103D100015D19D4B1A6D02F00702042A2DD8DFE859
:103D200012F01C00E100050051014100186810F07C
:103D3000005000F0DF8001A8FFF792FED9E0A0F567
:103D400000730B431BD1904B1A6D02F4E072802A72
:103D5000ECD00CD8002A40F0C580186810F0007034
:103D600000F0C88001A8FFF725FF0298C2E0C02A32
:103D700000F02881B2F5807F14D00020BAE0A0F5D1
:103D800080630B432ED1804B9A6D02F46002B2F532
:103D9000800FCBD0DED9B2F5C00F00F01381B2F5A1
:103DA000000FE9E7DA6C196802F04052480706D5BF
:103DB0002AB91B68C3F3C1037448D8409AE0724B18
:103DC0001968C90503D5B2F1805F00F0FD8018685D
:103DD00010F4003000F08E80B2F1005F6C4818BF24
:103DE000002087E0A0F500630B431FD1664B9A6D5E
:103DF00002F0E062B2F1007F98D0ABD9B2F1407F1F
:103E000000F0E080B2F1806FB7D1DA6C196802F08F
:103E100040521B68480701D5002ACBD0D90503D5ED
:103E2000B2F1805F00F0D080574BD0E7A0F580530F
:103E30000B430FD1544B1A6D02F4E042B2F5005F10
:103E40003FF474AF86D9B2F5405F00F0BB80B2F5A5
:103E5000804FD9E7A0F500530B4332D14A4A136D86
:103E600003F4E023B3F5403F00F081800DD8B3F5B3
:103E7000803F16D0B3F5003F1BD0002B7FF47DAF01
:103E800005B05DF804EBFEF7EBBEB3F5802F74D000
:103E9000B3F5A02F7FF471AF10683D4B10F40030E4
:103EA0006FE0106810F0006024D001A8FFF72EFD2D
:103EB0005BE7106810F000501CD001A8FFF7D0FDA0
:103EC00053E7A0F500230B4320D12F4B9A6D02F44A
:103ED0004032B2F5803F10D0B2F5003F95D0002AB5
:103EE0007FF44BAF186810F0006003D001A8FFF713
:103EF0000DFD019805B05DF804FB186810F0005046
:103F0000F8D001A8FFF7ACFD0398F3E7A0F58033E4
:103F10000B430CD11C4BDA6CD2037FF51EAF186833
:103F200010F00060E6D001A8FFF7F0FCECE7A0F588
:103F300080430B4330D1144A936D03F0E043B3F157
:103F4000405F14D00DD8B3F1805FAAD0B3F1005F09
:103F5000AFD0002B7FF411AF05B05DF804EBFFF795
:103F6000C3BCB3F1804F08D0B3F1A04F92E7106803
:103F700010F00400BED013681CE71068054B10F465
:103F8000807018BF1846B5E7004402580090D0036F
:103F900000127A0000093D00A0F5004008437FF4BC
:103FA000ECAE0A4A136D03F04053B3F1805F07D0C3
:103FB000B3F1005F3FF475AF002B7FF4DEAE6BE72B
:103FC0001068CBE6024895E7024893E700440258A0
:103FD0000080BB0000093D002DE9F74F0023DFF80A
:103FE000C4914FF0B0440A6832FA03F502D103B02D
:103FF000BDE8F08F012505FA03F818EA020200F087
:10400000BB804E6803274FEA430E06F0030507FA0C
:104010000EFC6F1E6FEA0C0C012F34D8876807EA7C
:104020000C0ACF6807FA0EF747EA0A078760476865
:1040300027EA0808C6F300179F4047EA08074760C9
:10404000C768022D07EA0C088F6807FA0EF747EADF
:104050000807C76019D14FEAD30803F0070A4FF0E9
:104060000F0B00EB88084FEA8A0AD8F820700BFA89
:104070000AFB27EA0B0B0F6907FA0AF747EA0B0757
:10408000C8F8207001E0032DDAD1076805FA0EF5B3
:1040900016F4403F07EA0C0745EA070505606BD0B8
:1040A000D9F8F45023F0030703F0030C4FF00F0E80
:1040B00045F0020507F1B0474FEA8C0CC9F8F450FF
:1040C00007F58067D9F8F4500EFA0CFE05F00205EA
:1040D0000195019DBD6825EA0E0E314DA8424DD0D7
:1040E00005F58065A8424BD005F58065A84249D00A
:1040F00005F58065A84247D005F58065A84245D002
:1041000005F58065A84243D005F58065A84241D0F9
:1041100005F58065A8423FD005F58065A8423DD0F1
:1041200005F58065A84214BF0A25092505FA0CF596
:1041300016F4801F45EA0E05BD606FEA0207256888
:104140000CBF3D40154316F4001F256065680CBF89
:104150003D40154316F4003F6560D4F884500CBF11
:104160003D401543F603C4F88450D4F8805054BF42
:104170003D401543C4F88050013334E70025D5E7AE
:104180000125D3E70225D1E70325CFE70425CDE7B5
:104190000525CBE70625C9E70725C7E70825C5E7B5
:1041A00000000258004402580AB1816170470904B6
:1041B000FBE7436901EA030221EA030141EA024104
:1041C00081617047044B203053F82000034BC01A24
:1041D00018BF0120704700BF006402580003008030
:1041E00041F44071014B43F82010704700640258BD
:1041F000F8B5054600F06CFA074645B195F835303C
:10420000022B06D080236B65002385F83430012013
:10421000F8BD2C687C4EB4425BD07C4B9C4258D09D
:1042200018339C4255D018339C4252D018339C42CC
:104230004FD018339C424CD018339C4249D018338D
:104240009C4246D003F556739C4242D018339C42A0
:104250003FD018339C423CD018339C4239D018339D
:104260009C4236D018339C4233D018339C4230D015
:1042700018339C422DD0236823F00E032360644B37
:104280009C422FD12A6EB442136823F480731360CA
:104290003DD05E4B9C423AD018339C4237D0183305
:1042A0009C4234D018339C4231D018339C422ED0DB
:1042B00018339C422BD018339C4228D003F55673F8
:1042C0009C4224D018339C4221D018339C421ED0EB
:1042D0001DE0236823F01E032360636923F080033D
:1042E0006361CFE74B4B9C42CCD014339C42C9D086
:1042F00014339C42C6D014339C42C3D014339C4226
:10430000C0D014339C42BDD014339C42BAD0236831
:1043100023F0010323602368DB0747D42B68EA6D91
:10432000B342A86D02F01F024BD038498B4248D0EF
:1043300018318B4245D018318B4242D018318B4214
:104340003FD018318B423CD018318B4239D01831D4
:104350008B4236D001F556718B4232D018318B42E8
:104360002FD018318B422CD018318B4229D01831E4
:104370008B4226D018318B4223D018318B4220D06B
:1043800018318B421DD0012101FA02F24260204A0D
:1043900093421AD1D5E919325A60EB6E5BBB012307
:1043A000002085F8353085F8340031E700F090F9C9
:1043B000C01B0528AFD920236B65032385F8353052
:1043C00022E73F2393408360E4E7124A9342E1D01F
:1043D00014329342DED014329342DBD01432934233
:1043E000D8D014329342D5D014329342D2D0143262
:1043F0009342D4D1CEE71A6822F480721A60D5E9CC
:104400001C325A60CBE700BF100002402800024077
:10441000085402581C54025808B528B190F8353099
:10442000022B03D08023436501205DE003683F4AEF
:10443000934251D0183293424ED0183293424BD00F
:104440001832934248D01832934245D018329342E2
:1044500042D0183293423FD0183293423CD002F5FA
:104460005672934238D01832934235D01832934264
:1044700032D0183293422FD0183293422CD01832B7
:10448000934229D01832934226D01832934223D037
:104490001A6822F00E021A601A6822F001021A60ED
:1044A000234A934221D1026E136823F48073136070
:1044B000D0E9161303F01F02012393404B60D0E9AB
:1044C00019325A60C36E2BB31A6822F480721A60D4
:1044D000D0E91C325A601DE0042280F835201A68A9
:1044E00022F001021A60002008BD124A9342DAD07D
:1044F00014329342D7D014329342D4D01432934220
:10450000D1D014329342CED014329342CBD0143255
:104510009342C8D0012380F83530002380F834302E
:10452000036D002BDFD09847DDE700BF100002408D
:10453000085402581C54025890F835007047000087
:1045400070B51C4D0446EB6803F00703062B06D03C
:10455000E86800F03F00001B18BF012070BDEB6849
:1045600023F03F030343EB6000F0B2F806466B68AC
:104570009A0408D5A4F11D03012B0CD92D3C012C64
:1045800009D90020EAE700F0A3F8801BB0F57A7F94
:10459000EDD90120E2E700F09BF8064D0446EB68F8
:1045A000DB03EED400F094F8001BB0F57A7FF6D967
:1045B000EFE700BF0048025807490302CA6803F446
:1045C000E06322F4E0621204120C134343F0BF6371
:1045D00043F40033CB60704700ED00E0164B30B57C
:1045E000DC68C4F30224C4F10703251D042B28BF93
:1045F0000423062D4FF0FF358CBF033C002405FA41
:1046000003F3002805FA04F521EA030322EA050270
:1046100003FA04F343EA02034FEA0313DBB206DBB7
:1046200000F1604000F5614080F8003330BD00F0DB
:104630000F00024A1354F9E700ED00E014ED00E02A
:10464000002807DB0123410900F01F00024A8340D4
:1046500042F82130704700BF00E100E010B50320B0
:10466000FFF7AAFFFEF712F90F49104A8B69C3F34F
:104670000323D35C03F01F03D8408B6903F00F03BF
:10468000D35C0B4A03F01F0320FA03F31360094BBA
:1046900018600F20FDF728F8044618B9FDF712F846
:1046A000204610BD0124FBE700440258B0BF0208B9
:1046B0000C00002010000020034A044B11681B78F6
:1046C0000B441360704700BFEC060020040000207C
:1046D000014B1868704700BFEC06002038B504464F
:1046E000FFF7F6FF0546631C1EBF044B1B78E4185A
:1046F000FFF7EEFF431BA342FAD338BD04000020AE
:10470000014B1868000C70470010005C03689A6940
:10471000910701D500229A629A69D20703D49A6957
:1047200042F001029A61704730B5039DC1F309015F
:1047300004682B43606843EA0243054A0B4342EA9C
:10474000555223F0004320EA02000343636030BD6A
:10475000FF63FF03204B426B9A4201F0010370B5E7
:104760000DB201F002041FD01C4EB2421CD01C4EF0
:10477000B24219D0002DC3F10003B4BFB822002209
:1047800003F0F20313430CB143F0F403102902D1F8
:1047900043F0900303E0202901D143F02003016896
:1047A0000A6813430B6070BD002DC3F10003B4BF52
:1047B000B822002203F0F20313430CB143F0F403D8
:1047C0001029E5D0202902D143F06003E7E7402912
:1047D00008BF43F04003E2E7855502088558020808
:1047E0005D54020811F0010307D090F8413003F046
:1047F0002803282B14BFF22342238A0709D590F8F7
:10480000412002F02802282A0CBF43F0440343F061
:10481000F4030A04016848BF43F0B8030A6822EAB7
:1048200003030B60704703682DE9F0419C6905465E
:104830000F46164614F010046FD000241022A04634
:10484000DA612B689A69900661D4B8F1000F35D00F
:1048500044F0040401202E68B369D90505D54FF44E
:10486000807244F001040120F2615A0505D54FF42D
:10487000806244F008040120F2619B054FD54FF49B
:10488000007344F00204F3612846FFF73FFF7368AA
:10489000012023F0FF7323F48B3323F4FF7323F001
:1048A000010373606B6C23436B64202385F84130F4
:1048B000002385F8423085F8403032E07A1CC1D0C0
:1048C000FFF706FF801BB84201D8002FB9D12B6833
:1048D000596895F842209869D2B200040AD5490473
:1048E00008D4202A06D05A6842F480425A60FFF762
:1048F000EFFE06462B689B699B06A2D4FFF7E8FEF5
:10490000801B1928F6D920244FF0010899E7B8F147
:10491000000F9DD12022DA619AE720469BE700280C
:10492000B2D1BDE8F08170B504460D461646236845
:104930009B699B0701D500201FE03246294620468F
:10494000FFF771FFC0B96A1CF1D0FFF7C1FE801BF1
:10495000A84201D8002DEAD123689B6913F0020315
:10496000E5D1626C84F8403042F02002626420227B
:1049700084F8412084F84230012070BD2DE9F041D7
:10498000DDF8188004460F4616461D4623689B69CD
:1049900037EA03030CBF01230023B34201D00020F8
:1049A00025E0424629462046FFF73DFFF0B96B1C43
:1049B000ECD0FFF78DFEA0EB0800A84201D8002D37
:1049C000E4D123689B6937EA03030CBF012300236A
:1049D000B342DBD1636C43F020036364202384F88B
:1049E0004130002384F8423084F840300120BDE893
:1049F000F08170B504460D46164623689B699B06F8
:104A000001D500201DE0324629462046FFF70BFF66
:104A1000B0B9FFF75DFE801BA84201D8002DECD194
:104A200023689B6913F02003E7D1626C84F840305F
:104A300042F020026264202284F8412084F842304F
:104A4000012070BD2DE9F84305460E4617460024A7
:104A50004FF01008DFF88C902B689B695B0700D43F
:104A600014B12046BDE8F8833A4631462846FFF7A0
:104A7000DAFE2B6804469A6990060CD4003C18BFF5
:104A80000124FFF725FEC01BB04201D8002EE3D160
:104A9000D4B10124E0E79CB99A699A69D10611D58D
:104AA00004222021C3F81C806A64D9615A6802EA92
:104AB00009025A6085F8411085F8404085F8424067
:104AC0000124DEE76C64DCE72B689B695A07C3D4DA
:104AD0006B6C85F8404043F020036B64202385F81D
:104AE0004130D6E700E800FE10B5044600284ED05D
:104AF00090F8413003F0FF021BB980F84020FCF72A
:104B00005DFB242384F8413023681A6822F00102F7
:104B10001A60626822F070621A619A6822F4004298
:104B20009A60D4E90221012906D142F400429A6038
:104B30005A6822F4006207E042F4044202299A60B3
:104B4000F6D15A6842F400625A6000205A6842F076
:104B5000007242F400425A60DA6822F40042DA60DD
:104B6000D4E904210A43A16942EA0122DA60D4E9C6
:104B700007210A431A601A6842F001021A602023D2
:104B8000606484F84130206384F8420010BD012045
:104B9000FCE700002DE9F347994690F841300446C0
:104BA0000E46202B90460A9F40F09B8090F84030A4
:104BB000012B00F096804FF0010A80F840A0FFF72B
:104BC00087FD19230546009052464FF400412046C8
:104BD000FFF7D4FE18B1012002B0BDE8F087212311
:104BE000C4F82480606384F84130102384F8423094
:104BF0006064A4F82A90638D9BB2FF2B18D8628D55
:104C00004FF0007392B22285B2B1C4462168013AD6
:104C10001CF8010B92B28862618D22850132013944
:104C2000C4F824C089B261852F490091D2B205E051
:104C3000FF224FF08073E6E72B4900913146204672
:104C4000FFF772FD638D2A46394620469BB2BBB9F9
:104C5000FFF7CFFE0028BED123682021D9615A6812
:104C600022F0FF7222F48B3222F4FF7222F0010252
:104C70005A6084F8411084F8400084F84200ABE7A1
:104C8000FFF751FE0028A6D1636A226813F8011BC2
:104C900091626362638D228D013B013A9BB292B2B5
:104CA0006385638D22859BB2002BCBD0002AC9D1AE
:104CB0003B46802120460095FFF760FE00288AD100
:104CC000638D9BB2FF2B05D9FF224FF080732285A5
:104CD0000090B3E7628D4FF0007392B2228500908E
:104CE000A4E7022078E700BF002000802DE9F34709
:104CF000984690F8413004460E46202B91460A9F74
:104D000040F0878090F84030012B00F082804FF017
:104D1000010A80F840A0FFF7DBFC1923054600904C
:104D200052464FF400412046FFF728FE18B10120FB
:104D300002B0BDE8F0872223C4F82490606384F8B1
:104D40004130102384F842306064A4F82A80638DD7
:104D50009BB2FF2B304B26D9FF22228500934FF0C8
:104D6000807331462046FFF7DFFC638D2A463946C3
:104D700020469BB2FBB9FFF73CFE0028D7D1236841
:104D80002021D9615A6822F0FF7222F48B3222F47A
:104D9000FF7222F001025A6084F8411084F840004A
:104DA00084F84200C4E7628D92B2228500934FF0EE
:104DB0000073D2B2D5E7FFF745FE0028B7D12368CC
:104DC0005A6A636A1A70636A228D0133013A636218
:104DD000638D92B2013B22859BB26385638D9BB24A
:104DE000002BC2D0002AC0D13B468021204600952E
:104DF000FFF7C4FD00289AD1638D9BB2FF2B03D926
:104E0000FF2222850090AAE7628D92B2228500904F
:104E1000CDE702208CE700BF0024008073B5044674
:104E2000104694F84120202A45D12568AA6912F439
:104E3000004240D194F84060012E3CD001266062CF
:104E400084F84060212684F84160102684F842608E
:104E500062646385194BE362194B6363638D9BB294
:104E6000FF2B21D8638D9AB24FF000732285FAB1DF
:104E700010F8016B013AAE6292B26062608D2285D9
:104E800001320138D2B280B260850E480090002510
:104E90002046FFF749FC2046012184F84050FFF7E7
:104EA00059FC284602B070BDFF224FF08073DDE749
:104EB00004480090EBE70220F4E700BF0000FFFF8A
:104EC0002B5302080020008037B5044690F84100BB
:104ED000202832D12068806910F400402DD194F848
:104EE0004050012D29D02225626284F841501025BE
:104EF00084F8425060646385114BE362114B636335
:104F0000638D9BB2FF2B14D8628D4FF0007392B269
:104F10000D4800252285D2B200902046FFF704FC00
:104F20002046022184F84050FFF714FC284603B0C5
:104F300030BDFF224FF08073EAE70220F7E700BFA1
:104F40000000FFFF2B530208002400800268436B1F
:104F50009169126803B1184770477047704738B5B8
:104F6000002580F8425090F84130212B4FF020036B
:104F700080F841300AD11123012145630363FFF713
:104F800031FC80F84050FFF7E8FF38BD12230221C2
:104F900045630363FFF726FC80F84050FFF7DEFF10
:104FA000F3E77047704708B5036800211A6880F876
:104FB0004210510415D51A6822F480421A6090F804
:104FC0004130292B13D12823012180F8413021239E
:104FD0000363FFF707FC002380F84030FFF7E1FF91
:104FE00008BD1204EBD51A6822F40042E6E790F8F7
:104FF00041302A2BF4D12823022180F8413022238A
:105000000363FFF7EFFB002380F84030FFF7CAFF90
:10501000E6E7704790F8412002F02802282AF8B508
:10502000036835D19E69C2689D69C6F30046022AAD
:1050300099684FEA1545DF6805F0FE051FD185EA3E
:10504000D115C1F3090215F006050ED1816C0131AD
:105050008164816C022907D108218564D96180F8B7
:1050600040503146FFF7D5FFF8BD4FF40041FFF740
:10507000B9FB002307F0FE0280F84030F1E74FF45F
:105080000041FFF7AFFB00232A4680F84030E8E7F5
:105090000822DA61002380F84030E5E7704700001D
:1050A00008B5164B2022C36200230363436380F8D4
:1050B000412080F842304B0712D503685A6A436A90
:1050C0001A70436A01334362038D4BB1013B038580
:1050D000438D013B9BB24385436C43F0040343641F
:1050E00048F20301FFF77EFB03681022DA61002318
:1050F00080F84030FFF7D2FF08BD00BF0000FFFF7F
:10510000704770477047704790F84120602A4FF011
:10511000000208B508D1202180F8402080F8411015
:105120000263FFF7F0FF08BD026380F84020FFF73D
:10513000E9FFF8E770B5002290F841303C4D044695
:1051400080F84220283BC5624285022B426C42EA2D
:10515000010242642AD80321FFF744FB282380F888
:105160004130344BA06B6363236B002841D0112B7B
:1051700001D0212B3DD123681A68510403D51A6848
:1051800022F480421A60FFF7D7F901282CD02A4B6D
:10519000A06B0365002384F84030FFF73DF9002839
:1051A00045D0A06B036DBDE87040184748F203017D
:1051B000FFF718FBFFF7AAFA90F84130602B11D0E7
:1051C000202380F8413003689A6995060AD59A69C8
:1051D000D00605D51022DA61626C42F004026264E6
:1051E0002022DA610023BDE72046BDE87040FFF7CA
:1051F0008BBFE06B0028F7D0122B01D0222BF3D10C
:1052000023681A68120403D51A6822F400421A604F
:10521000FFF792F90128E7D0074BE06B0365002305
:1052200084F84030FFF7F8F808B1E06BBAE770BDDA
:105230000000FFFF215A0208335B020873B52023E8
:10524000056804460E46EB6190F84130212B36D1BB
:105250000121FFF7C7FA112323636B68F20623F0DD
:10526000FF7323F48B3323F4FF7323F001036B608C
:105270004FF000036363A3F58033E36205D5102389
:10528000EB61636C43F00403636494F84130602B7A
:1052900005D1730703D56B6ADBB20193019B2046EE
:1052A000FFF734FA636C94F84120602A00D07BB198
:1052B000616C204602B0BDE87040FFF73BBF90F83C
:1052C0004130222BC9D10221FFF78CFA1223C3E708
:1052D00094F84120212A12D1202284F8403084F809
:1052E0004120236394F8422084F84230402A03D1BD
:1052F000FFF706FF02B070BDFFF72FFEFAE794F844
:105300004120222AF6D1202284F8403084F841201E
:10531000236394F8422084F84230402A02D1FFF7F8
:10532000F0FEE7E7FFF71AFEE4E773B590F84030C8
:1053300004460D461646012B00F08E800123E90637
:1053400080F8403017D5F20615D503681022DA61CF
:10535000436C43F004034364FFF7D8F9AA0605D56C
:10536000B30603D529462046FFF768FF002084F8DE
:10537000400002B070BD6B0712D5700710D52368CE
:1053800025F004055A6A636A1A70636A013363621E
:10539000238D013B2385638D013B9BB26385DDE754
:1053A0006906C5F380130DD4AA070BD5B00709D53C
:1053B000638D9BB2002BD1D0636A226813F8011B66
:1053C0009162E4E7290632D57206C7D5638D22685B
:1053D0009BB203B3208DF0B95168638DC1F309010D
:1053E0009BB2FF2B08D9FF224FF0807322850090DB
:1053F0002046FFF799F9B1E7628DE36A92B213F59F
:10540000803F2285D2B202D0E36A0090F0E74FF0ED
:1054100000730090ECE753689B0103D42046FFF72C
:105420009EFD9BE740212046FFF784FE96E7002B78
:1054300094D0700692D5638D9BB2002BF2D1236875
:105440005A6891018AD4E26A12F5803FE6D15A681F
:1054500042F480425A6081E702208AE713B590F84F
:1054600040300446012B00F08680012380F8403054
:10547000CB0612D5D30610D5036810222021DA619D
:10548000436C43F004034364FFF764F9FFF73EF90C
:10549000002084F8400002B010BD880708D59307AB
:1054A00006D52368226D9A624FF0FF332365EFE73C
:1054B000080636D5530634D501212046FFF792F968
:1054C0001021FFF747F9638D9BB233B3638D9BB215
:1054D000FF2B18D9FF22E16C0023228500934FF0A7
:1054E000807389B2FFF720F9638D228D9B1A9BB2DE
:1054F000638594F841202368222A1A6830D142F447
:1055000000421A60C4E7628D0023E16C92B22285EA
:105510000093D2B24FF00073E3E74021FFF70AFE99
:10552000B6E748061FD553061DD501212046FFF7D3
:1055300059F91021FFF70EF994F841100F4A104B5A
:10554000222918BF1346628D92B2FF2A03D9FF2287
:10555000E16C2285C2E7628DE16C92B22285D7E7C9
:1055600042F48042CDE7880692D5930690D5204636
:10557000FFF764FE8CE702208DE700BF002000806B
:105580000024008073B590F840300446012B79D098
:10559000012380F84030CB0612D5D60610D503681B
:1055A00010222021DA61436C43F004034364FFF7C7
:1055B000D1F8FFF7ABF8002084F8400002B070BDCE
:1055C0000D0642D5500640D525682B6823F04003D0
:1055D0002B60638D9BB263B36968638DC1F309016E
:1055E0009BB2FF2B1AD9FF2323854FF08073002233
:1055F000268D2046009294F82820FFF795F8638DB9
:105600009B1B9BB2638594F84130222B2B680CBF07
:1056100043F4004343F480432B60CCE7638D238540
:10562000E36A13F5803F01D0E36AE0E74FF00073CF
:10563000DDE76B689A0103D42046FFF790FCBAE7D8
:1056400040212046FFF776FDB5E74B0612D55606FA
:1056500010D5638D9BB2002BF2D123685A68950157
:10566000A9D4E26A12F5803FE6D15A6842F480423A
:105670005A60A0E788069ED593069CD52046FFF782
:10568000DDFD98E7022099E72DE9F0410568202229
:1056900004460E46D5F80080C76A90F84130EA61AA
:1056A000213B092B0CD8DFE803F0058D0B0B0B0B0E
:1056B0000B93058D48F20101FFF794F82123236332
:1056C0006B68204643F400436B606B6823F0FF7304
:1056D00023F48B3323F4FF7323F001036B60FFF794
:1056E00015F818F4804F79D02B6823F480432B6091
:1056F000A36B2BB31B68614A93421ED018329342AE
:105700001BD01832934218D01832934215D0183259
:10571000934212D0183293420FD0183293420CD0D9
:105720001832934209D002F55672934205D01832CE
:10573000934202D018329342FFD05B689BB26385DC
:1057400072070FD5636A26F004066A6A1A70636AE4
:1057500001336362238D2BB1013B2385638D013BB4
:105760009BB26385638D9BB21BB1636C43F00403F2
:105770006364F30611D518F0100F0ED0638D9BB241
:10578000002B45D194F84130282B30D1B7F1007F60
:105790002DD131462046FFF783FC002384F84230A8
:1057A000656C6363002D42D0616C2046FFF7C2FC3C
:1057B00094F84130282B4CD131462046BDE8F041C9
:1057C000FFF76EBC48F20201FFF70CF8222376E7E0
:1057D00048F20301FFF706F8002370E718F4004FC2
:1057E000AED02B6823F400432B60E36B81E794F881
:1057F00041202368292A4FF01002DA61CDD117F534
:10580000803FCAD02046FEF781FFFFF7CCFBC4E7FC
:1058100023681022DA61636C43F00403636437F099
:105820008073BAD1616C2046FFF784FCB5E7E36A68
:1058300013F5803F0FD02046FFF7B5FB104B2046F5
:1058400084F84050E362202384F841302563FFF759
:1058500025FCBDE8F08194F84130204684F84050A2
:10586000222B4FF0200384F84130256302D1FFF74B
:1058700099FBEEE7FFF795FBEBE700BF1000024056
:105880000000FFFF70B590F8403004460D46C66A30
:10589000012B00F0C080012380F840308B0607D533
:1058A000930605D5FFF7F0FE002084F8400070BD98
:1058B000EB0640F1A680D00640F1A380C2F3803110
:1058C00002F4004251EA020300F09780E36B3BB31D
:1058D0003AB31B68514A93421ED0183293421BD0F0
:1058E0001832934218D01832934215D0183293428E
:1058F00012D0183293420FD0183293420CD0183283
:10590000934209D002F55672934205D01832934261
:1059100002D018329342FFD05B68B3FA83F35B097D
:105920001A46A36B43B339B31B683C498B421ED064
:1059300018318B421BD018318B4218D018318B4252
:1059400015D018318B4212D018318B420FD018313C
:105950008B420CD018318B4209D001F556718B4225
:1059600005D018318B4202D018318B42FFD05B68D2
:10597000B3FA83F35B090BB9012A1DD194F84130C6
:10598000282B07D1B6F1007F04D129462046FFF726
:1059900087FB89E794F841202368292A4FF01002F9
:1059A000DA6181D116F5803F3FF47EAF2046FEF7E5
:1059B000ADFEFFF7F8FA77E723681022DA6136F0D8
:1059C0008072636C43F00403636494F84130DBB28B
:1059D0007FF46AAF213B092B08D8DFE803F0050C00
:1059E000070707070707050C21232363616C20467F
:1059F000FFF7A0FB58E72223F7E723681022DA61BC
:105A000052E729077FF550AF13077FF54DAF2046CA
:105A1000FFF700FB48E7022049E700BF1000024003
:105A200070B590F8406004460B46C56A012E7ED0E2
:105A3000012680F840608E0607D5960605D5FFF74B
:105A400023FE002084F8400070BDD90630D5D6066C
:105A50002ED5628D92B2E2B994F84120282A07D15E
:105A6000B5F1007F04D119462046FFF719FBE8E79E
:105A700094F841202368292A4FF01002DA61E0D11E
:105A800015F5803FDDD02046FEF740FEFFF78BFA8C
:105A9000D7E723681022DA61636C43F00403636480
:105AA00035F08073CDD1616C2046FFF743FBC8E72A
:105AB00058071BD5510719D5638D9BB26BB123686D
:105AC0005A6A636A1A70636A01336362238D013B09
:105AD0002385638D013B9BB26385638D9BB2002B55
:105AE000AFD115F5803FACD02046CFE71E0705D5D6
:105AF000100703D52046FFF78DFAA2E79907A0D536
:105B000093079ED5638D9BB26BB1636A226813F8CD
:105B1000011B91626362638D013B9BB26385238DA0
:105B2000013B23858DE735F080738AD1DCE70220C5
:105B30008AE7806B836B0BB100221A65C36B0BB1D4
:105B400000221A65FFF7E0BA10B590F8412003462D
:105B5000202AD4B21CD190F84020012A18D0242247
:105B600080F841200268106820F001001060106881
:105B700020F480501060106801430020116011680B
:105B800041F00101116083F8414083F8400010BDED
:105B90000220FCE710B590F841200346202AD4B239
:105BA0001BD190F84020012A17D0242280F84120F0
:105BB0000268106820F001001060106820F4706026
:105BC00040EA012100201160116841F001011160DB
:105BD00083F8414083F8400010BD0220FCE700003C
:105BE000F0B5D1E900670C698D68FFB92C4344EA30
:105BF0008644D1E9066535434E6935430E6A45EA68
:105C00000665CE6845EA0645866ED0F88400734383
:105C100000EB830640F8234000200F4C75600836E7
:105C2000CB680432E35C834205D8F0BD34432C4397
:105C300044F08044DDE712F8023C12F8015C1B04DA
:105C400043EA056312F8045C2B4312F8035C43EA51
:105C5000052333500430E3E778BF02082DE9F04F05
:105C600099B004464C22CC4905A8FAF743FD002C14
:105C700000F0B381C94B22689A4204BF03F58073D8
:105C8000636094F8983003F0FF0223B9204684F84B
:105C90009920FBF7ADF92268936923F01003936113
:105CA000FEF716FD054623689A69110700F1868103
:105CB0009A6942F001029A61FEF70AFD05462368DF
:105CC0009A69D20740F18D819A6942F002029A6185
:105CD000227C012A9A690CBF22F0400242F0400265
:105CE0009A61627C012A9A690CBF42F4804222F4D4
:105CF00080429A61A27C012A9A690CBF22F48052E8
:105D000042F480529A619A69A06822F44072024378
:105D10009A619A6922F0A4029A611A6922F010022B
:105D20001A61E268012A40F063819A6942F0040234
:105D30009A61A269B0F5407F02F1FF31E26902F198
:105D4000FF324FEA022242EA4162216A01F1FF3149
:105D500042EA0102616901F1FF3142EA0142DA617E
:105D60000ED1E26A511E226B013A120142EA01226F
:105D7000A16A01390A43616A013942EA0142DA60E3
:105D8000266E2EB1D3F8C020616E0A43C3F8C0203E
:105D9000D4F85CE0A26E16EB0E0F01920CD018A89E
:105DA0000199D3F8C82000EB810122F0070251F8D5
:105DB0004C1C0A43C3F8C820D4E910C20392BCF1BA
:105DC000000F0CD018A80399D3F8BC2000EB810178
:105DD00022F0070251F84C1C0A43C3F8BC20D4E956
:105DE0001289B8F1000F0CD018A9D3F8BC2001EB30
:105DF000890122F0700251F84C1C42EA0112C3F8EA
:105E0000BC20226DD4F854B0029262B118A9D3F824
:105E1000BC2001EB8B0122F4E06251F84C1C42EAF9
:105E20000122C3F8BC205D4A934204D161688A68AC
:105E300022F003028A600022594D606BC4F89C2056
:105E4000C4F894200122D4F83CA084F89820D3F818
:105E500084202A4042EA8002C3F88420D3F88410C8
:105E6000A26B21F47F0141EA0241C3F8841081183A
:105E7000D3F8887000F180502F4000F52C5047EA8D
:105E8000810701EB4A01C3F888708000D3F888705D
:105E900027F4FE0747EA0A47C3F88870D3F8A070D2
:105EA0002F4047EA8107C3F8A070D3F8A07027F409
:105EB000FE0747EA0C47C3F8A070039F07FB0CFCE2
:105EC000D3F8B07061442F4047EA8107C3F8B0703F
:105ED000D3F8B07027F4FE0747EA0847C3F8B0705C
:105EE00009FB08F7D3F8AC8001EB070908EA0508BD
:105EF000029948EA89080BFB01FBC3F8AC80D3F890
