:020000040800F2
:0450000000009424F4
:045004003A560B4CC1
:0C50080052020400520204005241000059
:105400000050002041580008E95F0008EB5F0008E9
:10541000ED5F0008EF5F0008F15F0008000000008A
:1054200000000000000000000000000071C800083B
:10543000F35F00080000000011C9000855C900080A
:105440003F5800083F5800083F5800083F580008E0
:105450003F5800083F5800083F5800083F580008D0
:105460003F5800083F5800083F5800083F580008C0
:105470003F5800083F5800083F5800083F580008B0
:105480003F5800083F5800083F5800083F580008A0
:10549000F55F0008056000083F5800083F58000805
:1054A0003F580008156000083F5800083F580008A2
:1054B0003F5800083F5800083F5800082560000882
:1054C0003F5800083F5800083F5800083F58000860
:1054D0003F58000835600008456000085560000826
:1054E0003F5800083F5800083F5800083F58000840
:1054F0003F5800083F5800083F5800083F58000830
:105500003F5800083F5800083F5800083F5800081F
:105510003F5800083F5800083F5800083F5800080F
:105520003F5800083F5800083F5800083F580008FF
:1055300000E00130037813B18B42FAD100E0002083
:1055400070470346002001E0013001331A78002A39
:10555000FAD17047002302E000F8011B01339342A7
:10556000FAD37047844658B161B16AB1002303E0B1
:105570001CF80300C85401339342F9D3002070474C
:105580000220704702207047072070470023934293
:1055900015D200B590F800E091F800C0E64508D1BA
:1055A0000130013101339BB29342F3D300205DF807
:1055B00004FB01D90120FAE74FF0FF30F7E70020A4
:1055C00070472DE9F84381460F46FFF7BAFF804642
:1055D0003846FFF7B6FFB8B10546804501D900242B
:1055E00002E0002611E00134A8EB0503A34209D331
:1055F00009EB0406AAB239463046FFF7C7FF002878
:10560000F1D102E0002600E000263046BDE8F88334
:1056100051B15AB10160028100238380C38043816C
:105620000122027318467047042070470520704716
:1056300001B310B50446F8B1037B0BB1032010BDD4
:105640000068A38801221844FFF78CFFB0B9638972
:10565000013B9BB2638113B901232373EFE7A28857
:105660002389013B9A4202D00132A280E7E700235E
:10567000A380E4E7042070470420E0E70820DEE789
:10568000034630B100209880D88001221A735881D7
:1056900070470420704720B129B1037B0B700020B4
:1056A0007047042070470420704748B151B1038906
:1056B0004289934214BF002301230B7000207047DE
:1056C0000420704704207047F0B583B000238DF8A4
:1056D000073039B304460F4630B30DF10701FFF729
:1056E000E4FF054608BB9DF80730012B20D0237B43
:1056F000012B15D0E6880136238996FBF3F203FBD4
:105700001266F6B22168012231443846FFF72AFFBB
:1057100080B9638901336381E6800023237304E049
:10572000A679EFE7042500E00425284603B0F0BD84
:105730000225FAE70825F8E720B129B143890B8053
:10574000002070470420704704207047F0B583B0F4
:105750000023ADF80630E1B1064615460F46D0B13C
:1057600012B9052003B0F0BD0DF10601FFF7E4FF0B
:10577000BDF80630AB4201D3002407E00720F1E773
:1057800039193046FFF754FF0134A4B2AC42F7D3C5
:10579000E8E70420E6E70420E4E770B582B00023E0
:1057A000ADF80630A1B105460E4698B10DF10601DF
:1057B000FFF7C2FF002405E031192846FFF738FF44
:1057C0000134A4B2BDF80630A342F5D802B070BDD2
:1057D0000420FBE70420F9E730B139B1038942899D
:1057E0009B1A0B80002070470420704704207047EC
:1057F000F0B583B00023ADF80630D1B106461546AA
:105800000F46C0B112B9052003B0F0BD0DF106017D
:10581000FFF7E2FFBDF80630AB420ED3002405E0EF
:1058200039193046FFF750FF0134E4B2AC42F7D3E8
:10583000EAE70420E8E70420E6E70620E4E7FEE7DD
:1058400008B50E4A0E4BA3EB020C0E49002304E0F0
:1058500011F8010B02F8010B01336345F8D30A4A32
:105860000A48801A002303E0002102F8011B0133DB
:105870008342F9D307F09AFBFEE700BF0400002043
:10588000D802002050E50008D8020020901B00201C
:1058900008B50268034B9A4200D008BD00F0C2FF71
:1058A000FBE700BF002C014072B6FEE700B595B0E3
:1058B000282200210DEB020008F042FD0023059391
:1058C0000693079308930993019302930393049318
:1058D00009230A934FF480330B934FF400320C9258
:1058E00001220E9210920222119212934FF4501341
:1058F00013930AA800F0D2FFC8B90F230593022121
:105900000691002307934FF480620892099305A83B
:1059100001F0F6F968B9022301934FF400430393B1
:1059200001A801F0E7FA30B915B05DF804FBFFF704
:10593000BBFFFFF7B9FFFFF7B7FF08B500F060FF47
:10594000FFF7B4FF00F014F800F06CF800F0C6F8B0
:1059500000F036F900F0CAF900F00AFA00F022FA75
:1059600000F03AFA00F006FB00F018FB08BD00005A
:105970002DE9F04188B0002404940594069407941E
:10598000254B9A6942F010029A619A6902F010025E
:105990000092009A9A6942F020029A619A6902F094
:1059A00020020192019A9A6942F004029A619A696E
:1059B00002F004020292029A9A6942F008029A6185
:1059C0009B6903F008030393039BDFF850800122D7
:1059D0004FF40051404601F093FC114D2246102136
:1059E000284601F08DFC4FF40053049301270597DE
:1059F00006940226079604A9404601F073FB102383
:105A000004930597069407960DEB0301284601F0D1
:105A100069FB08B0BDE8F0810010024000100140B1
:105A20000008014000B585B0002301930293039361
:105A30001048114A02608360037303754FF46022BB
:105A4000C26143600123036100F0D6FD60B9012308
:105A5000019302930023039301A9064800F048FC38
:105A600028B905B05DF804FBFFF71EFFEFE7FFF76D
:105A70001BFFF6E7D80200200024014000B587B0E4
:105A8000002302930393049305930268114B9A42F7
:105A900002D007B05DF804FB03F56C439A6942F449
:105AA00000729A619A6902F400720092009A9A69EF
:105AB00042F004029A619B6903F004030193019B85
:105AC000022302930323039302A9034801F00AFB74
:105AD000DFE700BF002401400008014008B50C4882
:105AE0000C4B03600C23436000238360C3604FF4BE
:105AF000E02202614361037643768376C3760377BF
:105B0000437701F043FD00B908BDFFF7CDFEFBE789
:105B1000080300200064004010B586B00023029303
:105B20000393049305930268224B9A4201D006B076
:105B300010BD03F5D633DA6942F00072DA61DA6932
:105B400002F000720092009A9A6942F008029A618B
:105B50009B6903F008030193019B4FF48073029348
:105B6000154C02A9204601F0BDFA4FF400730293D0
:105B7000022303930323059302A9204601F0B2FAFE
:105B80000E4A536823F4C04343F0E06343F4804378
:105B9000536000221146142001F07AFC142001F019
:105BA00087FC00221146152001F072FC152001F03F
:105BB0007FFCBCE700640040000C01400000014095
:105BC00008B50B480B4B03600B4B4360002383600D
:105BD000C3604FF48042026143618361C361036229
:105BE00002F0E2FC00B908BDFFF75EFEFBE700BF74
:105BF0003003002000540040A086010010B586B09C
:105C0000002302930393049305930268154B9A4271
:105C100001D006B010BD144CA36943F00803A36182
:105C2000A36903F008030093009BC023029312238F
:105C300003930323059302A90C4801F053FAE36987
:105C400043F40013E361E36903F400130193019B40
:105C5000002211461F2001F01BFC1F2001F028FC30
:105C6000D7E700BF0054004000100240000C014084
:105C70000268094B9A4200D0704782B003F50333A3
:105C8000DA6942F00202DA61DB6903F00203019390
:105C9000019B02B0704700BF0004004000B587B010
:105CA0000023029303930493059302680D4B9A42D9
:105CB00002D007B05DF804FB03F503339A6942F0A4
:105CC00004029A619B6903F004030193019B402342
:105CD000029302230393059302A9034801F002FAF9
:105CE000E7E700BF000400400008014000B58BB0AA
:105CF000002308930993019302930393049305935C
:105D0000069307931848194A0260436083604FF472
:105D10007A72C2600361836103F0BEFFD0B90023D1
:105D20000893099308A9104804F03EF9A8B9602324
:105D300001934FF4FA73029300220392059201A992
:105D4000094804F003F858B90748FFF7A7FF0BB05C
:105D50005DF804FBFFF7A8FDE1E7FFF7A5FDE6E727
:105D6000FFF7A2FDF0E700BF84030020000400401D
:105D700008B50A480A4B03604FF4165343600023EA
:105D80008360C36003610C2242618361C36104F0DC
:105D9000EBF900B908BDFFF787FDFBE75C040020C5
:105DA0000038014008B50A480A4B03604FF4E1335C
:105DB000436000238360C36003610C2242618361FE
:105DC000C36104F0D1F900B908BDFFF76DFDFBE731
:105DD000140400200044004008B50A480A4B036040
:105DE0004FF4E133436000238360C36003610C22FE
:105DF00042618361C36104F0B7F900B908BDFFF7E0
:105E000053FDFBE7CC0300200048004030B58BB0C9
:105E10000023069307930893099303684F4A93421C
:105E200007D04F4A934236D04E4A934263D00BB0CC
:105E300030BD4D4B9A6942F480429A619A6902F4EE
:105E400080420092009A9A6942F004029A619B692A
:105E500003F004030193019B4FF4007306930223A4
:105E6000079303230993414D06A9284601F03AF907
:105E70004FF48063069300240794089406A92846EB
:105E800001F030F922462146252001F001FB2520B2
:105E900001F00EFBCBE7344BDA6942F40032DA61F1
:105EA000DA6902F400320292029A9A6942F004021C
:105EB0009A619B6903F004030393039B04230693F5
:105EC0000223079303230993284D06A9284601F0CE
:105ED00009F90823069300240794089406A9284684
:105EE00001F000F922462146262001F0D1FA2620B1
:105EF00001F0DEFA9BE71C4BDA6942F48022DA619A
:105F0000DA6902F480220492049A9A6942F0080243
:105F10009A619B6903F008030593059B4FF4806326
:105F200006930223079303230993114D06A92846DC
:105F300001F0D8F84FF40063069300240794089406
:105F400006A9284601F0CEF822462146272001F076
:105F50009FFA272001F0ACFA69E700BF0038014042
:105F6000004400400048004000100240000801408A
:105F7000000C014008B50748074B03600623436047
:105F800040F6FF73836004F037FB00B908BDFFF7EC
:105F90008BFCFBE7A40400200030004008B5054856
:105FA000054B036004F05CFB00B908BDFFF77CFC07
:105FB000FBE700BFB0040020003002400268094B3C
:105FC0009A4200D0704782B0A3F500535A6942F05C
:105FD00040025A615B6903F040030193019B02B0E8
:105FE000704700BF00300240FEE7FEE7FEE7FEE735
:105FF000FEE7704708B5024801F06AFD08BD00BF22
:106000000803002008B5024801F062FD08BD00BF8A
:106010000803002008B5024803F020FD08BD00BFBA
:10602000B804002008B5024803F092FB08BD00BF89
:106030003003002008B5024804F06EF908BD00BF27
:106040005C04002008B5024804F066F908BD00BFF2
:106050001404002008B5024804F05EF908BD00BF32
:10606000CC03002082B00E4B9A6942F001029A6183
:106070009A6902F001020092009ADA6942F08052B5
:10608000DA61DB6903F080530193019B054A536891
:1060900023F0E06343F00073536002B0704700BF29
:1060A000001002400000014030B589B004461E4B8C
:1060B0009A6942F400629A619B6903F40063019358
:1060C000019B02A903A800F0F7FE00F0E5FE174AC5
:1060D000A2FB00239B0C013B1548164A026040F2CC
:1060E000E732C2604360002303618360836103F091
:1060F000A7FD054610B1284609B030BD0C4803F095
:1061000075FC05460028F6D1192001F0D1F90F2CB5
:1061100001D90125EFE700222146192001F0B8F945
:10612000054B1C60E7E700BF0010024083DE1B4305
:10613000B8040020002C01400C000020034B1A681A
:10614000D36823F00103D360704700BFB804002078
:10615000034B1A68D36843F00103D360704700BF54
:10616000B8040020F0B583B005460C460023019327
:1061700000F064FB2B689A6812F4807F23D10746F5
:106180005A6812F4807F03D1DB6A13F4700F29D0B0
:10619000504B1E68022000F039FFB6FBF0F62B686A
:1061A00019694D4A114236D1D96802F15C42114257
:1061B00031D11969494A114240D1DA68484B1A4233
:1061C0003ED0292341E0AB6A43F02003AB620023B9
:1061D00085F82430012003B0F0BD2B681B6813F054
:1061E000020F0FD02B681B6813F0020F4FD1B4F1D0
:1061F000FF3FF7D0002CF0D000F020FBC31BA342E0
:10620000F0D9EAE7AB6A43F00403AB62002385F8F8
:1062100024300320DFE71969304A114204D1D968DC
:1062200002F16E4211420DD019692E4A0A405AB944
:10623000DA682C4B13405BB1FC2306E0292304E011
:10624000142302E0542300E0FC2303FB06F607E0DE
:106250005423FAE7019BB34210D3019B013301930E
:10626000019BB34213D2B4F1FF3FF6D0002CF1D022
:1062700000F0E4FAC01BA042EFD9EBE7AB6A43F0B1
:106280000403AB62002385F824300320A3E72B68C6
:106290006FF012021A60AB6A43F40073AB622B68B2
:1062A0009B6803F46023B3F5602F01D0002092E7D0
:1062B000287B60B9AB6A23F48073AB62AB6A13F4DA
:1062C000805F88D1AB6A43F00103AB6283E70020B3
:1062D00081E700BF0400002024499224922449123F
:1062E00092244900499224000368D86C704700004A
:1062F00030B482B00022019290F82420012A00F0EC
:106300008F800346012280F824204A68062A2DD86F
:106310000468606B02EB8202053A4FF01F0C0CFA26
:1063200002FC20EA0C000D6805FA02F202436263E7
:106330000A68092A38D91C68E06802EB42021E3A52
:106340004FF0070C0CFA02FC20EA0C008D6805FAED
:1063500002F20243E2600A68103A012A34D90020AE
:10636000002283F8242002B030BC70470C2A0DD8DC
:106370000568286B02EB8202233A1F24944020EA2E
:1063800004000C68944020432863D1E70568E86A5C
:1063900002EB8202413A1F24944020EA04000C6878
:1063A00094402043E862C3E71C68206902EB420284
:1063B0004FF0070C0CFA02FC20EA0C008D6805FA7D
:1063C00002F202432261C6E71A681648824205D0EB
:1063D0009A6A42F020029A620120C1E7906810F4A4
:1063E000000F1BD1906840F4000090600A68102AEA
:1063F00001D00020B4E70C4A12680C49A1FB02123C
:10640000920C02EB82025200019202E0019A013AE0
:106410000192019A002AF9D10020A1E700209FE70C
:106420000220A0E7002401400400002083DE1B437B
:1064300030B583B00023019303689A6812F0010F0E
:1064400033D104469A6842F001029A60184B1B68E7
:10645000184AA2FB03239B0C019302E0019B013B22
:106460000193019B002BF9D100F0E8F90546236860
:106470009B6813F0010F16D100F0E0F9431B022BCB
:10648000F5D923689B6813F0010FF0D1A36A43F09C
:106490001003A362E36A43F00103E362002384F87C
:1064A0002430012002E0002000E0002003B030BDD5
:1064B0000400002083DE1B4390F82430012B68D0B9
:1064C00010B50446012380F82430FFF7B1FF0028FF
:1064D0005BD1A36A23F4407323F0010343F4807378
:1064E000A36223682C4A934227D0A26A22F4801226
:1064F000A2625A6812F4806F05D0A26A22F4405258
:1065000042F48052A262A26A12F4805F2BD0E26A47
:1065100022F00602E262002284F824206FF00202D8
:106520001A6023689A6802F46022B2F5602F1DD0C9
:106530009A6842F480129A602AE0A2F5806252685A
:1065400012F4702FD1D0A26A42F48012A262134AD0
:10655000526812F4806FD6D0A26A22F4405242F4FC
:106560008052A262CFE70022E262D4E70A4A934255
:1065700004D09A6842F4A0029A6009E0A2F5806211
:10658000526812F4702FD3D1F3E7002384F824303B
:1065900010BD0220704700BF0028014000240140C8
:1065A00038B503689A6812F0010F01D1002038BD98
:1065B00004469A6822F001029A6000F03FF905460D
:1065C00023689B6813F0010F13D000F037F9431BC9
:1065D000022BF5D923689B6813F0010FF0D0A36A52
:1065E00043F01003A362E36A43F00103E362012076
:1065F000DDE70020DBE7000000287BD070B5044613
:10660000836A002B4DD02046FFF7CAFFA36A13F020
:10661000100369D1002867D1A26A22F4885222F0BF
:10662000020242F00202A2626268E1690A43217B2F
:1066300042EA4102A568B5F5807F02D0012D36D02F
:106640001D46267D012E35D02668716821F46941EA
:10665000294371602568AE68274931401143A9601C
:10666000A168B1F5807F01D0012902D12369013BE6
:106670001B052568E96A21F470010B43EB6223686E
:1066800099681E4B0B409A4225D0A36A23F012034F
:1066900043F01003A362E36A43F00103E3620120C5
:1066A00027E0C36280F82430FFF7E8F9ABE74FF446
:1066B0008075C6E731B9A169013945EA413141F434
:1066C0000065C1E7A16A41F02001A162E16A41F0E1
:1066D0000101E162B8E70023E362A36A23F0030348
:1066E00043F00103A36204E0A36A43F01003A36232
:1066F000012070BD01207047FDF7E1FFFE0E1FFF76
:1067000070B582B00023019390F82430012B72D031
:106710000446012380F82430FFF742FF2046FFF7AC
:1067200087FE054628B1002384F82430284602B0AD
:1067300070BDA36A23F4885323F0020343F00203DD
:10674000A3622E4B1E68022000F060FCB6FBF0F640
:106750007600019602E0019B013B0193019B002B17
:10676000F9D12268936843F00803936000F066F85B
:10677000064623689A6812F0080F14D000F05EF8FD
:10678000801B0A28F5D923689B6813F0080FF0D006
:10679000A36A23F0120343F01003A362002384F8DA
:1067A00024300125C2E79A6842F004029A6000F0A2
:1067B00045F8064623689B6813F0040F14D000F0D8
:1067C0003DF8801B0A28F5D923689B6813F0040F55
:1067D000F0D0A36A23F0120343F01003A362002356
:1067E00084F824300125A1E7A36A23F0030343F0D2
:1067F0000103A36297E7022598E700BF0400002089
:1068000008B5074A136843F010031360032000F033
:106810002DFE0F20FFF748FCFFF724FC002008BDE9
:1068200000200240034A1168034B1B780B4413609D
:10683000704700BF0005002008000020014B1868C9
:10684000704700BF0005002038B50446FFF7F6FF8B
:106850000546B4F1FF3F02D0044B1B781C44FFF700
:10686000EDFF401BA042FAD338BD00BF0800002056
:1068700082B0084B1B68084AA2FB03235B0A00FB9B
:1068800003F3019300BF019B5A1E0192002BF9D123
:1068900002B0704704000020D34D6210002800F0C1
:1068A000F18170B582B00446036813F0010F2CD05B
:1068B000994B5B6803F00C03042B1DD0964B5B686F
:1068C00003F00C03082B12D06368B3F5803F41D06E
:1068D000002B55D103F1804303F504331A6822F4E9
:1068E00080321A601A6822F480221A6037E08A4BDC
:1068F0005B6813F4803FE7D0874B1B6813F4003FBD
:1069000003D06368002B00F0BF81236813F0020FEF
:1069100075D0814B5B6813F00C0F5FD07E4B5B68CA
:1069200003F00C03082B54D02369002B00F08A805D
:106930007A4B01221A60FFF781FF0546764B1B68F0
:1069400013F0020F75D1FFF779FF401B0228F5D92C
:1069500003209EE1704A136843F480331360636838
:1069600043B3FFF76BFF05466B4B1B6813F4003F07
:10697000CBD1FFF763FF401B6428F5D9032088E1E2
:10698000B3F5A02F09D0644B1A6822F480321A6044
:106990001A6822F480221A60E1E703F18043A3F52C
:1069A0003C331A6842F480221A601A6842F480323A
:1069B0001A60D4E7FFF742FF0546574B1B6813F4F4
:1069C000003FA2D0FFF73AFF401B6428F5D903200F
:1069D0005FE1514B5B6813F4803FA5D14E4B1B68C0
:1069E00013F0020F03D02369012B40F04F814A4A74
:1069F000136823F0F803616943EAC1031360236855
:106A000013F0080F33D0A369002B5CD0434B012255
:106A1000C3F88024FFF712FF05463F4B5B6A13F073
:106A2000020F21D1FFF70AFF401B0228F5D90320EE
:106A30002FE1394A136823F0F803616943EAC1037F
:106A40001360DCE7354B00221A60FFF7F7FE0546BE
:106A5000314B1B6813F0020FD1D0FFF7EFFE401B44
:106A60000228F5D9032014E10120FFF701FF236874
:106A700013F0040F00F09680274BDB6913F0805F62
:106A800034D1254BDA6942F08052DA61DB6903F0D8
:106A900080530193019B0125214B1B6813F4807FD8
:106AA00026D0E368012B3DD0002B53D103F1804366
:106AB00003F504331A6A22F001021A621A6A22F0FC
:106AC00004021A6233E0154B0022C3F88024FFF75A
:106AD000B5FE0546104B5B6A13F0020FC7D0FFF7F7
:106AE000ADFE401B0228F5D90320D2E00025D3E7F4
:106AF0000B4A136843F480731360FFF79FFE06464A
:106B0000074B1B6813F4807FCBD1FFF797FE801BE8
:106B10006428F5D90320BCE0001002400000424286
:106B2000007000405F4A136A43F001031362E36898
:106B300033B3FFF783FE06465A4B1B6A13F0020F6E
:106B40002FD1FFF77BFE801B41F288339842F3D9A7
:106B500003209EE0052B09D0524B1A6A22F0010255
:106B60001A621A6A22F004021A62E0E74D4B1A6AAE
:106B700042F004021A621A6A42F001021A62D6E76F
:106B8000FFF75CFE0646474B1B6A13F0020F08D066
:106B9000FFF754FE801B41F288339842F3D903205B
:106BA00077E0E5B9E369002B72D03E4A526802F003
:106BB0000C02082A56D0022B17D03B4B00221A6633
:106BC000FFF73CFE0446374B1B6813F0007F47D0AD
:106BD000FFF734FE001B0228F5D9032059E0314AA3
:106BE000D36923F08053D361DCE72F4B00221A6670
:106BF000FFF724FE05462B4B1B6813F0007F06D0E1
:106C0000FFF71CFE401B0228F5D9032041E0236A50
:106C1000B3F5803F1AD023494B6823F47413226ADA
:106C2000606A024313434B601F4B01221A66FFF751
:106C300005FE04461B4B1B6813F0007F0ED1FFF7C7
:106C4000FDFD001B0228F5D9032022E0154A5368F8
:106C500023F40033A1680B435360DCE7002018E005
:106C6000002016E0012B16D00E4B5B6803F4803138
:106C7000226A914211D103F47013626A93420ED1D9
:106C8000002006E001207047012002E0012000E022
:106C9000002002B070BD0120FBE70120F9E70120D0
:106CA000F7E700BF00100240000042420F4B5B6854
:106CB00003F00C02082A01D00D487047C3F3834249
:106CC0000C49885C13F4803F0BD0084B5B68C3F31E
:106CD0004043094AD35C064A02FB00F0B0FBF3F0E4
:106CE0007047064B03FB00F0704700BF00100240E6
:106CF00000127A007CE4000878E4000800093D00F6
:106D0000002800F0A08070B50D460446524B1B6869
:106D100003F007038B420BD24F4A136823F007039B
:106D20000B431360136803F007038B4240F08D8020
:106D3000236813F0020F17D013F0040F04D0474A52
:106D4000536843F4E0635360236813F0080F04D0E2
:106D5000424A536843F460535360404A536823F0F7
:106D6000F003A1680B435360236813F0010F31D087
:106D70006368012B20D0022B25D0384A126812F00C
:106D8000020F64D035494A6822F0030213434B6076
:106D9000FFF754FD0646314B5B6803F00C03626855
:106DA000B3EB820F16D0FFF749FD801B41F2883309
:106DB0009842F0D9032045E0284A126812F4003FB7
:106DC000E0D101203EE0254A126812F0007FD9D1BF
:106DD000012037E0204B1B6803F00703AB420AD9C0
:106DE0001D4A136823F007032B431360136803F055
:106DF0000703AB422DD1236813F0040F06D0174AC6
:106E0000536823F4E063E1680B435360236813F095
:106E1000080F07D0114A536823F46053216943EAED
:106E2000C1035360FFF742FF0C4B5B68C3F30313CE
:106E30000B4AD35CD8400B4B18600B4B1868FFF71C
:106E400033F9002070BD012070470120FAE70120CE
:106E5000F8E70120F6E700BF0020024000100240E2
:106E600068E40008040000200C000020014B1868B2
:106E7000704700BF0400002008B5FFF7F7FF044B80
:106E80005B68C3F30223034AD35CD84008BD00BF4C
:106E90000010024060E4000808B5FFF7E7FF044B6C
:106EA0005B68C3F3C223034AD35CD84008BD00BF6C
:106EB0000010024060E400080F2303600B4B5A6887
:106EC00002F0030242605A6802F0F00282605A68DF
:106ED00002F4E062C2605B68DB0803F4E063036114
:106EE000034B1B6803F007030B6070470010024060
:106EF0000020024070B582B00446036813F0010F11
:106F000036D03F4BDB6913F0805F49D13C4BDA69E7
:106F100042F08052DA61DB6903F080530193019BF8
:106F20000125384B1B6813F4807F3BD0344B1B6A20
:106F300013F4407313D0626802F440729A420ED088
:106F40002F4A136A23F440702F490126C1F8406488
:106F50000026C1F84064106213F0010F36D1284AB0
:106F6000136A23F4407361680B431362002D3ED112
:106F7000236813F0020F06D0214A536823F44043DC
:106F8000A1680B435360236813F0100F34D01C4AE0
:106F9000536823F48003E1680B43536000202CE026
:106FA0000025BEE7174A136843F480731360FFF7A8
:106FB00045FC0646134B1B6813F4807FB6D1FFF7E0
:106FC0003DFC801B6428F5D9032016E0FFF736FC52
:106FD00006460B4B1B6A13F0020FC0D1FFF72EFCC5
:106FE000801B41F288339842F3D9032005E0D3692E
:106FF00023F08053D361BBE7002002B070BD00BF17
:1070000000100240007000400000424208B5022813
:107010004ED0102803D0012828D0002052E02B4B5E
:107020005A68186810F080704CD0C2F38343284926
:10703000C85C12F4803F15D0244B5B68C3F3404317
:10704000244AD25C244BB3FBF2F303FB00F01F4B4A
:107050005B6813F4800F35D14000204BA3FB003058
:1070600040082FE01E4B03FB00F0F0E7174B1B6AB4
:1070700040F202321A40B2F5817F24D003F440730B
:10708000B3F5007F04D0B3F5407F09D0002019E0AC
:107090000E4A526A12F0020FF5D049F6404011E054
:1070A0000A4B186810F400300CD04FF2244009E06D
:1070B000FFF7F2FE054B5B68C3F3813301335B00DE
:1070C000B0FBF3F008BD4FF40040FBE700100240B6
:1070D00090E400088CE4000800127A00ABAAAAAA87
:1070E00000093D0070B582B00024A446A1E07E4DA9
:1070F000AB4214D00CD8A5F58015AB420FD005F5E6
:107100007025AB420BD0A5F58015AB4210D106E03F
:10711000764DAB4203D005F58035AB4208D18B6884
:10712000002B50D0012B49D04261082400E0CC68EC
:10713000BEF1FF0F49D806464FEA8C0233680F258F
:10714000954023EA050304FA02F2134333604B68C7
:1071500013F0805F6BD0664B9A6942F001029A612E
:107160009B6903F001030193019B4FEA9C02951C6C
:10717000604B53F825600CF00305AD000F23AB40C6
:1071800026EA03065C4B984226D003F580639842BA
:1071900000F08C8003F58063984200F0898003F54D
:1071A0008063984216D0042317E0CC680434BFE70C
:1071B000CC680834BCE7CC680C34B9E70261082419
:1071C000B6E70024B4E70424B2E7061DACF10802D8
:1071D0009200B3E7032300E00023AB4033430232C5
:1071E000444D45F822304B6813F4801F62D0434A67
:1071F000936843EA0E0393604B6813F4001F5FD05B
:107200003E4AD36843EA0E03D3604B6813F4003F51
:107210005CD03A4A536843EA0E0353604B6813F458
:10722000803F59D0354A136843EA0E0313600CF1CE
:10723000010C0B6833FA0CF254D0012202FA0CF262
:1072400003EA020E32EA0303F1D14B68122B3FF638
:107250004EAF122B3FF66CAF01A555F823F000BFDF
:107260001F7100082F710008B1710008C371000878
:107270003171000831710008317100083171000866
:107280003171000831710008317100083171000856
:107290003171000831710008317100083171000846
:1072A00031710008AB710008B7710008012394E741
:1072B000022392E7114A936823EA0E0393609BE747
:1072C0000E4AD36823EA0E03D3609EE70B4A536845
:1072D00023EA0E035360A1E7084A136823EA0E036A
:1072E0001360A4E702B070BD00002210000031104E
:1072F000001002400000014000080140000401406D
:107300000AB101617047090401617047C36801EA6D
:10731000030221EA030141EA024101617047034689
:1073200090F82120D2B2022A06D0042282630022E1
:1073300080F820200120704701680A6822F00E02C0
:107340000A6001680A6822F001020A60026CC06BE0
:10735000012101FA02F2426083F82110002083F833
:107360002000704708B590F82130DBB2022B03D023
:1073700004238363012008BD0268136823F00E0311
:1073800013600268136823F0010313600368194A4D
:10739000934214D0143293421FD0143293421ED021
:1073A000143293421ED0143293421ED014329342B0
:1073B00002D04FF0807203E04FF4801200E001220F
:1073C0000D4B5A60012380F82130002380F82030D3
:1073D000436B6BB198470020CDE71022F0E74FF4E4
:1073E0008072EDE74FF48052EAE74FF48032E7E72E
:1073F0000020C0E7080002400000024090F8210091
:1074000070470000002808DB0901C9B200F16040A4
:1074100000F5614080F80013704700F00F0009018B
:10742000C9B2014B1954704714ED00E000B500F0EB
:107430000700C0F1070CBCF1040F28BF4FF0040C8B
:10744000031D062B0FD9C31E4FF0FF3E0EFA0CF0A2
:1074500021EA000199400EFA03FE22EA0E0241EAF7
:1074600002005DF804FB0023EEE70000074AD36842
:1074700023F4E0631B041B0C000200F4E0600343F0
:1074800043F0BF6343F40033D360704700ED00E086
:1074900010B50446054BD868C0F30220FFF7C6FFBD
:1074A00001462046FFF7AEFF10BD00BF00ED00E033
:1074B000002807DB00F01F02400901239340024A25
:1074C00042F82030704700BF00E100E020BF00BF5D
:1074D0007047000090FAA0F0B0FA80F0024B03442D
:1074E0009B0001221A6070472080831090FAA0F060
:1074F000B0FA80F0024B03449B0000221A607047F0
:1075000020808310064A136923F0040313610129C4
:1075100003D040BF20BF20BF704730BF704700BFBF
:1075200000ED00E008B50F4A136823F00203136072
:10753000136823F00103034313600B4A136943F0FC
:1075400004031361012906D130BF074A136923F0F0
:107550000403136108BD40BFFFF7B8FFFFF7B6FF94
:10756000F3E700BF0070004000ED00E0054A13683B
:1075700043F002031360044A136943F004031361E8
:1075800030BF70470070004000ED00E0002800F0C0
:10759000A18038B5044690F82030D3B12268136832
:1075A00043F001031360FFF749F9054623685A6861
:1075B00012F0010F10D1FFF741F9401B0A28F5D94D
:1075C000636A43F400336362052384F820300120AA
:1075D00038BDFEF7A1FAE1E71A6822F002021A604C
:1075E000FFF72CF9054623685A6812F0020F0DD0F8
:1075F000FFF724F9401B0A28F5D9636A43F40033E6
:107600006362052384F820300120E1E7227E012A0D
:107610003DD01A6822F080021A60637E012B3BD0B5
:107620002268136823F040031360A37E012B39D036
:107630002268136823F020031360E37E012B37D008
:107640002268136843F010031360237F012B35D0A9
:107650002268136823F008031360637F012B33D083
:107660002268136823F004031360A368E2681343DD
:1076700022691343626913436268013A2168134324
:10768000CB6100206062012384F82030A0E71A68F3
:1076900042F080021A60C0E72268136843F040039A
:1076A0001360C2E72268136843F020031360C4E745
:1076B0002268136823F010031360C6E7226813687A
:1076C00043F008031360C8E72268136843F004031B
:1076D0001360CAE701207047026890F82030013B30
:1076E000DBB2012B05D9436A43F4802343620120B6
:1076F000704710B5D2F8003243F00103C2F80032EF
:107700004B6903F01F03012000FA03F3D2F81C02B7
:107710006FEA030C20EA0300C2F81C02C869C0B972
:10772000D2F80C020CEA0000C2F80C028C884869FE
:10773000D1F80CE044EA0E44483042F830400C885E
:107740004869D1F808E044EA0E44483002EBC00032
:107750004460C86901281AD0886988BBD2F804023D
:107760000CEA0000C2F80402086978BBD2F81402DF
:107770000CEA0000C2F81402096A01292CD0D2F8E0
:10778000003223F00103C2F80032002010BDD2F80D
:107790000C021843C2F80C028C884869D1F800E04A
:1077A00044EA0E44483042F830408C894869D1F8A8
:1077B00008E044EA0E44483002EBC0004460CBE7E6
:1077C000D2F804021843C2F80402CDE7D2F814023A
:1077D0001843C2F81402CFE7D2F81C120B43C2F8C8
:1077E0001C32CCE770B5044690F82050EDB2012D64
:1077F00006D0436A43F4002343620125284670BD46
:10780000022380F820300268136823F0010313601C
:10781000FFF714F8064623685B6813F0010F0CD0DD
:10782000FFF70CF8831B0A2BF5D9636A43F4003386
:107830006362052384F82030E0E700256562DDE718
:1078400030B590F820C00468A4680CF1FF3C5FFAE2
:107850008CFCBCF1010F62D814F0E05F59D0C4F386
:10786000016C012404FA0CF41C608B68002B3DD1E0
:107870000D68CB68046843EA45550CF118031B01F9
:10788000E55003680C690CF1180E03EB0E135C60F5
:107890000B7D012B35D0D17993791B0443EA016329
:1078A000517943EA012314790168234301EB0C1158
:1078B000C1F88C31D17893781B0443EA0163517885
:1078C00043EA0123117802680B4302EB0C12C2F861
:1078D000883102680CF1180C4FEA0C1C52F80C307D
:1078E00043F0010342F80C3000201DE04C6843EAED
:1078F000C403CC6823430CF11804240105682B5100
:10790000BFE7036803EB0E13596841F480715960B7
:10791000C1E7436A43F400134362012004E0436A71
:1079200043F480234362012030BD90F820C00CF165
:10793000FF3C5FFA8CFCBCF1010F00F2A58030B473
:1079400051B90468E46814F0030F10D1436A43F49A
:107950000013436201207EE00468246914F0030FE1
:1079600005D1436A43F400134362012073E00568C4
:1079700001F11B0424012C5904F004049460002C30
:107980006BD1056801F11B0424012C59640D1460AE
:10799000046801F11B0C4FEA0C1C54F80C4004F075
:1079A0000204D4600468A444DCF8045015F0080F05
:1079B0005BD008241461046801F11B0C04EB0C1467
:1079C0006468C4F307249461046804EB0C146468CD
:1079D000240C5461026802EB0112D2F8B8211A702B
:1079E000026802EB0112D2F8B821C2F307225A70E2
:1079F000026802EB0112D2F8B821C2F307429A7072
:107A0000026802EB0112D2F8B821120EDA70026895
:107A100002EB0112D2F8BC211A71026802EB0112CA
:107A2000D2F8BC21C2F307225A71026802EB01129C
:107A3000D2F8BC21C2F307429A71026802EB01122C
:107A4000D2F8BC21120EDA71C1B90268D36843F0D2
:107A50002003D360002030BC7047056801F11B048F
:107A600024012C59E408546092E701F11B0504EB52
:107A70000514646804F00F0414619CE7026813693C
:107A800043F020031361E5E7436A43F48023436234
:107A90000120704790F82030013BDBB2012B05D963
:107AA000436A43F4802343620120704702685369AC
:107AB0000B43536100207047704770477047704711
:107AC00070477047704770477047704770477047FE
:107AD0002DE9F84F054603685C69D3F804809F6878
:107AE000D3F80CA0D3F81090D3F818B014F0010616
:107AF0003BD017F0010616D001229A6017F0020F52
:107B000008D117F0040F0CD117F0080606D04FF477
:107B1000805608E0FFF7D0FF002604E0FFF7CFFF14
:107B200001E04FF4006617F4807F0DD02B684FF40E
:107B300080729A6017F4007F40F0968017F4806F8F
:107B400000F0968046F4005617F4803F0DD02B6865
:107B50004FF480329A6017F4003F40F0938017F49E
:107B6000802F00F0938046F4004614F0080F07D0F1
:107B70001AF0100F04D046F400762B681022DA6059
:107B800014F0040F03D01AF0080F40F0898014F0AD
:107B9000020F05D02B68DB6813F0030F40F08780DD
:107BA00014F0400F07D019F0100F04D046F480668F
:107BB0002B6810221A6114F0200F02D019F0080F60
:107BC00079D114F0100F04D02B681B6913F0030F48
:107BD00078D114F4003F02D018F0100F76D114F4CD
:107BE000803F02D018F0080F77D114F4004F37D03F
:107BF00018F0040F31D014F4807F04D01BF0010F73
:107C000001D046F0010614F4007F04D01BF0020FEF
:107C100001D046F0020614F4806F04D01BF0040F6C
:107C200001D046F0040614F4006F16D01BF0700B60
:107C300013D0BBF1400F66D056D8BBF1200F5CD0FB
:107C4000BBF1300F5CD0BBF1100F01D146F008063C
:107C50002A68936923F0700393612B6804225A60A9
:107C6000002E56D1BDE8F88F2846FFF726FF6BE7B8
:107C700017F4006F02D046F4804665E72846FFF708
:107C80001FFF61E72846FFF719FF6EE717F4002F83
:107C900002D046F4803668E72846FFF712FF64E713
:107CA0002B680822DA602846FFF70CFF6FE72846AA
:107CB00003F05AF874E72B6808221A612846FFF788
:107CC00003FF7EE72846FFF7FEFE82E72B681022BF
:107CD0005A602846FFF7F9FE81E72B6808225A60B0
:107CE0002846FFF7F3FE80E7BBF1500F0ED0BBF143
:107CF000600FADD146F48076AAE746F01006A7E7FC
:107D000046F02006A4E746F04006A1E746F08006CC
:107D10009EE76B6A33436B622846FFF7D8FEA1E704
:107D200003685A6912F0800F01D000221A6170476F
:107D300090F83E30DBB2402B10D00369B3F5804F92
:107D40001BD0036D002B39D1436CC3F3C8130268F9
:107D500003F0060343F0F00313617047036D2BB982
:107D6000436C026803F0FE0313617047436C0268C2
:107D700043F00103DBB21361704790F83D30DBB292
:107D8000212B0FD0436C026843F00103DBB2136177
:107D9000436B6BB19B6A5BB10268536843F4006349
:107DA00053607047436C026803F0FE031361EFE712
:107DB000836B33B19B6A002BEED102E0036D012B84
:107DC00000D07047436CC3F3C813026803F0060386
:107DD00043F0F1031361F4E7436C0268DBB2136113
:107DE000436B3BB19B6A2BB10268536843F4006359
:107DF00053607047836B002BFBD09B6A002BF3D141
:107E0000F7E7000010B48DB090F83E30DAB2C16AE6
:107E1000046B90F83D30DBB2222B0AD000230B9389
:107E200003685A690B929B690B930B9B0DB010BCB6
:107E30007047036D0BB9402A17D0036D1BB9036956
:107E4000B3F5404F19D0438D9BB2002B25D103933E
:107E500003685A6903929A690392039A1A6842F472
:107E600000721A6000230365E0E7019303685A6912
:107E700001929B690193019BD8E700230293036859
:107E80005A6902929A690292029A1A6842F48072BE
:107E90001A60036D01330365C8E7438D9BB2012B64
:107EA00026D0438D9BB2022B7CD00268136843F42A
:107EB0008063136003685A6812F4006F0FD02029A2
:107EC00000F2B9800829C0F0B28008395C4ACA4083
:107ED00012F0010F03D05A6842F480525A60002316
:107EE0000A9303685A690A929B690A930A9BB9E745
:107EF00011F5803F11D0082934D0202932D0122C1E
:107F00002ED0042940D002293ED010293CD002684E
:107F1000136823F4806313603BE00268136823F462
:107F20008063136003685A6812F4006F0CD01A68FB
:107F300022F480621A600023049303685A69049251
:107F40009B690493049B8DE7002205925A69059270
:107F50009A690592059A1A6842F400721A6081E7DC
:107F60000129D0D00268136823F4806313600023D2
:107F7000079303685A6907929A690792079A1A68E1
:107F800042F400721A606DE70268136843F480637C
:107F900013600023069303685A6906929B6906934F
:107FA000069B5FE7102912D8264BCB4013F0010F38
:107FB0000DD00268136843F48063136000230993B3
:107FC00003685A6909929B690993099B10E002684A
:107FD000136843F4006313600023089303685A692D
:107FE00008929A690892089A1A6822F480621A60C4
:107FF00003685A6812F4006F3FF434AF202911D897
:1080000008290BD308390E4ACA4012F0010F3FF479
:1080100029AF5A6842F480525A6023E701297FF45D
:1080200021AFF6E711F5803F7FF41CAFF1E701299E
:108030007FF455AF4FE711F5803F7FF450AF4AE72B
:108040000101000114000100438D9BB25BB1426A43
:10805000036812781A61436A01334362438D9BB20D
:10806000013B9BB243857047438D9BB25BB1036874
:108070001A69436A1A70436A01334362438D9BB2A3
:10808000013B9BB24385704782B0002301930E4BA6
:108090001B68DB080D4AA2FB03231B0A03EB8303C7
:1080A0000193019B013B0193019B33B103681B6862
:1080B00013F4007FF5D1002004E0036C43F02003AB
:1080C0000364012002B070470400002089B5F81451
:1080D00003685A6912F4806F01D1002070476FF471
:1080E00080625A6100230363202280F83D2080F8DB
:1080F0003E30026C42F00402026480F83C30012001
:108100007047C36AB3F52A0F04D0C36AB3F12A4F8C
:1081100003D070470123C36270470823C362F8E7A6
:108120002DE9F04106460C46174698463BE0FEF71F
:1081300085FB069BC01A404502D8B8F1000F32D12A
:10814000012D18D033689B6924EA03039BB2B3FA6C
:1081500083F35B099F4226D100233363202286F8F4
:108160003D2086F83E30326C42F02002326486F8C0
:108170003C30012027E033685B6924EA03039BB2AB
:10818000B3FA83F35B09E5E733685B6924EA030C20
:108190001FFA8CFCBCFA8CFC4FEA5C1C674511D1C1
:1081A000B8F1FF3FC3D1C4F30745012DECD03368CC
:1081B0009B6924EA030C1FFA8CFCBCFA8CFC4FEA86
:1081C0005C1CEBE70020BDE8F0812DE9F843054693
:1081D0000E469046994653E01A6842F400721A60BF
:1081E0002B686FF480625A6100232B63202285F88C
:1081F0003D2085F83E302A6C42F004022A6485F85E
:108200003C3001204AE0FEF719FBA0EB0900404595
:1082100002D8B8F1000F33D1012F17D02B689B691A
:1082200026EA03039BB2003B18BF012343B300239C
:108230002B63202285F83D2085F83E302A6C42F0E1
:1082400020022A6485F83C30012027E02B685B6916
:1082500026EA03039BB2003B18BF0123E6E72B6825
:108260009C6926EA0404A4B2003C18BF0124A4B10E
:108270002B685A6912F4806FAED1B8F1FF3FC2D1BA
:10828000C6F30747012FEAD12B685C6926EA04048C
:10829000A4B2003C18BF0124E9E70020BDE8F88340
:1082A000F0B583B004460D4616461F46C36A082B38
:1082B0000DD0012B0BD013F5803F08D0036B122B90
:1082C0000AD10268136843F48073136004E02268E3
:1082D000136843F4807313600097334600224FF015
:1082E00001112046FFF71CFF80B92369B3F5804FC9
:1082F00016D1236805F0FE051D613B463246134941
:108300002046FFF762FFF8B903B0F0BD23681B6891
:1083100013F4807F02D04FF4007323640320F3E74B
:10832000EB11226803F0060343F0F00313613B46B0
:10833000324607492046FFF748FF18B92368EDB2D7
:108340001D61DAE70120DFE70120DDE7020001001F
:10835000080001002DE9F04184B004460D461646A0
:108360001F46C26A01680B6843F480630B60082AE9
:108370000DD0012A0BD012F5803F08D0036B112BD2
:108380000AD10268136843F48073136004E0226822
:10839000136843F4807313600097334600224FF054
:1083A00001112046FFF7BCFE98B92369B3F5804F51
:1083B00019D1236845F00105EDB21D613B463246F7
:1083C0002A492046FFF701FF00284CD104B0BDE840
:1083D000F08123681B6813F4807F02D04FF4007390
:1083E00023640320F2E74FEAE51808F00608236843
:1083F00048F0F0021A613B4632461D492046FFF71D
:10840000E4FE08B10120E1E72368EDB21D613B46BF
:10841000324616492046FFF7D8FE08B10120D5E7BD
:108420000022039223685969039199690391039982
:10843000196841F480711960009733464FF00111BB
:108440002046FFF76DFE20B9226848F0F103136162
:10845000B4E723681B6813F4807F02D04FF40073E5
:1084600023640320B2E70120B0E700BF020001004F
:108470000800010070B504460D46164623685B6986
:1084800013F0800F21D12046FFF722FEF8B9B5F195
:10849000FF3FF3D0FEF7D2F9801BA84201D8002D90
:1084A000ECD123685B6913F0800FE7D100232363CD
:1084B000202284F83D2084F83E30226C42F02002D5
:1084C000226484F83C30012000E0002070BD0120CF
:1084D000FCE770B504460D46164623685B6913F049
:1084E000040F21D12046FFF7F3FDF8B9B5F1FF3FA6
:1084F000F3D0FEF7A3F9801BA84201D8002DECD1E0
:1085000023685B6913F0040FE7D100232363202263
:1085100084F83D2084F83E30226C42F02002226430
:1085200084F83C30012000E0002070BD0120FCE711
:1085300070B504460D46164614E06FF010025A61FD
:1085400000232363202284F83D2084F83E30226CEF
:10855000226484F83C30012025E023685B6913F035
:10856000400F10D02368586910F0400F1AD1586995
:1085700010F0100FE1D1FEF761F9801BA842ECD892
:10858000002DEFD1E9E700232363202284F83D206A
:1085900084F83E30226C42F02002226484F83C30A1
:1085A000012000E0002070BD002800F0CC8070B5F4
:1085B000044690F83D30002B77D0242384F83D30DA
:1085C0002268136823F0010313602268136843F4E0
:1085D000004313602268136823F400431360FEF71E
:1085E0004BFC62685A4B9A4264D85A4B98428CBFF3
:1085F00000230123002B40F0A8805749A1FB003144
:108600008B0C25686A6822F03F0242EA91426A6058
:1086100021680A6A22F03F0266684D4DAE424FD88B
:10862000013313430B622168CA6922F44F4222F0DE
:10863000FF026568464B9D424CD8431E6D00B3FB5C
:10864000F5F3013340F6FC70034278D0C3F30B031B
:108650001A43CA6121680B6823F0C003E269206AEB
:10866000024313430B6021688B6823F4034323F018
:10867000FF032269E068024313438B602168CB68E3
:1086800023F0FF036269A06902431343CB602268B1
:10869000136843F00103136000202064202384F852
:1086A0003D30206384F83E0070BD80F83C30FDF71B
:1086B000A5FA82E7294B98428CBF0023012399E752
:1086C0004FF4967505FB03F3254DA5FB03539B095A
:1086D0000133A6E7A668BEB9431E05EB450CB3FB04
:1086E000FCF30133C3F30B03B3FA83F35B0943BB1E
:1086F000C6B9431E05EB4505B3FBF5F30133C3F3E0
:108700000B0343F40043A3E7431E05EB850C0CEB7E
:108710008C0CB3FBFCF30133C3F30B03B3FA83F309
:108720005B09E4E7431E05EB850505EB8505B3FB17
:10873000F5F30133C3F30B0343F4404388E7042309
:1087400086E7012384E7012070470120ACE700BFE2
:10875000A08601007F841E0083DE1B43FF083D00CE
:10876000D34D62102DE9F04385B004460F46914683
:1087700098460C9EFEF762F8054694F83D00C0B29C
:10878000202804D00227384605B0BDE8F0830095C4
:10879000192301224F492046FFF7C2FC002840F070
:1087A000928094F83C30012B00F08F80012384F8F4
:1087B0003C3023681A6812F0010F03D11A6842F0A6
:1087C00001021A602268136823F4006313602123F6
:1087D00084F83D30102384F83E3000232364C4F82D
:1087E0002490A4F82A80638D23853B4BE3622B46BB
:1087F000324639462046FFF753FD0746002866D12A
:108800000023039323685A6903929B690393039B94
:1088100011E0236C042B01D00127B4E72268136810
:1088200043F400731360F7E72A4631462046FFF70A
:1088300050FE00282ED1238D002B36D02A463146FB
:108840002046FFF717FE0028E3D1626A23681278FA
:108850001A61606A431C6362618D89B2013989B211
:108860006185238D013B9BB223852268516911F0FC
:10887000040FD9D0002BD7D043781361636A01333A
:108880006362638D9BB2013B9BB26385238D013B89
:108890002385C9E7236C042B01D0012773E72268E5
:1088A000136843F400731360F7E72268136843F416
:1088B00000731360202384F83D30002384F83E3099
:1088C00084F83C305FE702275DE702275BE701277A
:1088D00059E700BF020010000000FFFF2DE9F04340
:1088E00089B004460F4691469846109E0023079390
:1088F000FDF7A4FF054694F83D00C0B2202804D03F
:108900000227384609B0BDE8F083009519230122FB
:1089100080492046FFF704FC002840F07A8194F853
:108920003C30012B00F07781012384F83C30236830
:108930001A6812F0010F03D11A6842F001021A609E
:108940002268136823F400631360222384F83D3007
:10895000102384F83E3000232364C4F82490A4F844
:108960002A80638D23856C4BE3622B463246394661
:108970002046FFF7EFFC0746002840F04E81238D8C
:108980005BB9039323685A6903929A690392039A25
:108990001A6842F400721A60F3E0012B0FD0022B28
:1089A00021D02268136843F4806313600023069388
:1089B00023685A6906929B690693069BE1E0226848
:1089C000136823F48063136072B600230493236852
:1089D0005A6904929A690492049A1A6842F40072DD
:1089E0001A6062B6CDE02268136843F40063136036
:1089F00072B60023059323685A6905929A69059215
:108A0000059A1A6822F480621A6062B6B9E02A46B2
:108A100031462046FFF78CFD002840F00081236896
:108A20001A69636A1A70636A01336362238D013BBA
:108A30002385638D9BB2013B9BB26385A1E00095CA
:108A40003346002235492046FFF76AFB002840F0F4
:108A5000EA802268136823F48063136072B6236887
:108A60001A69636A1A70636A01336362238D013B7A
:108A70002385638D9BB2013B9BB26385284B1B68AA
:108A8000DB08284AA2FB03231B0A03EB8303C3EB87
:108A9000C30307930799013907910799002928D043
:108AA00023685A6912F0040FF4D01A6842F4007275
:108AB0001A6023681A69636A1A70636A0133636211
:108AC000238D013B2385638D9BB2013B9BB2638564
:108AD00062B623681A69636A1A70636A0133636253
:108AE000238D013B2385638D9BB2013B9BB2638544
:108AF00047E000232363202284F83D2084F83E30A1
:108B0000226C42F02002226462B684F83C300127D5
:108B1000F7E600BF020010000000FFFF04000100A4
:108B20000400002089B5F8142A4631462046FFF794
:108B3000FFFC002879D123681A69636A1A70636A96
:108B400001336362228D013A92B22285638D9BB21A
:108B5000013B9BB263852368596911F0040F10D063
:108B6000032A48D023681A69636A1A70636A01335A
:108B70006362238D013B2385638D9BB2013B9BB2D6
:108B80006385218D00293BD00329CDD801293FF4ED
:108B90003EAF02297FF453AF0095334600222449AB
:108BA0002046FFF7BDFA00283BD172B62268136851
:108BB00043F40073136023681A69636A1A70636A66
:108BC00001336362238D013B2385638D9BB2013B9F
:108BD0009BB2638562B623681A69636A1A70636A16
:108BE00001336362238D013B2385638D9BB2013B7F
:108BF0009BB26385C5E71A6822F480621A60B1E708
:108C0000202384F83D30002384F83E3084F83C3043
:108C100077E6022775E6022773E6012771E601274A
:108C20006FE601276DE601276BE6012769E600BFC5
:108C30000400010030B482B00024019490F83D405B
:108C4000E4B2202C53D12D4C2468E4082C4DA5FB14
:108C50000454240A04EB840404EB84040194019C6E
:108C6000013C0194019C002C35D00468A56915F0E5
:108C7000020FF4D190F83C50012D3CD0012580F832
:108C80003C50256815F0010F03D1256845F001051A
:108C9000256005682C6824F400642C60212480F889
:108CA0003D40102480F83E40002404644262438525
:108CB000438D0385134BC362416480F83C400268D6
:108CC000536843F4E06353600268136843F48073AD
:108CD000136020460CE000230363202280F83D202F
:108CE00080F83E30036C13430364022000E002204E
:108CF00002B030BC70470220FAE700BF0400002039
:108D000089B5F8140000FFFF30B482B0002401944C
:108D100090F83D40E4B2202C58D12F4C2468E40850
:108D20002E4DA5FB0454240A04EB840404EB8404B4
:108D30000194019C013C0194019C002C3AD00468F0
:108D4000A56915F0020FF4D190F83C50012D41D0E7
:108D5000012580F83C50256815F0010F03D12568E6
:108D600045F00105256005682C6824F400642C603A
:108D7000222480F83D40102480F83E400024046402
:108D800042624385438D0385154BC362416480F87D
:108D90003C400268536843F4E06353600268136820
:108DA00043F4806313600268136843F480731360B4
:108DB00020460CE000230363202280F83D2080F849
:108DC0003E30036C13430364022000E0022002B033
:108DD00030BC70470220FAE70400002089B5F8147F
:108DE0000000FFFF70477047704708B590F83D30AE
:108DF000DAB2438D9BB283B1416A03680978196185
:108E0000436A01334362438D9BB2013B9BB243856E
:108E1000438D9BB20BB9292A00D008BD0268536864
:108E200023F48063536021230363282380F83D30BB
:108E3000FFF7DAFFF1E7704708B590F83D30DAB296
:108E4000438D9BB283B103681969436A1970436A01
:108E500001334362438D9BB2013B9BB24385438DFB
:108E60009BB20BB92A2A00D008BD0268536823F4CC
:108E70008063536022230363282380F83D30FFF78B
:108E8000DAFFF1E7704700B583B090F83D3003F0AA
:108E90002803282B0CD0002301930268516901910B
:108EA00092690192019A80F83C3003B05DF804FBAE
:108EB0000268536823F48063536011F0040F0BD0F1
:108EC000002311F0800F09D18289002180F83C1025
:108ED0001946FFF7D7FFE8E70123F2E7028BF4E733
:108EE0007047704708B5C26A90F83D30DBB2212B5D
:108EF00000D008BD438D9BB263B1426A036812780B
:108F00001A61436A01334362438D9BB2013B9BB2BA
:108F10004385EEE7082A04D0202A02D012F5803FCC
:108F200019D10268536823F4E06353600268136840
:108F300043F40073136000230363202380F83D3063
:108F400090F83E30DBB2402B15D0002380F83E3045
:108F5000FFF748FFCDE70268536823F4E0635360EE
:108F600011230363002380F83E30202380F83D3036
:108F7000FFF738FFBDE7002380F83E30FFF7B1FF71
:108F8000B7E708B590F83D30026D9AB9C36C012B74
:108F900008D0836C0268C3F307231361036D0133A8
:108FA000036508BD836C0268DBB21361036D023395
:108FB0000365F6E7DBB2026D012A23D0026D022AB7
:108FC0003ED1222B26D0428D92B20AB1212B2AD03B
:108FD000428D92B2002AE4D1212BE2D1026853687B
:108FE00023F4E06353600268136843F40073136072
:108FF00000230363202280F83D2080F83E30FFF7F5
:1090000070FFCEE7836C0268DBB21361036D01333E
:109010000365C6E70268136843F480731360036D49
:1090200001330365BDE7426A036812781A61436A37
:1090300001334362438D9BB2013B9BB24385B0E752
:10904000FEF76EFEADE710B590F83D30DBB290F85C
:109050003E20D2B2C46A018D00293BD1212B02D01F
:10906000402A42D010BD082C04D0202C02D014F588
:10907000803F19D10268536823F4E06353600268AB
:10908000136843F40073136000230363202380F804
:109090003D3090F83E30DBB2402B15D0002380F8F5
:1090A0003E30FFF79FFEDDE70268536823F4E0637C
:1090B000536011230363002380F83E30202380F89F
:1090C0003D30FFF78FFECDE7002380F83E30FFF7FD
:1090D00008FFC7E7212BC3D1438D9BB243B9026878
:1090E000536823F480635360BCE7222BBAD1F3E7C3
:1090F00090F83E30DBB2402B0CD0426A0368127805
:109100001A61436A01334362438D9BB2013B9BB2B8
:109110004385A7E7FFF735FFA4E7704708B5C26AA4
:10912000438D9BB2042B14D0438D9BB2032B22D0D2
:10913000438D9BB2022B39D003681A69436A1A70B7
:10914000436A01334362438D9BB2013B9BB243852B
:1091500010E00268536823F48063536003681A695F
:10916000436A1A70436A01334362438D9BB2013BE9
:109170009BB2438508BD01684B6823F480634B6054
:10918000042A06D0022A04D00268136823F48063FC
:10919000136003681A69436A1A70436A01334362B1
:1091A000438D9BB2013B9BB24385E3E7531E0F2BDC
:1091B00042D8DFE803F0083B413B41414141414196
:1091C00041414141410801680B6823F480630B6011
:1091D00003681969436A1970416A4B1C4362438DE5
:1091E0009BB2013B9BB2438503681B694B70436A8A
:1091F00001334362438D9BB2013B9BB243850168BF
:109200004B6823F440734B60202380F83D3090F886
:109210003E30DBB2402B15D0002380F83E30082AC8
:1092200017D0202A15D01223036314E001680B68BD
:1092300043F480630B60CBE701680B6843F4007371
:109240000B60C5E7002380F83E300363FFF765FF3E
:1092500090E700230363FFF7C6FD8BE7704738B53F
:1092600090F83D30DBB2222B00D038BD0446C56AF1
:10927000438D9BB2032B15D903681A69436A1A7090
:10928000436A01334362438D9BB2013B9BB24385EA
:10929000438D9BB2032BE8D10268536823F48063AB
:1092A0005360E2E7C26A022A01D0012B05D9226885
:1092B000536823F480635360D7E7FEF7E5FE002888
:1092C00035D12268136823F48063136022685368E1
:1092D00023F4E063536023681A69636A1A70636A4F
:1092E00001336362638D9BB2013B9BB26385202394
:1092F00084F83D3094F83E30DBB2402B09D0002397
:1093000084F83E30082D0CD0202D0AD01223236380
:1093100009E0002384F83E3023632046FFF7FDFE7A
:10932000A3E7002323632046FFF75DFD9DE7226846
:10933000536823F4E063536023681A69636A1A7000
:10934000636A01336362638D9BB2013B9BB26385A9
:10935000202384F83D30002384F83E302046FFF778
:109360007DFF82E77047000000B583B000230193C2
:10937000406A90F83D20D2B2324B1B68DB0832497C
:10938000A1FB03131B0A03EB8303C3EBC30301938A
:10939000019B43B1019B013B019303681B6813F4DC
:1093A000007FF5D103E0036C43F020030364436BBB
:1093B0000BB100219962836B0BB1002199620168A6
:1093C0000B6823F480630B6000234385436B0BB170
:1093D00000215963836B0BB10021596301680B684D
:1093E00023F001030B6090F83D30DBB2602B0ED010
:1093F00002F02802282A14D0202380F83D300023D0
:1094000080F83E30FFF72AFF03B05DF804FB20230D
:1094100080F83D30002380F83E300364FFF7A2FF60
:10942000F2E70268136843F00103136002681368EF
:1094300043F48063136000230363282380F83D30E6
:10944000E0E700BF0400002089B5F81410B5044619
:1094500090F83D30DBB290F83E20D2B2102A36D0E0
:10946000402A34D003F02802282A38D022685268D3
:1094700012F4006F07D1602B05D0202384F83D3013
:10948000002384F83E300023236323685A6812F4D3
:10949000006F48D05A6822F400625A60626B92F8FA
:1094A0002130DBB2012B20D0444B5363606BFDF7BE
:1094B00059FF002849D02268136823F00103136084
:1094C000202384F83D30606B436B98473DE0222BAE
:1094D000C8D121680A6822F400620A60C2E700234A
:1094E0002363282384F83D30CFE7A36B334A5A63C4
:1094F000A06BFDF737FF40B323685A6912F0400FA5
:1095000005D01A69636A1A70636A0133636222685C
:10951000136823F001031360202384F83D30A06B0F
:10952000436B984711E094F83D20D2B2602A1FD0D7
:109530005A6912F0400F05D01A69636A1A70636A9B
:10954000013363622046FFF789FE236C13F00F0F8F
:1095500004D02268536823F4E063536094F83D30EC
:10956000DBB2226C12F0040F01D0282B18D010BDF2
:10957000202284F83D20002222645A6912F0400F14
:1095800005D01A69636A1A70636A013363622268DC
:10959000136823F0010313602046FFF7E3FED4E7CE
:1095A000074BE36200232363202284F83D2084F8E4
:1095B0003E302046FFF794FCD9E700BF69930008CE
:1095C0000000FFFF30B583B0044690F83D50EDB287
:1095D0000268536823F4E063536000230193036837
:1095E0005A6901921A6842F001021A60019B0268EE
:1095F000136823F48063136003685A6812F4006FE1
:1096000038D0222D21D02A2D1FD0426B12685268EB
:1096100092B24285428D92B21AB1026C42F00402BB
:1096200002645A6822F400625A60606BFDF7E6FE3D
:1096300001281FD0636B444A5A63606BFDF792FEAA
:10964000C0B1606B436B984714E0A26B126852681C
:1096500092B26285628D92B21AB1226C42F004021B
:1096600022645A6822F400625A60A06BFDF7C6FEBD
:10967000012842D1638D9BB233B323685A6912F03B
:10968000040F0AD01A69636A1A70636A013363624D
:10969000638D9BB2013B9BB2638523685A6912F0CC
:1096A000400F0AD01A69636A1A70636A01336362F1
:1096B000638D9BB2013B9BB26385638D9BB21BB1F3
:1096C000236C43F004032364236C13BB2A2D25D0A1
:1096D00094F83D30DBB2282B29D0236B222B01D00C
:1096E000222D19D100232363202284F83D2084F801
:1096F0003E302046FFF79FFB0EE0A36B124A5A63F1
:10970000A06BFDF72FFE0028B4D0A06B436B9847E9
:10971000B0E72046FFF79AFE03B030BD0023236375
:10972000282384F83D302046FFF785FBD0E7074B20
:10973000E36200232363202284F83D2084F83E3036
:109740002046FFF7CDFBE7E7699300080000FFFF25
:10975000F8B5044602685568C66A90F83E30DBB238
:1097600090F83D10C8B2102B13D0402B11D0236CB1
:10977000002B7AD05369002113F0020F78D015F432
:10978000007F75D0236C03B191692046FFF77BFB06
:10979000F8BDD2F818C0516911F0010705D1B6F52E
:1097A0002A0FF5D0B6F12A4FF2D017B115F4007F89
:1097B00029D111F0080F02D015F4007F2AD111F041
:1097C000020F02D015F4007F28D11CF0040F31D015
:1097D000526812F4006FDBD111F0800F05D015F440
:1097E000806F02D011F0040F1CD011F0040FCFD005
:1097F00015F4007FCCD0212818D0402BC8D12046AA
:10980000FFF7BFFBC4E72046FEF77BFC2046FEF7D0
:109810008FFABDE72046FEF7DFFAB9E72046FEF7EC
:10982000F1FAB5E72046FFF70EFCB1E72046FFF757
:1098300059FBADE7536813F4006FA9D111F0400F45
:1098400005D015F4806F02D011F0040F09D011F08B
:10985000040F9DD015F4007F9AD02046FFF75EFCE0
:1098600096E72046FFF7FBFC92E79169536983E78F
:1098700013F0100F02D015F4007F18D121281AD050
:10988000292818D013F0400F05D015F4806F02D0AE
:1098900013F0040F28D013F0040F3FF479AF15F440
:1098A000007F3FF475AF2046FEF7DEFB70E72046F1
:1098B000FFF788FE6CE713F0800F05D015F4806F7A
:1098C00002D013F0040F0BD013F0040F3FF460AF7D
:1098D00015F4007F3FF45CAF2046FEF7B5FB57E779
:1098E0002046FFF782FA53E72046FFF7A5FA4FE735
:1098F00030B4026A036A23F0010303624568836996
:1099000023F073030C681C4322F002028B6813439C
:109910000B4A904206D0456084614A684263036204
:1099200030BC704723F00803CA681A4322F00403CE
:1099300025F440754A692A438D691543EBE700BF5A
:10994000002C014030B4036A026A22F48072026281
:109950004468C26922F073020D68154323F4007352
:109960008A6843EA02230D4A904206D04460C561EA
:109970004A68C263036230BC704723F40063CA685C
:1099800043EA022323F4806324F440544A6944EAFE
:1099900002148A6944EA0214E8E700BF002C01407F
:1099A00030B4036A026A22F4805202624468C269D7
:1099B00022F4E6420D6842EA052223F400538D6842
:1099C00043EA0533074DA84206D04460C2614A68A5
:1099D0000264036230BC704724F480444D6944EA59
:1099E0008514F2E7002C01407047000090F83D30EC
:1099F000DBB2012B27D1022380F83D300268D36807
:109A000043F00103D3600368114A934210D0B3F1CD
:109A1000804F0DD0A2F59432934209D002F58062B6
:109A2000934205D01A6842F001021A600020704784
:109A30009A6802F00702062A07D01A6842F001026B
:109A40001A6000207047012070470020704700BF57
:109A5000002C0140704770477047704770B504464E
:109A60000368DE681D6915F0020F10D016F0020FB2
:109A70000DD06FF002021A610123037703689B691E
:109A800013F0030F5ED0FFF7E6FF0023237715F0F6
:109A9000040F12D016F0040F0FD023686FF00402E9
:109AA0001A610223237723689B6913F4407F4FD008
:109AB0002046FFF7D0FF0023237715F0080F12D0C0
:109AC00016F0080F0FD023686FF008021A61042304
:109AD00023772368DB6913F0030F40D02046FFF79C
:109AE000BAFF0023237715F0100F12D016F0100FD5
:109AF0000FD023686FF010021A61082323772368C0
:109B0000DB6913F4407F31D02046FFF7A4FF002328
:109B1000237715F0010F02D016F0010F2DD115F0AB
:109B2000800F02D016F0800F2FD115F0400F02D019
:109B300016F0400F31D115F0200F02D016F0200F93
:109B400033D170BDFFF786FF2046FFF785FF9CE706
:109B50002046FFF77FFF2046FFF77EFFABE720465A
:109B6000FFF778FF2046FFF777FFBAE72046FFF7B9
:109B700071FF2046FFF770FFC9E723686FF001020D
:109B80001A612046FBF784FEC9E723686FF0800264
:109B90001A61204600F03FFAC7E723686FF04002E1
:109BA0001A612046FFF759FFC5E723686FF02002CE
:109BB0001A61204600F02EFAC3E7000003681F4A2E
:109BC00090420AD0B0F1804F07D0A2F59432904273
:109BD00003D002F58062904203D123F070034A68FB
:109BE0001343164A90420AD0B0F1804F07D0A2F535
:109BF0009432904203D002F58062904203D123F464
:109C00004073CA68134323F080034A691343036017
:109C10008B68C3620B688362084B98420AD00123A9
:109C20004361036913F0010F03D0036923F00103BB
:109C3000036170470B690363F1E700BF002C01402B
:109C400040B310B5044690F83D30F3B1022384F8D8
:109C50003D30214651F8040BFFF7B0FF012384F893
:109C6000463084F83E3084F83F3084F8403084F841
:109C7000413084F8423084F8433084F8443084F82A
:109C8000453084F83D30002010BD80F83C30FFF7AF
:109C9000ABFEDBE70120704740B310B5044690F8F7
:109CA0003D30F3B1022384F83D30214651F8040BD6
:109CB000FFF784FF012384F8463084F83E3084F8AF
:109CC0003F3084F8403084F8413084F8423084F8E2
:109CD000433084F8443084F8453084F83D30002027
:109CE00010BD80F83C30FBF7C3FFDBE70120704775
:109CF00030B4036A026A22F0100202624468826988
:109D000022F4E6420D6842EA052223F020038D6822
:109D100043EA05130C4DA84206D0446082614A68AC
:109D20008263036230BC704723F08003CD6843EA4E
:109D3000051323F0400324F440644D6944EA85048C
:109D40008D6944EA8504E8E7002C014038B590F8B5
:109D50003C30012B66D004460D46012380F83C3090
:109D60000C2A5AD8DFE802F0075959591B5959599A
:109D70003059595944000068FFF7BAFD22689369C9
:109D800043F0080393612268936923F0040393610D
:109D90002268936929690B43936100203EE00068C3
:109DA000FFF7A6FF2268936943F40063936122687A
:109DB000936923F48063936122689369296943EA74
:109DC00001239361002029E00068FFF7BBFD2268B2
:109DD000D36943F00803D3612268D36923F00403F5
:109DE000D3612268D36929690B43D361002015E050
:109DF0000068FFF7D5FD2268D36943F40063D3619F
:109E00002268D36923F48063D3612268D369296906
:109E100043EA0123D361002000E00120002384F8FD
:109E20003C3038BD0220FCE701F01F014FF0010C6F
:109E30000CFA01FC036A23EA0C030362036A8A40FA
:109E4000134303627047000010B50446084651BB37
:109E500094F83E30DBB2013B18BF0123002B5BD1ED
:109E6000002839D1022384F83E30012201462068BF
:109E7000FFF7DAFF23682A4A93423DD02368284A35
:109E800093423ED0B3F1804F3BD0A2F5943293423F
:109E900037D002F58062934233D01A6842F0010253
:109EA0001A60002039E0042908D008290DD094F860
:109EB0004130DBB2013B18BF0123CFE794F83F30BC
:109EC000DBB2013B18BF0123C8E794F84030DBB296
:109ED000013B18BF0123C1E7042805D0082807D09B
:109EE000022384F84130C0E7022384F83F30BCE706
:109EF000022384F84030B8E75A6C42F400425A64B6
:109F0000BCE79A6802F00702062A07D01A6842F0F6
:109F100001021A60002000E0012010BD0020FCE7D3
:109F2000002C014038B504460D4600220068FFF7BA
:109F30007BFF23681B4A934214D02368196A41F2BD
:109F40001112114208D1196A40F24442114203D160
:109F50001A6822F001021A609DB9012384F83E308C
:109F6000002038BD196A41F211121142E5D1196A77
:109F700040F244421142E0D15A6C22F400425A6449
:109F8000DBE7042D05D0082D07D0012384F84130EC
:109F9000E6E7012384F83F30E2E7012384F840300C
:109FA000DEE700BF002C014090F83C20012A2CD0B5
:109FB00010B40346012280F83C20022280F83D20A4
:109FC00002685068946820F0700C086840EA0C0041
:109FD00050601A680E4882420AD0B2F1804F07D012
:109FE000A0F59430824203D000F58060824204D113
:109FF00024F08004496821439160012283F83D20C8
:10A00000002083F83C0010BC70470220704700BF5E
:10A01000002C014070477047026802F10C0353E8BE
:10A02000003F23F490730C3242E800310029F3D151
:10A03000026802F1140353E8003F23F001031432D5
:10A0400042E800310029F3D1036B012B05D0202316
:10A0500080F84230002303637047026802F10C036A
:10A0600053E8003F23F010030C3242E8003100298E
:10A07000F3D1ECE790F84130DBB2212B01D0022084
:10A0800070478368B3F5805F17D0036A5A1C026279
:10A090001A7803685A60C38C9BB2013B9BB2C3849D
:10A0A0004BB90268D36823F08003D3600268D36899
:10A0B00043F04003D360002070470369002BE4D1D4
:10A0C000036A1B880268C3F308035360036A023300
:10A0D0000362E0E710B504460268136923F44053B5
:10A0E000C1680B43136183680269134342691A43D1
:10A0F0000168CB6823F4B05323F00C031343CB6007
:10A100000268536923F4407381690B435361026809
:10A11000134B9A4220D0FCF7AFFE024602EB8202BC
:10A1200002EB820263689B00B2FBF3F20D48A0FBD6
:10A1300002314909642303FB11231B013233A0FBC5
:10A1400003035B0903F0F00202EB011203F00F03BB
:10A15000216813448B6010BDFCF79EFE0246DDE7CC
:10A16000003801401F85EB5160B310B5044690F8EC
:10A17000413013B3242384F841302268D36823F498
:10A180000053D3602046FFF7A5FF2268136923F42C
:10A19000904313612268536923F02A0353612268B4
:10A1A000D36843F40053D36000206064202384F814
:10A1B000413084F84230606310BD80F84030FBF7D6
:10A1C00025FED7E70120704790F84130DBB2202B05
:10A1D00010D189B192B101628284C28400234364A8
:10A1E000212280F841200168CA6842F08002CA60DA
:10A1F00018467047022070470120704701207047C1
:10A20000704708B50168CA6822F04002CA6020227F
:10A2100080F84120FFF7F4FF002008BD704708B523
:10A22000406A0023C385C384FFF7F8FF08BD704769
:10A2300090F84230DBB2222B69D18368B3F5805F9E
:10A240004FD0826AB3F5805F04D0002B56D10369EA
:10A25000002B53D103685B681370836A01338362F8
:10A26000C38D9BB2013B9BB2C385002B51D100B57E
:10A2700083B00268D36823F02003D3600268D368F8
:10A2800023F48073D3600268536923F001035361A0
:10A29000202380F8423000234363036B012B33D12A
:10A2A00000230363026802F10C0353E8003F23F02C
:10A2B00010030C3242E800310029F3D103681A6818
:10A2C00012F0100F06D0002201921A6801925B680A
:10A2D0000193019B818DFFF7AAFF002003B05DF879
:10A2E00004FB0269002AACD1826A03685B68C3F38D
:10A2F00008031380836A02338362B1E703685B68F3
:10A3000003F07F031370A8E700F070FBE5E702207D
:10A31000704700207047000010B582B00446026804
:10A320001368D068516913F00F0F09D113F0200F93
:10A330000CD010F0200F09D02046FFF779FF16E06F
:10A3400011F0010115D110F4907F12D1216B012978
:10A3500079D013F0800F03D010F0800F40F01381FC
:10A3600013F0400F03D010F0400F40F0108102B006
:10A3700010BD13F0010F06D010F4807F03D0626C83
:10A3800042F00102626413F0040F04D019B1626C50
:10A3900042F00202626413F0020F04D019B1626C41
:10A3A00042F00402626413F0080F07D010F0200F8F
:10A3B00000D119B1626C42F008026264626C002A3A
:10A3C000D5D013F0200F02D010F0200F29D1236830
:10A3D0005B6903F04003626C12F0080F00D163B3B5
:10A3E0002046FFF719FE23685B6913F0400F20D069
:10A3F000226802F1140353E8003F23F040031432B3
:10A4000042E800310029F3D1E36B73B1624A5A6329
:10A41000E06BFCF7A7FF0028A9D0E06B436B9847DF
:10A42000A5E72046FFF704FFD1E72046FFF7F6FE39
:10A430009DE72046FFF7F2FE99E72046FFF7EEFE84
:10A440000023636493E713F0100F82D010F0100F15
:10A450003FF47FAF00230193136801935368019386
:10A46000019B536913F0400F51D0E26B13685B6896
:10A470009BB2002B3FF47BAFA18D99427FF677AF63
:10A48000E3859369202B37D0226802F10C0353E84F
:10A49000003F23F480730C3242E800310029F3D1ED
:10A4A000226802F1140353E8003F23F00103143241
:10A4B00042E800310029F3D1226802F1140353E885
:10A4C000003F23F04003143242E800310029F3D169
:10A4D000202384F8423000232363226802F10C0316
:10A4E00053E8003F23F010030C3242E8003100290A
:10A4F000F3D1E06BFCF713FF02236363A18DE38DBF
:10A500009BB2C91A89B22046FFF791FE2FE7A18DB1
:10A51000E38D9BB2C91A89B2E38D9BB2002B3FF445
:10A5200026AF00293FF423AF226802F10C0353E861
:10A53000003F23F490730C3242E800300028F3D13E
:10A54000226802F1140353E8003F23F001031432A0
:10A5500042E800300028F3D1202384F84230002361
:10A560002363226802F10C0353E8003F23F0100339
:10A570000C3242E800300028F3D102236363204606
:10A58000FFF755FEF3E62046FFF774FDEFE62046A1
:10A59000FFF737FEEBE600BF1FA20008816282854D
:10A5A000C28500234364222380F84230036923B12B
:10A5B0000268D36843F48073D3600268536943F040
:10A5C000010353610268D36843F02003D360002085
:10A5D000704708B590F84230DBB2202B08D149B162
:10A5E0000AB9012008BD00230363FFF7D7FFF9E78D
:10A5F0000220F7E70120F5E750B338B504460368B9
:10A600004CF6CC421A60036845F255521A60036852
:10A6100042685A60036882689A60FCF70FF9054641
:10A620002368DA6812F0030F0DD0FCF707F9401B1E
:10A6300041F23C339842F3D92368DB6813F0030FEF
:10A64000EED0032003E04AF6AA221A60002038BDAB
:10A650000120704703684AF6AA221A60002070475A
:10A6600058B110B5044643791BB101236371002032
:10A6700010BD0371FBF7A2FCF7E701207047844689
:10A68000022343710068836843F001038360002361
:10A69000934211D200B5DCF8000051F823E0C0F875
:10A6A00000E001339342F6D3DCF800301868012350
:10A6B0008CF805305DF804FBDCF8003018680123E5
:10A6C0008CF805307047000008B5012812D0022828
:10A6D00020D070B90A2217491748FAF799FF0A22C1
:10A6E00016491748FAF794FF012216491648FFF752
:10A6F00070FF08BD0A2215491548FAF789FF0A229A
:10A7000014491548FAF784FF012214491448FFF749
:10A7100060FFEEE70A2213491348FAF779FFFF2298
:10A7200012491348FAF774FF012212491248FFF741
:10A7300050FFDEE79C060020B806002090060020AF
:10A74000A8060020280500205C04002064060020E4
:10A7500080060020580600207006002027050020F3
:10A76000140400202C060020480600202C050020A0
:10A770003806002026050020CC03002030B583B029
:10A7800000238DF807308DF806308DF805308DF8F0
:10A7900004308DF803308DF802300DF107012F4899
:10A7A000FAF779FF9DF807302BB92D4B93F841301C
:10A7B000DBB2202B1DD00DF106012A48FAF76BFF02
:10A7C0009DF806302BB9284B93F84130DBB2202B93
:10A7D00020D00DF105012548FAF75DFF9DF8053001
:10A7E0002BB9234B93F84130DBB2202B24D003B09C
:10A7F00030BD1A4D01A92846FAF79EFF1D4C21468F
:10A800002846FAF7CAFF9DF8042021461448FFF7AE
:10A81000DBFCD0E7134D0DF103012846FAF78CFF5E
:10A82000154C21462846FAF7B8FF9DF8032021462B
:10A830000D48FFF7C9FCCCE70C4D0DF1020128468D
:10A84000FAF77AFF0D4C21462846FAF7A6FF9DF845
:10A85000022021460648FFF7B7FCC8E7B8060020EB
:10A860005C0400208006002014040020480600201C
:10A87000CC0300201C05002010050020040500204A
:10A8800003283ED870B504460D461646012814D05C
:10A89000022824D0B8BB1D48FFF796FC022801D03F
:10A8A000204631E0324629461948FAF7A1FF06282A
:10A8B00001D0032028E0092026E01648FFF784FC99
:10A8C000022801D000201FE0324629461248FAF73C
:10A8D0008FFF062801D0032016E0092014E00F485E
:10A8E000FFF772FC022801D000200DE03246294615
:10A8F0000B48FAF77DFF062801D0032004E0092069
:10A9000002E005207047002070BD00BF5C040020FD
:10A91000B80600201404002080060020CC0300208C
:10A9200048060020032851D8F8B504460F461646BD
:10A930001D4601281CD0022831D0002848D11946D4
:10A940002748FAF7F9FE002844D12B78B3420AD8F9
:10A950000BB908203DE039462148FAF71EFF0028D0
:10A9600037D0012035E01E48FAF78AFE062030E095
:10A9700019461C48FAF7E0FE70BB2B78B34209D8A1
:10A980000BB9082025E039461648FAF706FF00B350
:10A9900020461EE01248FAF773FE062019E0194619
:10A9A0001148FAF7C9FEC8B92B78B34209D80BB9D8
:10A9B00008200EE039460C48FAF7EFFE48B10120B6
:10A9C00007E00748FAF75CFE062002E00520704722
:10A9D0000020F8BD0120FCE72046FAE70120F8E757
:10A9E000A8060020700600203806002038B504466E
:10A9F0000268164B9A4208D02268154B9A420FD033
:10AA00002268144B9A4216D038BD134D01222946B4
:10AA10001248FFF7DEFD29461148FAF755FEEBE72D
:10AA2000104D012229461048FFF7D3FD29460F4853
:10AA3000FAF74AFEE4E70E4C012221460D48FFF7E3
:10AA4000C8FD21460C48FAF73FFEDDE7003801401B
:10AA50000044004000480040280500205C0400201D
:10AA6000A8060020270500201404002070060020FE
:10AA700026050020CC030020380600204FF47A730E
:10AA800000FB03F3024890FBF3F080B2704700BF75
:10AA90000087930310B5654B1B78012B04D0644BE2
:10AAA0001B78012B4DD010BD624B1B78013B032B53
:10AAB000F9D8DFE803F0023C0A2B00215E48FFF7DB
:10AAC000C3F95C4B03221A70EDE75C4B1B681888D6
:10AAD000C0B1FFF7D3FF5A4B1880584B5B681B88F7
:10AAE000584A1380544A1168554A1288013A8A62BA
:10AAF000554AA2FB0323DB08544A13704D4B042232
:10AB00001A70D0E74E4B01221A80E6E7504B1B78B3
:10AB10004E4A1278934203D001334D4A1370C2E774
:10AB20004B4B00221A70434B02221A70BBE70021E4
:10AB30004148FFF7F7F900233C4A13703D4A137070
:10AB4000B1E7444B1B78013B042BACD8DFE803F0A2
:10AB500003440B334F0000213748FFF775F93D4B95
:10AB600003221A709FE73C4B1B683C4A147833F869
:10AB70001400E0B1FFF782FF314B1880364B5B6861
:10AB800033F814302F4A13802B4A11682C4A12884C
:10AB9000013A8A622C4AA2FB0323DB082B4A13707A
:10ABA00001342E4B1C702B4B04221A707BE7244B74
:10ABB00001221A80E2E7264B1B78244A127893423E
:10ABC00003D00133224A13706DE7214B00221A7023
:10ABD000204B02221A7066E700211748FFF7A2F9FE
:10ABE0001A4B02221A701B4B05221A705BE7184B96
:10ABF0001B78164A1278934203D00133144A13701B
:10AC000051E7134B00221A70144B1A78124B1B8910
:10AC10009A4203D00F4B01221A7044E700230F4AD7
:10AC20001370034A13700B4A13703CE7E9060020C7
:10AC3000EA060020EB06002084030020D006002056
:10AC4000CE060020CC060020CDCCCCCCCB060020FC
:10AC5000CA060020EC060020D8060020E8060020E6
:10AC600008B5104B1B78012B12D10F4B1B880F4AD4
:10AC70001288934203D001330B4A138011E04FF442
:10AC800000510B48FCF742FB074B00221A8008E0FA
:10AC900001224FF400510648FCF732FB024B002220
:10ACA0001A8008BDE4060020C8060020E606002041
:10ACB00000100140064B1A8118605960054B1B7843
:10ACC00023B90123044A1370024A1370704700BF6E
:10ACD000D8060020EC060020EA06002008B50A2865
:10ACE00003D00B2808D0012008BD012210210648FE
:10ACF000FCF706FB0020F7E7002210210248FCF7D2
:10AD0000FFFA0020F0E700BF00080140044B0122D9
:10AD10001A70044BA3FB0030C008034B1880704727
:10AD2000E4060020CDCCCCCCE606002010B5094CC2
:10AD3000002210212046FCF7E3FA002240212046A1
:10AD4000FCF7DEFA01224FF400510348FCF7D8FA71
:10AD500010BD00BF000801400010014008B5FFF71A
:10AD600099FEFFF77DFF08BD30B583B00D4C002183
:10AD7000216061600C4D2B462246FCF7D6FD23680E
:10AD8000626813430193094C04220DEB0201204633
:10AD9000FAF72EFD082229462046FAF729FD03B0CE
:10ADA00030BD00BF80070020780700206807002022
:10ADB00030B58BB0144D2846FCF714FD01230893E1
:10ADC0000A220592002404940094019402940394AE
:10ADD000069407930D23099369462846FCF77CFCEB
:10ADE00002212846FCF756FE084B094A2146284610
:10ADF000FCF79BFD782207490748FAF709FC00F0A9
:10AE000021FB0BB030BD00BF0803002078070020F5
:10AE100080070020F00600206807002008B500F039
:10AE200097FD00F029FC08BD8446FF2304E0013BA8
:10AE300013F0FF0309D00130027832B18CF8002002
:10AE40008A42F4D00CF1010CF1E700238CF80030B9
:10AE5000704700E0013003780A2BFBD1013002E09B
:10AE6000013001F8013B03780D2BF9D100230B7061
:10AE70007047431C00E001331A782C2AFBD10230C2
:10AE800003E010F8012B01F8012B9842F9D30023BD
:10AE90000B70704708B5FF2200210248FAF75AFBF1
:10AEA00008BD00BFDC070020402901D90020704701
:10AEB00008B50A4601460220FFF7E2FC012008BD62
