:020000040800F2
:10000000005000208D110008952B0008972B000848
:10001000992B00089B2B00089D2B00080000000076
:10002000000000000000000000000000891100082E
:100030009F2B0008000000008911000889110008AA
:100040008911000889110008891100088911000828
:100050008911000889110008891100088911000818
:100060008911000889110008891100088911000808
:1000700089110008891100088911000889110008F8
:1000800089110008891100088911000889110008E8
:1000900089110008891100088911000889110008D8
:1000A00089110008A12B0008891100088911000896
:1000B00089110008891100088911000889110008B8
:1000C00089110008891100088911000889110008A8
:1000D0008911000889110008AD2B0008891100085A
:1000E0008911000889110008891100088911000888
:1000F0008911000889110008891100088911000878
:100100008911000889110008891100088911000867
:100110008911000889110008891100088911000857
:100120008911000889110008891100088911000847
:100130005902000810350008F0B5CBB004460D4652
:1001400016461F46094905A800F068F85399529AC7
:100150000491039200975199509A0291019233466B
:100160002A46214600F09EF94BB0F0BD3001000850
:1001700002688A4218BF00207047000010B5FFF7E0
:10018000F7FF4FF4803400280EBF034C4FF48A7100
:1001900003F084F9204610BD0300010038B50400C7
:1001A000064D08D0FFF7E4FF28B100F10801204612
:1001B00000F0AAF90546284632BD00BF0300010041
:1001C00070B50C4615461946064E40B1FFF7D0FFF4
:1001D00028B12A462146083000F09EF906463046EE
:1001E00070BD00BF030001007CB504000D4616463B
:1001F00003D01946FFF7BCFF08B9074876BD102E9B
:100200000CBF012100210091334600F582712A467E
:10021000204600F065FB76BD030001000A465368E6
:1002200012681968104700000149FFF7A7BF00BF17
:10023000D43400080149FFF7B1BF00BFD43400082F
:10024000014BFFF7BDBF00BFD4340008014BFFF7DF
:10025000CBBF00BFD434000810B1024A02608160F5
:10026000704700BFD43400082DE9F04F1746002531
:10027000102F89B006468946984609D33079C207BF
:1002800006D56F493046FFF773FF5FEA000A01D1D8
:100290006C48D2E09AF8100000F00500052818BF5D
:1002A0006948F6D1129C04B1256017F00F0F08BF02
:1002B0003D4609D0202F38BF756005D33D096D1E1E
:1002C00000202D01CAF8100000260AF5827B1FE0ED
:1002D00004A909EB060000F037FBDAF80830D3F880
:1002E00000C06A4604A90AF10800E047594668467A
:1002F00000F055FB08EB0601684600F039FB594653
:1003000004A800F059FB14B12068103020601036AA
:10031000AE42DDD3BD4280F08E8004A909EB05001A
:1003200000F012FBDAF80830D3F800C06A4604A9DE
:100330000AF10800E04705F110017B1A20464FF052
:10034000000E04AA9C0814E001EB8E0359F8035038
:100350002DBA42F82E505DF82E6075404DF82E50A3
:100360002DBA48F8035010B103681B1D03600EF14D
:10037000010EA645E8D343468846002142F82410E2
:100380004FF0000E08EB84017F1A254608911CE00F
:10039000089C52F8256074444FEACE0C19F80410FA
:1003A000CCF1180C01FA0CF14E4042F825605DF8D2
:1003B000256019F8041026FA0CF64E401E5510B1AF
:1003C0000468641C04600EF1010EBE45E0D31E46B5
:1003D00004465DF825104FF0FF33FF0052F825006A
:1003E000FB401940484042F82500681C04280AD206
:1003F0006946C5F1030501EB800104ABAA0003EBDC
:10040000800003F049F8DAF808301F686A4604A94A
:100410000AF10800B8470AF58271684600F0BFFA91
:1004200006EB0800A0F11001684600F0A1FA14B133
:100430002068103020604FF4803009B0BDE8F08FA4
:10044000D43400080300010004000100F8B50C4694
:10045000114605001A4684B0104B1CD0686810F194
:100460003B0F18BF0E4B16D10D980CB909B112E015
:1004700088B182B10B9F0C9E07B966B958B1DDF8FF
:1004800038C00A9B0290CDF80CC001960097204618
:100490002C68A0470346184605B0F0BD03000100D4
:1004A000020001002DE9FC4104460D462168164674
:1004B0004A681F4690478046B8F5803F1DD12368A3
:1004C000089A39469F682046B8478046B8F5803F6D
:1004D00013D123680A9A0999DF682046B8478046F5
:1004E000B8F5803F09D129460C980090324625681E
:1004F0000B9B2E6A2046B047804621680A6820463A
:1005000090474046BDE8F6810022426001208860A5
:100510004FF48030704700002DE9F14F8CB09246C7
:10052000BAF1100FE74AE84BE84DDFF8A483E94E33
:10053000DFF8A4B30DF1040C08D0BAF1180F00F0E5
:100540009280BAF1200F00F01881A8E1DBE90004E5
:100550000DF1240EE14FCEE90004387800280CBFDD
:100560004FF000094FF0040956F809405EF8097091
:100570003C44236001232768A360D6F80090736889
:100580008C7B00945F40099C7C40DEF8047087EA15
:10059000090784F0040487F0FC0E7444009F84F083
:1005A000520EBE448CF80EE04FF0010E11F80E40D2
:1005B0000CF80E400EF1010EBEF10E0FF6D3DBE982
:1005C00000470DF1240E0028CEE900470CBF00279C
:1005D00004273C46F7595EF80440E4190127C4F8A3
:1005E00000800028D4F80080A76083EA0808099CEE
:1005F0000F7884EA080484F00408DEF8044084EAF2
:10060000090484F0FC04444484F00B08DBE9004E48
:10061000B84409AF8DF80480C7E9004E0EBF4FF013
:10062000000E0420864609AC365854F80E00861990
:10063000356001253068B5604340CE7B099960681C
:100640004B4080EA090083F0040380F0FC0003447F
:1006500083F085039B198CF80F300C9D287AC10715
:1006600000F11F811BE1DBE900E909A89B4CC0E90F
:1006700000E9207800280CBF4FF000094FF0040972
:100680000DF1240E56F809405EF809703C442560CF
:1006900001252768A560D6F8009075688C7B0094CA
:1006A0006F40099C7C40DEF8047087EA090784F0FB
:1006B000040487F0FC0E7444009F84F0850EBE4451
:1006C0008CF80EE04FF0010E11F80E400CF80E40C1
:1006D0000EF1010EBEF10E0FF6D3DBE900470DF16E
:1006E000240E0028CEE900470CBF002704273C4613
:1006F000F7595EF80440E419236001232768A360DA
:100700006F40099B0C785F40DEF8043083EA0903F0
:1007100087F0040783F0FC031F4487F052073F195A
:100720008DF8047009ACDBE90073C4E9007300289C
:100730000EBF0023042004233658E05886190123F5
:10074000C6F800803068B3604540099B60685D4032
:1007500080EA090085F0040580F0FC00CE7B0544AA
:1007600085F00B05AD198CF80F5010200B5C0CF8C0
:100770000030401C1828F9D36FE7DBE900E909A82D
:10078000564CC0E900E9207800280CBF4FF0000962
:100790004FF004090DF1240E56F809405EF8097077
:1007A0003C44C4F800804FF001082768C4F8088072
:1007B000D6F80090D6F80480CC7F009488EA07072A
:1007C000099C7C40DEF8047087EA090784F0040481
:1007D00087F0FC0E7444009F84F00B0EBE448CF82E
:1007E0001FE04FF0000E11F80E400CF80E400EF115
:1007F000010EBEF1100FF6D3DBE900470DF1240E18
:100800000028CEE900470CBF002704273C46F759D3
:100810005EF80440E419256001252768A56088EA90
:100820000707099D4C7C6F40DEF8045085EA0905F6
:1008300087F0040785F0FC052F4487F085073F19F2
:100840008CF8117009ADDBE90047C5E900470028C5
:100850000EBF4FF0000B04208346365855F80B00AE
:100860008619336001233068B36088EA0000099B71
:100870000E7C584080F00408686880EA090080F027
:10088000FC00404480F05208B0448CF810801220E4
:100890000B5C0CF80030401C1F28F9D3DDE6104635
:1008A0000DE02B685E68524601A92846B047A8684B
:1008B000C5F804A040F00400A8604FF480300DB0EB
:1008C000BDE8F08F0300010054228EF77D138F2EB8
:1008D000A40B0E91003500084009000820000020FC
:1008E00030B5039C002C18BF002A01D1094830BD47
:1008F000002404E055592DBA41F82450641CA50089
:100900009D42F7D3416841F0010141604FF48030CE
:1009100030BD00BF030001004FF4803070474FF43A
:10092000803070474FF4803070474FF4803070470C
:1009300000487047020001000048704702000100B3
:1009400004B001010017014530B5002200EB82031D
:100950005D781C782D0445EA04659C78DB7845EACF
:1009600004251D4341F82250521C042AEED330BD09
:1009700030B5002201EB820350F82240DC7050F8C1
:1009800022502D0A9D7050F82240240C5C7050F8C3
:100990002240521C240E042A1C70EBD330BD10B52B
:1009A000002250F8223051F82240634040F82230B3
:1009B000521C042AF5D310BD002250F8223041F811
:1009C0002230521C042AF8D3704700002DE9F44F5E
:1009D00000F10C058CB00E684C684268CF68D308F3
:1009E000D208D20002F1180805EB8805DB1C2A6842
:1009F00056406A6882EA040E8C68AA68E968009327
:100A000000EB880054404F40A0F11405DFF89082BD
:100A100056E00B9858F82070DDF828B058F826609A
:100A200058F8211058F823304FEA372058F82B7027
:100A3000704090EA374090EA316082EA00060998F7
:100A400058F8201058F82E204FEA31204FEA324152
:100A50004FEA336258F824305840484082EA000197
:100A60006868059B80EA010E089958F821000799EB
:100A70004FEA302458F82100069958F821204FEA0F
:100A8000326158F82320019B544094EA3044A8680E
:100A90004C400499444058F8210003994FEA30270C
:100AA00058F82100029958F821204FEA326158F88D
:100AB0002320574097EA3047E8684F404740203DA1
:100AC0003802000E58F8201020044FEA3122000EA0
:100AD00058F820104FEA31405FFA8EF358F823108F
:100AE000330E58F823305A404240286992EA316266
:100AF0003102090E424058F8213038044FEA3321C0
:100B0000000E58F820304FEA3340E3B258F823B0D3
:100B10004FEA3B634FEA1E6B58F82BB081EA0B019A
:100B20004140686959404FEA0E2341401B0E58F876
:100B300023004FEA30233004000E58F820B04FEA6B
:100B40003B4BCDF804B0F8B258F820B04FEA3B6008
:100B50004FEA146B58F82BB083EA0B03DDF804B0AE
:100B60008BEA030343402402A869240E58F824406A
:100B700043404FEA34204FEA0E443F0E4FEA146ED2
:100B800058F8277058F82EE0F6B258F8264047403B
:100B900087EA3E47E86997EA3467009C4740380493
:100BA0004FEA106E1002000E641E00943E0E0C04FC
:100BB0000196240E1E020394360E04961C0E160493
:100BC0000594360E0C020796240E160ED2B2089427
:100BD00009900C0E1804000E0A9002923802000EC2
:100BE0000B90FFB20697DBB200982A680028C9B2C2
:100BF0007FF40FAFDFF8AC9019F806000B9E19F8E0
:100C00000660DDF828A00C9F360446EA006019F85B
:100C10000A6040EA062619F80100304342403A6073
:100C2000099819F8002019F8041019F80E00120498
:100C300042EA016219F8031042EA002268680A4396
:100C400042407A60059919F80100089919F80120C5
:100C5000069B120442EA0062079819F80010A8687F
:100C600042EA012219F803100A434240BA6001998E
:100C700019F80100049919F80120029B120442EAB4
:100C80000062039819F8001019F8030042EA0122E3
:100C9000E96802434A40FA600DB0BDE8F08F00BF3A
:100CA00088350008883A00082DE9F042154600F121
:100CB0000C0400F099F8ED08E81C40000228C0F090
:100CC0008C806D00681D464ADFF8183154F8107F9B
:100CD0003902090E3E0412F801C053F82C10360EEA
:100CE0004FEA312C12F806E053F82E10FEB24FEA0C
:100CF000314E965D53F826103F0E4FEA3166D75DB0
:100D000053F827108CEA01018EEA0101714021603D
:100D100067683902090E12F801E053F82E603904B1
:100D2000090E4FEA362C12F8019053F829604FEA69
:100D3000364EFEB23F0ED75D12F8069053F82710DC
:100D400053F829608CEA01018EEA010191EA3661CB
:100D50006160A7683902090E12F801E053F82E60AD
:100D60003904090E4FEA362C12F8019053F8296025
:100D70004FEA364EFEB23F0ED75D12F8069053F89A
:100D8000271053F829608CEA01018EEA010191EAEB
:100D90003661A160E7683902090E12F801E053F8E4
:100DA0002E603904090E4FEA362512F801E053F897
:100DB0002E60F9B23F0E12F801C053F82C10D75D27
:100DC0004FEA316C53F827104D4085EA36458CEADE
:100DD0000505401EE5607FF479AFBDE8F08200BFF5
:100DE00088390008883500082DE9F04100F10C052C
:100DF000002492083D4B002005E051F8206036BAEF
:100E000045F82060401C9042F7D305EB8208384F2C
:100E100058F8040CD5F800C006040102360E090E7D
:100E2000BE5D795C360446EA0166C1B2000E795CAB
:100E300046EA0126395C41EA06002E4E80EA0C01A2
:100E400056F82400484045F82200641C01202E1F5B
:100E5000811856F8216055F820C08CEA0606401C1F
:100E600045F821600428F2D3042A04D0062A0BD0C6
:100E7000082A14D037E00A2C04D2B3F5803F01D001
:100E80004546C2E7BDE8F081072CFBD86F6A2869A8
:100E90004740AF62686980EA0701E962EDE7072C25
:100EA000F0D2E86A2969060E17F806E00602360E47
:100EB000BE5D360446EA0E6C06044FEA166EC0B2FA
:100EC00017F80E60385C4CEA06263043414029632F
:100ED000052005EB8001CF690E68401C774007288C
:100EE0000F62F6D9C9E74FF00113C9E7040001000A
:100EF0008839000814350008844641EA000313F0DD
:100F0000030349D1403A23D30B6803604B68436025
:100F10008B688360CB68C3600B6903614B69436175
:100F20008B698361CB69C3610B6A03624B6A43625D
:100F30008B6A8362CB6AC3620B6B03634B6B436345
:100F40008B6B8363CB6BC36340304031403ADBD261
:100F500030320BD30B6803604B6843608B6883604F
:100F6000CB68C36010301031103AF3D20C3205D385
:100F700051F8043B40F8043B043AF9D2043208D05B
:100F8000D2071CBF11F8013B00F8013B01D30B88CD
:100F900003806046704700BF082A13D38B07B1D087
:100FA00010F00303AED0C3F10403D21ADB071CBF59
:100FB00011F8013B00F8013BA4D331F8023B20F8C3
:100FC000023B9FE7043AD9D3013A11F8013B00F8FC
:100FD000013BF9D20B7803704B7843708B788370A8
:100FE0006046704702F008BA10B548B141B14AB145
:100FF0000023C45CCC5401339A42FAD1002010BDC6
:101000000220FCE70720FAE7034641B14AB102811A
:101010000160012200201A73586058817047042033
:1010200070470520704710B50446D1B1C8B1037BA5
:10103000CBB98388006801221844FFF7D5FFA0B917
:101040006389013B9BB2638113B90123237310BDF4
:101050002289A388013A934216BF0133A080A3805E
:10106000F5E70420F3E70320F1E70820EFE770B588
:1010700005460C4661B158B1468900200E44B44281
:1010800000D170BD21462846FFF7CDFF0134F6E7B9
:101090000420F6E730B1002301224360027343814C
:1010A000184670470420704740B139B1038942891E
:1010B00000209A1A534253410B7070470420704726
:1010C000002373B504460E468DF8073011B308B3FC
:1010D0000DF10701FFF7E8FFD0B99DF80730012BAC
:1010E0001AD0237BE588012B1FBF23890135B5FB6F
:1010F000F3F203FB12552168EDB201223046294478
:10110000FFF772FF50B96389E58001336381207373
:1011100002B070BD0420FBE70220F9E70820F7E7E2
:1011200020B119B1438900200B807047042070471B
:1011300030B129B10389428900209B1A0B80704786
:1011400004207047F7B50024064615460F46ADF853
:10115000064099B190B19AB10DF10601FFF7E8FF91
:10116000BDF80630AB420DD3391901343046E4B234
:10117000FFF7A6FFAC42F7D303B0F0BD0420FBE7B6
:101180000520F9E70620F7E7FEE700000748084AD0
:1011900008B50849121AFFF7AFFE0748074A0021B1
:1011A000121A02F029F902F0B5F8FEE70400002057
:1011B0001C000020903B00082000002004040020B8
:1011C0002DE9F043102489B0224600210DEB0400E4
:1011D00002F012F9254BDFF898909A69254D2243C9
:1011E0009A619A69484622400092009A9A694FF49F
:1011F000005142F020029A619A694FF0010802F012
:1012000020020192019A9A69002742F004029A6131
:101210009A69022602F004020292029A9A6942F046
:1012200008029A619B69012203F008030393039B60
:1012300000F0B8FD00222146284600F0B3FD4FF42F
:10124000005348460DEB0401CDE90438CDE906769C
:1012500000F0D4FC28460DEB0401CDE90448CDE9AB
:10126000067600F0CBFC09B0BDE8F0830010024028
:10127000001001400008014008B54FF4E1330A486E
:101280000A4AC0E9002300230C22C0E90233C0E966
:1012900005230361C36101F0FBF818B1BDE8084004
:1012A00002F0A8B808BD00BF6C0000200044004058
:1012B00010B504468AB01022002106A802F09CF85E
:1012C00023684B4A934231D14A4B4FF400709A69DC
:1012D00006A942F480429A619A69002402F480428D
:1012E0000092009A9A6942F004029A619B6903F0A5
:1012F00004030193019B0223CDE9060303233E4827
:10130000099300F07BFC4FF480633B4806A9CDE9CC
:101310000634089400F072FC25202246214600F095
:10132000C7FD252000F0F4FD0AB010BD334A9342FA
:101330002CD1304B0421DA692F4842F40032DA61B3
:10134000DA69002402F400320292029A9A6942F0A9
:1013500004029A619B6903F004030393039B022335
:10136000CDE90613032306A9099300F047FC0823DF
:10137000214806A9CDE90634089400F03FFC262058
:101380002246214600F094FD2620CBE71C4A9342DA
:10139000CAD1184B1B48DA6906A942F48022DA61E7
:1013A000DA69002402F480220492049A9A6942F0D5
:1013B00008029A619B694FF4806203F00803059369
:1013C000059B0223CDE906230323099300F016FCB5
:1013D0004FF400630B4806A9CDE90634089400F0E9
:1013E0000DFC27202246214600F062FD272099E7C8
:1013F0000038014000100240000801400044004055
:1014000000480040000C014008B50548054B03604A
:1014100001F060FA18B1BDE8084001F0EBBF08BD6B
:10142000FC000020003002400268084B82B09A4263
:101430000AD1A3F500535A6942F040025A615B6930
:1014400003F040030193019B02B07047003002405B
:101450000268044B9A4201BF034A536923F04003D8
:101460005361704700300240001002400E4B82B0C2
:101470009A6942F001029A619A6902F001020092AF
:10148000009ADA6942F08052DA61DB69074A03F0B8
:1014900080530193019B536823F0E06343F0007392
:1014A000536002B0704700BF0010024000000140CE
:1014B0001E4B70B59A6988B042F400629A619B69CC
:1014C00001A903F400630293064603A8184D029B8A
:1014D00000F0FCFA00F0EAFA164B2B6040F2E7331A
:1014E000EB60154BB0FBF3F0002301386860284631
:1014F0002B61AB60AB6100F035FF044680B9284634
:1015000000F03CFE044658B9192000F001FD0F2EF2
:1015100009D822463146192000F0CAFC074B1E604C
:10152000204608B070BD0124FAE700BF0010024059
:1015300004010020002C014040420F000C0000205C
:101540007047000010B54FF0FF320024044B1A61C1
:101550001C61DA60DC60FFF7F3FF204610BD00BFBE
:1015600000100240074A08B51368032043F0100337
:10157000136000F08BFC0F20FFF79AFFFFF776FF58
:10158000002008BD00200240034A044B11681B786C
:101590000B441360704700BF4C010020080000207E
:1015A000014B1868704700BF4C01002038B5044655
:1015B000FFF7F6FF0546631C1EBF044B1B78E418BB
:1015C000FFF7EEFF431BA342FAD338BD080000200B
:1015D0002DE9F341054638B30368DB0710D42B68C7
:1015E0009F075ED42B68190700F195802B685A0776
:1015F00000F1C180EB69002B40F02C81002029E034
:10160000904C636803F00C03042B07D0636803F06D
:101610000C03082B0AD16368DE0307D523689C03FB
:10162000DDD56B68002BDAD1012013E06B68B3F5D0
:10163000803F12D1236843F480332360FFF7B0FF6B
:10164000064623689803CAD4FFF7AAFF801B6428C4
:10165000F7D9032002B0BDE8F0819BB9236823F4D9
:1016600080332360236823F480232360FFF798FFEF
:10167000064623689903B2D5FFF792FF801B6428C2
:10168000F7D9E6E7B3F5A02F236803D143F480230D
:101690002360CFE723F480332360236823F480237F
:1016A000CBE7684C636813F00C0F07D0636803F056
:1016B0000C03082B10D16368DA030DD423689B0751
:1016C00002D52B69012BAFD123686A6923F0F80397
:1016D00043EAC203236085E72A695B4B6AB10122B2
:1016E0001A60FFF75DFF064623689F07ECD4FFF7FB
:1016F00057FF801B0228F7D9ABE71A60FFF750FFAE
:101700000646236898077FF56DAFFFF749FF801BFA
:101710000228F6D99DE7AA694A4E4B4BE2B1012255
:10172000C3F88024FFF73CFF0446736A9B070DD57E
:101730004FF4FA52454B1B68B3FBF2F3019300BF21
:10174000019B5A1E0192002BF9D14FE7FFF728FFAA
:10175000001B0228E9D97CE7C3F88024FFF720FFAB
:101760000446736A9F077FF541AFFFF719FF001B1F
:101770000228F6D96DE7334CE369D80024D4012759
:10178000E36943F08053E361E36903F0805300931E
:10179000009B2F4E3368D90518D5EB68012B26D155
:1017A000236A43F001032362FFF7FAFE41F288380F
:1017B0000646236A9B073FD5002F3FF41BAFE36922
:1017C00023F08053E36115E70027E2E7336843F431
:1017D00080733360FFF7E4FE80463368DA05DCD4BB
:1017E000FFF7DEFEA0EB08006428F6D931E7ABB9BD
:1017F000236A41F2883823F001032362236A23F02D
:1018000004032362FFF7CCFE0646236A9807D3D56C
:10181000FFF7C6FE801B4045F7D91AE7052B236A60
:1018200003D143F004032362BAE723F001032362E8
:10183000236A23F00403B6E7FFF7B2FE801B40459E
:10184000B7D906E700100240000042420400002021
:10185000007000402A4C626802F00C02082A3ED058
:101860000022022B274B1A662CD1FFF799FE064661
:101870002368990120D42B6AB3F5803F05D16268B3
:10188000A96822F400320A436260696A62680B4305
:1018900022F474121343012263601A4B1A66FFF795
:1018A0007FFE054623689A013FF5A8AEFFF778FE54
:1018B000401B0228F6D9CCE6FFF772FE801B0228F7
:1018C000D6D9C6E6FFF76CFE054623689B017FF577
:1018D00095AEFFF765FE401B0228F6D9B9E6012B4D
:1018E0003FF4A2AE60682B6A00F480329A427FF423
:1018F0009BAE6B6A00F47010C01A18BF0120A9E6F5
:1019000000100240000042420D4A536803F00C01EF
:10191000082912D10B48C3F38341DB03405C09D58E
:101920005368094AC3F340435043084AD35CB0FBB1
:10193000F3F07047064B584370470348704700BFA9
:10194000001002405635000800127A005435000895
:1019500000093D002DE9F0410D46044610B9012073
:10196000BDE8F081444A136803F007038B4228D393
:1019700021688E0730D4CA0743D43F4A136803F066
:101980000703AB4265D822683C4D12F0040F6CD1BE
:10199000130706D56B68226923F4605343EAC20338
:1019A0006B60FFF7B1FF6B68354AC3F30313D35C79
:1019B000D840344B1860344B1868FFF779FD00208D
:1019C000CEE7136823F007030B431360136803F09B
:1019D00007038B42C3D1CBE7284B11F0040F1EBF86
:1019E0005A6842F4E0625A60080742BF5A6842F4FB
:1019F00060525A605A68A06822F0F00202435A60AE
:101A0000B9E762681D4E012A33681AD113F4003F0A
:101A1000A5D0736841F2883823F003031343736041
:101A2000FFF7BEFD07467368626803F00C03B3EB73
:101A3000820FA2D0FFF7B4FDC01B4045F3D90320AD
:101A40008EE7022A02D113F0007FE1E713F0020FC4
:101A5000DEE7136823F007032B431360136803F0DA
:101A60000703AB427FF47BAF8DE76B68E16823F43B
:101A7000E0630B436B608BE70020024000100240E4
:101A800044350008040000200C000020044B054AE7
:101A90005B68C3F30223D35C034A1068D8407047E5
:101AA000001002403C35000804000020044B054AA9
:101AB0005B68C3F3C223D35C034A1068D840704705
:101AC000001002403C350008040000200F23036092
:101AD0000B4B5A6802F0030242605A6802F0F002AF
:101AE00082605A6802F4E062C2605B68DB0803F45B
:101AF000E0630361034B1B6803F007030B6070474F
:101B0000001002400020024003682DE9F341054621
:101B1000D80721D5364CE369D9002BD40126E369D7
:101B200043F08053E361E36903F080530193019B29
:101B3000304F3B68DA051FD5236A6A6813F4407397
:101B40002ED1236A6A6823F44073134323621EB1C3
:101B5000E36923F08053E3612A68910706D524499D
:101B6000A8684B6823F4404303434B60D30636D444
:101B7000002012E00026DBE73B6843F480733B6003
:101B8000FFF70EFD80463B68DB05D5D4FFF708FD67
:101B9000A0EB08006428F6D9032002B0BDE8F0816C
:101BA00002F440729A42CCD00120134A236AC2F850
:101BB0004004002023F44071DF07C2F84004216292
:101BC000BFD5FFF7EDFC41F288380746236A980736
:101BD000B7D4FFF7E5FCC01B4045F7D9DCE7044A62
:101BE000E968536823F480030B435360C0E700BFE8
:101BF0000010024000700040000042422DE9F74F03
:101C000000244FF00F0E2646DFF884C1614B00F12F
:101C100004080A6832FA06F502D103B0BDE8F08F75
:101C2000012505FA06F702EA070537EA020276D12E
:101C30004A68032A07D8013A022A00F28380DFE8C3
:101C400002F091969C00122A00F0948069D8112A23
:101C500000F08A80FF2D94BF8146C1464FEA86027C
:101C6000D9F8007088BF203A0EFA02FA27EA0A076C
:101C700004FA02F21743C9F80070D1F8049019F081
:101C8000805F4CD0DCF8182026F0030742F00102F8
:101C9000CCF81820DCF8182007F1804702F0010288
:101CA000019207F5803706F0030A019A4FEA8A0A83
:101CB000BA680EFA0AFB22EA0B0B374A904260D050
:101CC00002F5806290425ED002F5806290425CD064
:101CD00002F58062904214BF0422032202FA0AF243
:101CE00042EA0B02BA609A6819F4801F14BF2A43B3
:101CF000AA439A60DA6819F4001F14BF2A43AA4362
:101D0000DA605A6819F4003F14BF2A43AA435A60A4
:101D10001A6819F4803F14BF2A43AA431A60013697
:101D200077E7DFF878904A450CD014D8A9F58019E8
:101D30004A4507D009F570294A4503D0A9F580190D
:101D40004A4587D18A68D2B1012A4FF008040CBFF6
:101D5000076147617EE7DFF848904A45F2D009F510
:101D60008039EDE7CC6875E7CC68043472E7CC685D
:101D700008346FE7CC680C346CE700246AE704246D
:101D800068E70022AAE70122A8E70222A6E700BF2F
:101D90000010024000040140000801400000221031
:101DA000000031100AB1016170470904FBE7C36804
:101DB00001EA030221EA030141EA0241016170479D
:101DC00090F821200346022A06D0042282630120D3
:101DD000002283F8202070470268C06B116821F050
:101DE0000E011160116821F00101116001211A6CCE
:101DF00001FA02F24260002083F82110E8E70000B7
:101E000008B590F82130022B03D00423836301200E
:101E100008BD03681A6822F00E021A601A6822F0E0
:101E200001021A60174A93421FD0143293421ED007
:101E3000143293421DD0143293421DD01432934277
:101E40001DD01432934214BF4FF080734FF48013AF
:101E50000D4A5360012380F82130002380F82030A0
:101E6000436B03B198470020D2E70123F0E710232A
:101E7000EEE74FF48073EBE74FF48053E8E74FF45D
:101E80008033E5E7080002400000024007490302F2
:101E9000CA6803F4E06322F4E0621204120C1343F4
:101EA00043F0BF6343F40033CB60704700ED00E0C4
:101EB000154B30B5DC68C4F30224C4F10703251DBB
:101EC000042B28BF0423062D4FF0FF3594BF0024B8
:101ED000033C05FA03F321EA0303A54022EA0502C5
:101EE000A340002843EA0203ACBF00F16040074A68
:101EF0004FEA0313DBB2ABBF00F5614000F00F0007
:101F000080F80033135430BD00ED00E014ED00E024
:101F1000002807DB01234109034A00F01F0083402A
:101F200042F82130704700BF00E100E0114AD36859
:101F300013F0100305D01049CB6943F00203CB61C5
:101F40001023D268500706D50B4943F00403CA6931
:101F500042F00102CA61074AD169C90708D506489B
:101F6000C16941F00401C161D16921F00101D16170
:101F7000D36070470020024050010020064B1869D2
:101F800010F0800007D0054A5A6002F188325A608A
:101F90001869C0F3C0107047002002402301674554
:101FA000034A0020136943F080031361704700BFA8
:101FB0000020024070B50546FFF7F2FA0646114CC4
:101FC000E368D80712D4E368990644BF2023E3608E
:101FD000E368DA0606D4E369DB0703D4E06810F0AF
:101FE000040007D0FFF7A2FF012003E06B1CE7D03D
:101FF0000DB9032070BDFFF7D3FA801BA842DFD9CB
:10200000F7E700BF002002402DE9F84FDFF894A069
:102010001F469AF818300546012B884691463FD056
:1020200001234CF250308AF81830FFF7C3FF90BB01
:10203000012D03D0022D14BF0425022500263346AE
:10204000DFF864B03401C4F12001A4F1200207FAE2
:1020500001F129FA04F4CAF81C300C4327FA02F201
:102060001443DBF81020A4B242F00102CBF8102098
:102070004CF2503028F81640FFF79CFFDBF8102098
:1020800022F00102CBF8102028B90136F2B29542B5
:102090004FF00003D6D800238AF81830BDE8F88F37
:1020A0000220FBE750010020002002400022064BE6
:1020B000DA61064B1A6942F002021A6158611A6924
:1020C00042F040021A617047500100200020024097
:1020D0002DE9F041264F05463B7E8846012B44D032
:1020E00001243C7603684CF25030022B1AD1FFF7E2
:1020F00061FF20B1012000233B76BDE8F0811D4C3B
:10210000F86123694CF2503043F0040323612369E2
:1021100043F040032361FFF74DFF236923F00403DD
:102120002361E8E7FFF746FF0028E3D14FF0FF33D4
:10213000C8F800302046AE680E4CD5E9023203EBF9
:102140008223B342D7D93046FFF7B0FF4CF250306C
:10215000FFF730FF236923F00203236110B1C8F8B1
:102160000060C8E706F58066E7E70220C5E700BF24
:1021700050010020002002407047000090F83D30E0
:10218000012B20D1022380F83D300368DA6842F049
:102190000102DA600D4A93420AD0B3F1804F07D0B2
:1021A000A2F59432934203D002F58062934204D1A7
:1021B0009A6802F00702062A03D01A6842F0010268
:1021C0001A60002070470120704700BF002C0140BA
:1021D0007047704770477047036870B5DD681E69C7
:1021E0000446B1070DD5AA070BD56FF002021A619C
:1021F000012202779B699B0769D0FFF7EAFF002362
:102200002377710710D56A070ED56FF00402236893
:1022100020461A61022222779B6913F4407F5CD02A
:10222000FFF7D7FF0023237733070FD528070DD5F6
:102230006FF00802236820461A6104222277DB69C6
:10224000990750D0FFF7C5FF00232377F20610D57A
:10225000EB060ED56FF01002236820461A610822A3
:102260002277DB6913F4407F43D0FFF7B2FF0023EE
:102270002377F00708D5E90706D56FF00102236838
:1022800020461A6101F0ACF8320608D52B0606D5B7
:102290006FF08002236820461A6100F090F8700603
:1022A00008D5690606D56FF04002236820461A61FA
:1022B000FFF791FFB20622D5AB0620D56FF02002C2
:1022C00023682046BDE870401A6100F077B8FFF738
:1022D0007FFF2046FFF77EFF91E7FFF779FF20465B
:1022E000FFF778FF9EE7FFF773FF2046FFF772FFC7
:1022F000AAE7FFF76DFF2046FFF76CFFB7E770BD59
:10230000174A036890420AD0B0F1804F07D0A2F577
:102310009432904203D002F58062904207D14A681D
:1023200023F070031343CA6823F4407313434A69CC
:1023300023F08003134303608B68C3620B688362DE
:10234000074B984204BF0B69036301234361036990
:10235000DB0742BF036923F001030361704700BF3D
:10236000002C014010B5044630B390F83D3003F026
:10237000FF021BB980F83C20FFF7FEFE0223206815
:1023800084F83D30211DFFF7BBFF0123002084F8B6
:10239000463084F83E3084F83F3084F8403084F88A
:1023A000413084F8423084F8433084F8443084F873
:1023B000453084F83D3010BD0120FCE77047704780
:1023C000026802F10C0353E8003F23F490730C32CF
:1023D00042E8003102680029F2D102F1140353E807
:1023E000003F23F0010302F1140C4CE800310029F6
:1023F000F3D1036B012B0BD102F10C0353E8003F27
:1024000023F0100302F10C0C4CE800310029F3D149
:10241000202380F8423000230363704710B5044640
:102420000368C1681A6922F440520A431A6182683B
:102430000069D9680243606921F4B05121F00C01B0
:1024400002430A43DA605A69A16922F440720A43DE
:102450005A610E4A934215D1FFF728FB19234343D3
:10246000626820689200B3FBF2F36422B3FBF2F1DE
:1024700002FB11331B013233B3FBF2F303EB011305
:10248000836010BDFFF702FBE8E700BF00380140A2
:1024900010B5044648B390F8413003F0FF021BB971
:1024A00080F84020FEF704FF2423226884F841309E
:1024B000D368204623F40053D360FFF7AFFF2368AF
:1024C00000201A6922F490421A615A6922F02A0205
:1024D0005A61DA6842F40052DA602023606484F8BA
:1024E000413084F84230606310BD0120FCE790F871
:1024F0004130202B10D189B182B1C2848284002363
:10250000212201620168436480F84120CA681846AC
:1025100042F08002CA607047022070470120704775
:102520007047704708B50023406AC385C384FFF72E
:10253000F8FF08BD704790F8423007B5222B42D112
:1025400081680268B1F5805F836A3FD10169002923
:102550003FD15268C2F3080223F8022B8362C38D75
:10256000013B9BB2C385002B2DD10268D16821F0BD
:102570002001D160D16821F48071D160516921F0CE
:1025800001015161202280F842204363026B012A3D
:10259000026828D1036302F10C0353E8003F23F0E3
:1025A000100302F10C0C4CE800310029F3D1136840
:1025B000DB0605D501911368019353680193019BD4
:1025C000818DFFF7B7FF03B05DF804FB39B90169EE
:1025D00029B95268D2B21A70836A0133BEE75268D1
:1025E00002F07F02F7E700F091FAECE7036873B5B9
:1025F0001A6804461607D9685D6908D1960668D539
:102600008D0666D502B0BDE87040FFF794BF05F0B7
:10261000010001F4907505435BD0D60705D5CD05C3
:1026200042BF636C43F001036364530704D518B1E0
:10263000636C43F002036364960704D518B1636CBE
:1026400043F004036364150707D501F02003034337
:102650001EBF636C43F008036364636C002B32D0CD
:10266000920604D58B0602D52046FFF764FF266844
:1026700020467369626C03F0400302F0080253EADB
:10268000020522D0FFF79CFE73695E0618D522680A
:1026900002F1140353E8003F23F04003143242E8F0
:1026A00000310029F3D1E06B50B1744B4363FFF765
:1026B000A7FB40B1E06B436B02B0BDE87040184728
:1026C0002046FFF72EFF02B070BDFFF72AFF6564BA
:1026D000F9E7206B012840F09480D50640F1918005
:1026E000C80640F18E80002201921A6801925A6851
:1026F0000192019A5A6952064DD5E16B0A685268F7
:1027000092B2002ADFD0A08D9042DCD9E2858A699E
:10271000202A36D003F10C0252E8002F22F48072F6
:1027200003F10C0040E800210029F3D103F1140269
:1027300052E8002F22F0010203F1140040E80021CA
:102740000029F3D103F1140252E8002F22F04002D5
:1027500003F1140040E800210029F3D1202284F87D
:102760004220216303F10C0252E8002F22F01002F4
:1027700003F10C0040E800210029F3D1E06BFFF7E2
:102780001FFB02236363E38DA18DC91A89B2204622
:10279000FFF7D0FE97E7E28DE08DA18D80B292B277
:1027A000002890D0891A89B200298CD003F10C023C
:1027B00052E8002F22F4907203F10C0545E8002046
:1027C0000028F3D103F1140252E8002F22F0010295
:1027D00003F1140545E800200028F3D1202284F8F5
:1027E0004220206303F10C0252E8002F22F0100275
:1027F00003F10C0545E800200028F3D102236363B0
:10280000C5E7160628D50D0626D594F84120212ABD
:102810007FF459AFA168226AB1F5805F17D12169B1
:10282000A9B932F8021BC1F3080159602262E28C97
:10283000013A92B2E284002A7FF445AFDA6822F0CE
:102840008002DA60DA6842F04002DA603BE7511C4D
:10285000216212785A60EAE750067FF534AF4A06E3
:102860007FF531AFDA68204622F04002DA6020239B
:1028700084F84130FFF754FE25E700BF2525000806
:102880000023C285436422238285026980F8423096
:10289000816203681AB1DA6842F48072DA605A69B8
:1028A000002042F001025A61DA6842F02002DA6048
:1028B000704770B490F84260202E06D141B13AB111
:1028C0000024046370BCFFF7DBBF022070BC7047BC
:1028D0000120FBE710B5044650B1437903F0FF0235
:1028E00013B90271FEF7A0FD01230020637110BD32
:1028F0000120FCE738B5054690B14379022BDCB2E4
:102900000CD002230024437103689A6842F001024C
:102910009A601C71FEF79CFD6C712C71204638BDCD
:102920000124FBE70346022010B55871186801EB3B
:102930008202914203D1012200685A7110BD51F800
:10294000044B0460F5E70000012810B5044613D0DD
:1029500002281FD060BB0A2216491748FEF754FB15
:102960000A2216491648FEF74FFB01221549164860
:10297000BDE81040FFF79DBF0A2214491448FEF736
:1029800043FB0A2213491448FEF73EFB2246134933
:102990001348EDE70A2213491348FEF735FBFF22DF
:1029A00012491348FEF730FB012212491248DFE7B3
:1029B00010BD00BFDA020020F4020020D002002087
:1029C000E402002072010020B4000020A6020020D2
:1029D000C00200209C020020B002002071010020F3
:1029E0006C000020720200208C0200207301002085
:1029F0007C0200207001002024000020032838B54C
:102A00000C46154627D8012811D0022818D000BB43
:102A10001248FFF76CFD02281BD12A4621461048B8
:102A2000FEF790FB06280CBF0920032038BD0D4897
:102A3000FFF75DFD02280CD12A4621460A48EFE740
:102A40000A48FFF754FD022803D12A4621460848C8
:102A5000E6E70020EAE70520E8E700BFB400002031
:102A6000F40200206C000020C0020020240000209E
:102A70008C020020032870B50D4616461C463BD834
:102A800001281DD0022829D0002837D119461C481A
:102A9000FEF746FB08B1012070BD2378B3420AD887
:102AA0000BB90820F8E729461548FEF7E0FA003888
:102AB00018BF0120F0E71248FEF7ECFA0620EBE71A
:102AC00019461048FEF72CFB0028E4D12378B342C6
:102AD000F1D8002BE5D029460A48E6E719460A480E
:102AE000FEF71EFB0028D6D12378B342E3D8002B93
:102AF000D7D029460448D8E70520CDE70020CBE70A
:102B0000E4020020B00200207C0200200268154B85
:102B100010B59A42044608D1134901221348FFF721
:102B2000C8FE11491248FEF7CBFA2268114B9A42AF
:102B300008D1114901221148FFF7BBFE0E49104888
:102B4000FEF7BEFA22680F4B9A420AD10E490122C3
:102B50000E48FFF7AEFEBDE810400B490C48FEF7EB
:102B6000AFBA10BD0038014072010020B40000204F
:102B7000E402002000440040710100206C000020AD
:102B8000B002002000480040700100202400002016
:102B90007C020020FEE7FEE7FEE7FEE7FEE7704767
:102BA0000148FFF719BB00BF040100200148FFF7EF
:102BB0001DBD00BF6C000020054B06490648D3F838
:102BC00004248860D3F8003483F30888104700BFDA
:102BD0000050000800ED00E00054000810B5194C4A
:102BE000237813B1012B28D010BD4FF6FB42164BB2
:102BF0001968914208D14FF6FA221A603A22134B13
:102C00001A7001232370EFE7114B124AD3F8FC1F0F
:102C100091420FD1D3F8F82F0F4B9A420AD10F48A7
:102C200000F0A4F8012805D1FEF78CFCBDE81040A7
:102C3000FFF7C2BF0022054BE2E7BDE8104000F0FD
:102C4000CBB800BF040300200000002030030020A8
:102C500000F00008BDBDCDCDFAABFAAB00540008C2
:102C6000BFF34F8F0549064BCA6802F4E062134375
:102C7000CB60BFF34F8F00BFFDE700BF00ED00E06A
:102C80000400FA0538B50C460546FFF777F94FF012
:102C9000FF32002308490220FFF7B6F9FFF780F959
:102CA000FFF76CF92A46002321460220FFF7ACF912
:102CB000BDE83840FFF774B9F8FF00087FB5FFF7AB
:102CC0005DF90028FBD12C23074A029001A902A834
:102CD000CDE90423FFF7FCF9FFF762F90028FBD1E7
:102CE00007B05DF804FB00BF005000080A2307B5D9
:102CF00040308DF804008DF8051001A803218DF8EF
:102D0000063000F03DFA03B05DF804FB2DE9F8430E
:102D1000074600240125134E06F1090806F10809AB
:102D20003279E3B29A4204EB070102D82846BDE8A3
:102D3000F88318F8030019F80320043442EA00224B
:102D4000094810F803C00130C35C42EA0C4242EA71
:102D5000036202200023FFF757F9002818BF00255F
:102D6000DEE700BF320300203C030020F7B500245B
:102D7000054616480194FFF7BDFD1448FFF7AAFD6C
:102D8000134B144E1B681BBA5A1EB2F52C4FB3607E
:102D90001AD24FF0FF3023F003030C4FEC18A5427A
:102DA00008D10B4B5C6824BA231A5842346158414D
:102DB00003B0F0BD55F8043B01221BBA384601A907
:102DC0000193FFF7AFFDEAE72046F1E7FC000020A2
:102DD00000500008140300202DE9F843A34C22788A
:102DE000002A00F033813A2A1ED13B230021A0485B
:102DF00032222370FEF7F6F801211020FFF776FF4C
:102E00009C4F3D78002D40F02E81994E2946307818
:102E1000FFF76CFF032325703B7029463046BDE861
:102E2000F8433222FEF7DEB8914B3B2A1D782AD1B7
:102E3000342D40F0FA80904A12789A5C0A2ADFD149
:102E400000210A46043313F8010F0131042940EA36
:102E50000222F8D1894BDA60894B9A4200F29480C1
:102E60000122844B1A70FFF729FFFFF787F801460C
:102E70000028FAD17E483222FEF7B4F83C23012123
:102E800034202370BAE73C2A40F0A880362D40F069
:102E9000CC80794A12789A5C0A2AB1D1194611F885
:102EA00007CF4FF0000E88465A785E79951E0A3A91
:102EB000D0B21A799F7932443A44EDB262445FFA53
:102EC0008EF9814516D3585D5242D2B290425BD101
:102ED000BCF1050F94D801A252F82CF0432F000842
:102EE000CF2F0008012E0008012E0008012F000836
:102EF000592F000818F8019F0EF1010E4A44DEE731
:102F00001B89604D5ABA202B2A800DD10121362011
:102F1000FFF7ECFE2B885C4A1B0413603222002171
:102F20005348FEF75FF86BE7082B2DD14FF0006296
:102F3000554B1A6001214F4B19703620FFF7D6FE12
:102F4000ECE7514D28686FF30F00384340EA062044
:102F5000B0F1005F286001D10121EEE74B4B9842B0
:102F600016D10022134611F8010F0132042A40EA5B
:102F70000323F8D1414AB3F52C4F936004D843485A
:102F8000FFF7C4FE0128D5D000223A4B1A7037E76C
:102F90003F4B9842F4D03F4B9842F1D03E4E3368BD
:102FA0009842F1D0FFF7B2FE01280146314B0BD118
:102FB00018703620FFF79AFE322200212C48FEF7C7
:102FC00011F82B6833601BE700221A70F9E7012122
:102FD0003620FFF78BFE3D2323709FE73D2A24D147
:102FE000372D22D1244A12789B5C0A2B7FF408AF3C
:102FF000FEF7D6FF0028FBD12848FFF7B7FE0128CF
:103000000646C1D126492748FFF73CFE26492748F6
:10301000FFF738FE31463720FFF768FE32220021E5
:103020001348FDF7DFFFFFF71BFE392D7FF4E8AEF5
:10303000114A12789B5C0A2B7FF4E2AE01240D4BFF
:103040001C70FFF73BFE21462846E5E7084B1A783F
:10305000102A7FF4D5AE084A12789B5C0A2B04BF75
:103060003A232370CCE6BDE8F88300BF300300208C
:103070003203002010000020310300201403002040
:103080007011010010030020080300200050000808
:1030900004500008085000080C03002000540008E9
:1030A000FCFF0008BDBDCDCDF8FF0008FAABFAABC0
:1030B0000120FFF749BC0000F0B585B00A220120CD
:1030C0000DF1030301A9FFF7D5FC082823D0002444
:1030D0002746164A9DF803001678154B01A95FFA9A
:1030E00084FC06EB0C056045EDB216D80FB13044F8
:1030F00010701978362916D1597861B10B4413F83C
:10310000013C0A2B07D10B4B0139197000231370B6
:103110000122094B1A7005B0F0BD11F8017B013492
:103120005F550127DBE71178E8E700BF6503002062
:1031300066030020640300209803002038B50D4B7F
:103140001C78012C14D10C4C014488420BD1002472
:103150000A49094809781170322221461C70FDF78E
:1031600041FF204638BD14F8015B00F8015BECE735
:103170000120F7E798030020660300206403002085
:103180000A4610B501460120FFF738FC044601202D
:10319000FEF70CFA204610BD20222DE9F04198B030
:1031A00004460D460DEB020000210DF1400800F031
:1031B00023F920220021404600F01EF9002308AE2A
:1031C000079304F12407231D324618685968083311
:1031D00003C2BB421646F7D107ABCDE903831023E8
:1031E000204A2148CDE900322022029300681F4B7B
:1031F0000DEB0201FDF72AF9B0F5803F23D19DF8D0
:103200004060631E771DFFB26A1E033413F8011F6E
:103210009C4202F8011FF9D13A464146281DFDF7AC
:103220006BFE06F10A036B700A2320223D442B71CA
:103230000F4B093600210DEB02001E70FDF7D2FE88
:1032400018B0BDE8F0810023ADF8183023780321D1
:1032500040338DF818300A2306A88DF81A30FFF78E
:103260008FFFEDE766350008D0340008763500089A
:103270003103002010B51422002494B021460DEB38
:1032800002000D940F9400F0B7F81022214601A817
:1032900000F0B2F84FF4803309220224CDE90A236A
:1032A0004FF40032CDE911430C924FF45013012238
:1032B0000AA80E9210921393FEF78AF908B172B61B
:1032C000FEE70F23CDE905344FF480630790CDE985
:1032D0000830214605A8FEF73DFB08B172B6FEE7AF
:1032E0004FF4004301A801940393FEF70DFC08B1CD
:1032F00072B6FEE714B010BD08B5FEF733F9FFF75C
:10330000B9FFFDF75DFFFDF7B7FFBDE80840FEF729
:103310007BB8000080B5FFF7EFFFFFF7C9FE4FF461
:1033200000512648FEF743FDDFF89480254E264FD6
:10333000FFF7C2FE424632213046FFF7FFFEDFF8BC
:103340008C900446387018BB214D322229463046F5
:10335000FDF74AFE322221463046FDF743FE2B7828
:10336000362B0AD128461B49FFF716FFFEF718F93E
:10337000C9F80000FFF732FCDAE732222846154987
:10338000FDF732FE322221462846FDF72BFEEDE7FF
:10339000FEF706F9D9F80030C01A0F4B1B689842A7
:1033A000E8D30E4C2378002BE4D0322200210948C8
:1033B000FDF718FE00232370DCE700BF001001407A
:1033C00031030020D2030020180000209C030020BD
:1033D000A00300203203002014000020300300204E
:1033E0000268034B9A4201D1FEF7CEB8704700BF86
:1033F000002C014072B6FEE770B5860747D0541E18
:10340000002A3ED00346CAB201E0013C39D303F89A
:10341000012B9D07F9D1032C2CD9CDB205EB052545
:103420000F2C1A4605EB054534D9A4F1100C2CF0ED
:103430000F0603F1100EB6444FEA1C1CC2E90055FA
:10344000C2E9025510327245F8D10CF1010214F0B4
:103450000C0F03EB021204F00F0C13D0ACF10403B9
:1034600023F003030433134442F8045B9342FBD17B
:103470000CF003042CB1C9B21C4403F8011BA34295
:10348000FBD170BD64461346002CF4D1F9E7034626
:103490001446C0E7A446E1E7FDF72EBD002200F088
:1034A00001B800BF13460A461946FFF7A5BF00BF83
:1034B000F8B500BFF8BC08BC9E467047F8B500BF21
:0834C000F8BC08BC9E467047F1
:1034C80039010008C5FFFFFFC834000829020008B9
:1034D80035020008410200084D02000819090008D9
:1034E8001F090008250900082B09000869020008BF
:1034F8003109000839090008FC7F003F0035011335
:10350800CD090008A90C00080835000800000001D2
:103518000000000200000004000000080000001085
:103528000000002000000040000000800000001B98
:103538000000003600000000010203040000000043
:103548000000000001020304060708090102020343
:103558000405060708090A0B0C0D0E0F10100001D0
:1035680002030405060708090A0B0C0D0E0F2B7E33
:10357800151628AED2A6ABF7158809CF4F3C000028
:1035880050A7F4515365417EC3A4171A965E273A93
:10359800CB6BAB3BF1459D1FAB58FAAC9303E34BA8
:1035A80055FA3020F66D76AD9176CC88254C02F52B
:1035B800FCD7E54FD7CB2AC5804435268FA362B503
:1035C800495AB1DE671BBA25980EEA45E1C0FE5D8F
:1035D80002752FC312F04C81A397468DC6F9D36BA1
:1035E800E75F8F03959C9215EB7A6DBFDA59529578
:1035F8002D83BED4D32174582969E04944C8C98EA3
:103608006A89C27578798EF46B3E5899DD71B9274D
:10361800B64FE1BE17AD88F066AC20C9B43ACE7D8E
:10362800184ADF6382311AE560335197457F536248
:10363800E07764B184AE6BBB1CA081FE942B08F9C3
:103648005868487019FD458F876CDE94B7F87B522F
:1036580023D373ABE2024B72578F1FE32AAB556635
:103668000728EBB203C2B52F9A7BC586A50837D3C6
:10367800F2872830B2A5BF23BA6A03025C8216ED2E
:103688002B1CCF8A92B479A7F0F207F3A1E2694E16
:10369800CDF4DA65D5BE05061F6234D18AFEA6C40C
:1036A8009D532E34A055F3A232E18A0575EBF6A49A
:1036B80039EC830BAAEF6040069F715E51106EBD16
:1036C800F98A213E3D06DD96AE053EDD46BDE64D56
:1036D800B58D5491055DC4716FD40604FF15506013
:1036E80024FB981997E9BDD6CC434089779ED967C2
:1036F800BD42E8B0888B8907385B19E7DBEEC879EB
:10370800470A7CA1E90F427CC91E84F8000000002A
:103718008386800948ED2B32AC70111E4E725A6CAC
:10372800FBFF0EFD5638850F1ED5AE3D27392D36C9
:1037380064D90F0A21A65C68D1545B9B3A2E3624C3
:10374800B1670A0C0FE75793D296EEB49E919B1B74
:103758004FC5C080A220DC61694B775A161A121C2B
:103768000ABA93E2E52AA0C043E0223C1D171B12C7
:103778000B0D090EADC78BF2B9A8B62DC8A91E143A
:103788008519F1574C0775AFBBDD99EEFD607FA336
:103798009F2601F7BCF5725CC53B6644347EFB5B33
:1037A8007629438BDCC623CB68FCEDB663F1E4B81D
:1037B800CADC31D710856342402297132011C68492
:1037C8007D244A85F83DBBD21132F9AE6DA129C7D7
:1037D8004B2F9E1DF330B2DCEC52860DD0E3C1773F
:1037E8006C16B32B99B970A9FA4894112264E94769
:1037F800C48CFCA81A3FF0A0D82C7D56EF90332239
:10380800C74E4987C1D138D9FEA2CA8C360BD49885
:10381800CF81F5A628DE7AA5268EB7DAA4BFAD3FFC
:10382800E49D3A2C0D9278509BCC5F6A62467E5498
:10383800C2138DF6E8B8D8905EF7392EF5AFC3827B
:10384800BE805D9F7C93D069A92DD56FB31225CF1B
:103858003B99ACC8A77D18106E639CE87BBB3BDB2B
:10386800097826CDF418596E01B79AECA89A4F83B7
:10387800656E95E67EE6FFAA08CFBC21E6E815EF5F
:10388800D99BE7BACE366F4AD4099FEAD67CB029CD
:10389800AFB2A43131233F2A3094A5C6C066A23501
:1038A80037BC4E74A6CA82FCB0D090E015D8A733B6
:1038B8004A9804F1F7DAEC410E50CD7F2FF69117B4
:1038C8008DD64D764DB0EF43544DAACCDF0496E427
:1038D800E3B5D19E1B886A4CB81F2CC17F51654641
:1038E80004EA5E9D5D358C01737487FA2E410BFBEB
:1038F8005A1D67B352D2DB92335610E91347D66D7F
:103908008C61D79A7A0CA1378E14F859893C13EB3D
:10391800EE27A9CE35C961B7EDE51CE13CB1477A80
:1039280059DFD29C3F73F25579CE1418BF37C7734D
:10393800EACDF7535BAAFD5F146F3DDF86DB447861
:1039480081F3AFCA3EC468B92C3424385F40A3C29F
:1039580072C31D160C25E2BC8B493C2841950DFF0E
:103968007101A839DEB30C089CE4B4D890C1566440
:103978006184CB7B70B632D5745C6C484257B8D042
:10398800637C777BF26B6FC53001672BFED7AB7614
:10399800CA82C97DFA5947F0ADD4A2AF9CA472C0BF
:1039A800B7FD9326363FF7CC34A5E5F171D831152C
:1039B80004C723C31896059A071280E2EB27B2754D
:1039C80009832C1A1B6E5AA0523BD6B329E32F84C5
:1039D80053D100ED20FCB15B6ACBBE394A4C58CFBD
:1039E800D0EFAAFB434D338545F9027F503C9FA891
:1039F80051A3408F929D38F5BCB6DA2110FFF3D25F
:103A0800CD0C13EC5F974417C4A77E3D645D197312
:103A180060814FDC222A908846EEB814DE5E0BDB0C
:103A2800E0323A0A4906245CC2D3AC629195E47943
:103A3800E7C8376D8DD54EA96C56F4EA657AAE089D
:103A4800BA78252E1CA6B4C6E8DD741F4BBD8B8A38
:103A5800703EB5664803F60E613557B986C11D9E9E
:103A6800E1F8981169D98E949B1E87E9CE5528DF15
:103A78008CA1890DBFE6426841992D0FB054BB1641
:103A880052096AD53036A538BF40A39E81F3D7FBCB
:103A98007CE339829B2FFF87348E4344C4DEE9CB15
:103AA800547B9432A6C2233DEE4C950B42FAC34E8A
:103AB800082EA16628D924B2765BA2496D8BD12540
:103AC80072F8F66486689816D4A45CCC5D65B692E4
:103AD8006C704850FDEDB9DA5E154657A78D9D8488
:103AE80090D8AB008CBCD30AF7E45805B8B34506A8
:103AF800D02C1E8FCA3F0F02C1AFBD0301138A6BC2
:103B08003A9111414F67DCEA97F2CFCEF0B4E673F1
:103B180096AC7422E7AD3585E2F937E81C75DF6E9F
:103B280047F11A711D29C5896FB7620EAA18BE1B05
:103B3800FC563E4BC6D279209ADBC0FE78CD5AF4AB
:103B48001FDDA8338807C731B11210592780EC5FF1
:103B580060517FA919B54A0D2DE57A9F93C99CEF4D
:103B6800A0E03B4DAE2AF5B0C8EBBB3C835399614E
:103B7800172B047EBA77D626E169146355210C7D8C
:083B880070D3FF7F0100000073
:103B900000127A0001000000100000000300000085
:083BA000D00700000100000045
:020000042000DA
:0400000000000000FC
:040000050800118D51
:00000001FF
