:020000040800F2
:04500000000080002C
:045004008F61D8449C
:0C50080052020400520204005241000059
:105400000050002085580008DD5F0008DF5F0008BD
:10541000E15F0008E35F0008E55F000800000000AE
:1054200000000000000000000000000011B60008AD
:10543000E75F000800000000A1B60008E5B600081C
:1054400081580008815800088158000881580008D8
:1054500081580008815800088158000881580008C8
:1054600081580008815800088158000881580008B8
:1054700081580008815800088158000881580008A8
:105480008158000881580008815800088158000898
:10549000E95F0008F55F000881580008815800089E
:1054A00081580008F95F00088158000881580008F9
:1054B00081580008815800088158000805600008DC
:1054C0008158000881580008815800088158000858
:1054D00081580008116000081D600008296000085C
:1054E0008158000881580008815800088158000838
:1054F0008158000881580008815800088158000828
:105500008158000881580008815800088158000817
:105510008158000881580008815800088158000807
:1055200081580008815800088158000881580008F7
:10553000844641EA000313F0030349D1403A23D3E0
:105540000B6803604B6843608B688360CB68C36003
:105550000B6903614B6943618B698361CB69C361EB
:105560000B6A03624B6A43628B6A8362CB6AC362D3
:105570000B6B03634B6B43638B6B8363CB6BC363BB
:1055800040304031403ADBD230320BD30B680360FD
:105590004B6843608B688360CB68C3601030103108
:1055A000103AF3D20C3205D351F8043B40F8043BD7
:1055B000043AF9D2043208D0D2071CBF11F8013BDB
:1055C00000F8013B01D30B8803806046704700BFA1
:1055D000082A13D38B07B1D010F00303AED0C3F168
:1055E0000403D21ADB071CBF11F8013B00F8013B92
:1055F000A4D331F8023B20F8023B9FE7043AD9D309
:10560000013A11F8013B00F8013BF9D20B78037025
:105610004B7843708B7883706046704703461A78E6
:10562000184601330AB9104601E08A42F7D17047A3
:1056300007F0D6BC07F084BC10B548B141B14AB1FF
:105640000023C45CCC5401339A42FAD1002010BD2F
:105650000220FCE70720FAE7002330B501399CB2AD
:10566000A24201D8002006E0C55C0133CC5CA54213
:10567000F5D001D9012030BD4FF0FF30FBE72DE917
:10568000F041064608460F46FFF7D2FF0446A0B198
:105690003046FFF7CDFFA0420ED94FF00008051BA2
:1056A000A2B206EB080439462046FFF7D5FF20B129
:1056B00008F10108A845F4D900242046BDE8F0818E
:1056C000034641B14AB102810160012200201A73F0
:1056D000586058817047042070470520704710B506
:1056E0000446D1B1C8B1037BCBB9838800680122DD
:1056F0001844FFF7A1FFA0B96389013B9BB2638106
:1057000013B90123237310BD2289A388013A934260
:1057100016BF0133A080A380F5E70420F3E7032040
:10572000F1E70820EFE770B506460C4669B160B1B5
:105730006AB1438993420CD38D1821463046013417
:10574000FFF7CDFFAC42F8D170BD0420FCE7052087
:10575000FAE70720F8E770B505460C4661B158B185
:10576000468900200E44B44200D170BD214628462F
:10577000FFF7B5FF0134F6E70420F6E730B1002368
:10578000012243600273438118467047042070472A
:1057900020B119B1037B00200B70704704207047C3
:1057A00040B139B10389428900209A1A53425341CA
:1057B0000B70704704207047002373B504460E46F3
:1057C0008DF8073011B308B30DF10701FFF7E8FFBB
:1057D000D0B99DF80730012B1AD0237BE588012B27
:1057E0001FBF23890135B5FBF3F203FB1255216876
:1057F000EDB2012230462944FFF71EFF50B96389FC
:10580000E58001336381207302B070BD0420FBE7A3
:105810000220F9E70820F7E720B119B143890020F9
:105820000B8070470420704730B129B10389428949
:1058300000209B1A0B80704704207047F7B50024A6
:10584000064615460F46ADF8064099B190B19AB19B
:105850000DF10601FFF7E8FFBDF80630AB420DD3AE
:10586000391901343046E4B2FFF7A6FFAC42F7D352
:1058700003B0F0BD0420FBE70520F9E70620F7E7B9
:10588000FEE700000748084A08B50849121AFFF762
:105890004FFE0748074A0021121A07F051FB06F095
:1058A000D3F9FEE704000020D002002034D1000824
:1058B000D0020020801A002010B51422002494B0D9
:1058C00021460DEB02000D940F9407F039FB1022D6
:1058D000214601A807F034FB4FF48033092202244B
:1058E000CDE90A234FF40032CDE911430C924FF475
:1058F000501301220AA80E921092139300F026FF73
:1059000008B172B6FEE70F23CDE905344FF480638A
:105910000790CDE90830214605A801F0D9F808B173
:1059200072B6FEE74FF4004301A80194039301F01F
:10593000A9F908B172B6FEE714B010BD08B500F0C1
:10594000CFFEFFF7B9FF00F021F800F07BF800F080
:10595000CFF800F03DF900F0CDF900F005FA00F0C5
:105960001FFA00F039FA00F0FFFABDE8084000F035
:1059700011BB00000268034B9A4201D100F0C2BE85
:10598000704700BF002C014072B6FEE72DE9F043DE
:10599000102489B0224600210DEB040007F0D0FA54
:1059A000254BDFF898909A69254D22439A619A69B0
:1059B000484622400092009A9A694FF4005142F002
:1059C00020029A619A694FF0010802F020020192C8
:1059D000019A9A69002742F004029A619A690226A4
:1059E00002F004020292029A9A6942F008029A6155
:1059F0009B69012203F008030393039B01F0EEFA75
:105A000000222146284601F0E9FA4FF400534846A7
:105A10000DEB0401CDE90438CDE9067601F00AFA70
:105A200028460DEB0401CDE90448CDE9067601F0E6
:105A300001FA09B0BDE8F0830010024000100140F7
:105A4000000801401FB51148114A002301240260DB
:105A50004FF46022CDE90133039383600373037530
:105A6000C2614360046100F04DFD08B1FFF78CFF97
:105A70000023064801A9CDE90144039300F000FC8E
:105A800008B1FFF781FF04B010BD00BFD0020020B5
:105A90000024014010B5044686B01022002102A85F
:105AA00007F04EFA2268104B9A421BD103F56C4363
:105AB0009A690E4842F400729A619A6902A902F446
:105AC00000720092009A9A6942F004029A619B69FE
:105AD000022203F004030193019B0323CDE9022377
:105AE00001F0A8F906B010BD0024014000080140F3
:105AF00008B50C230A480B4AC0E9002300234FF4E1
:105B0000E022C0E90233C0E904238361838301F00A
:105B10008DFB18B1BDE80840FFF736BF08BD00BFD8
:105B2000000300200064004010B5044686B0102237
:105B3000002102A807F004FA2268224B9A423ED1C3
:105B400003F5D633DA69204842F00072DA61DA6987
:105B500002A902F000720092009A9A6942F00802CB
:105B60009A619B6903F008030193019B4FF48073D2
:105B7000029301F05FF94FF400720223CDE9022392
:105B80000323114802A9059301F054F90F4A142088
:105B9000536823F4C04343F0E06343F4804353600D
:105BA0000022114601F0A4FA142001F0D1FA0022DB
:105BB0001520114601F09CFA152001F0C9FA06B033
:105BC00010BD00BF00640040000C01400000014017
:105BD00008B50B480B4A0C4BC0E9002300234FF4D7
:105BE0008042C0E90233C0E90423C0E906330362FE
:105BF00001F03AFF18B1BDE80840FFF7C5BE08BD87
:105C00002803002000540040A086010010B504467F
:105C100086B01022002102A807F092F92268154BE5
:105C20009A4224D1144CC022A369144843F00803BB
:105C3000A361A36902A903F008030093009B122348
:105C4000CDE902230323059301F0F4F80022E36970
:105C50001F2043F40013E361E369114603F40013CA
:105C60000193019B01F044FA1F2001F071FA06B084
:105C700010BD00BF0054004000100240000C014065
:105C80000268084B82B09A420AD103F50333DA69FD
:105C900042F00202DA61DB6903F002030193019B27
:105CA00002B070470004004010B5044686B01022D0
:105CB000002102A807F044F922680C4B9A4213D144
:105CC00003F503339A690A4842F004029A619B691A
:105CD000402203F004030193019B022302A9CDE9B2
:105CE0000223059301F0A6F806B010BD00040040A1
:105CF0000008014010B500248AB01C22214603A8E8
:105D0000CDE9014407F01CF91548164B8460C0E941
:105D100000344FF47A738461C0E9033403F0DAF994
:105D200008B1FFF731FE0E4801A9CDE9014403F0A7
:105D30001BFB08B1FFF728FE60224FF4FA73CDE990
:105D400003230022064803A90592079203F01AFADA
:105D500008B1FFF719FE0248FFF7A6FF0AB010BD11
:105D60007C0300200004004008B54FF416530A4895
:105D70000A4AC0E9002300230C22C0E90233C0E92B
:105D800005230361C36103F087FB18B1BDE8084038
:105D9000FFF7FABD08BD00BF5404002000380140E1
:105DA00008B54FF4E1330A480A4AC0E9002300234A
:105DB0000C22C0E90233C0E905230361C36103F08B
:105DC0006BFB18B1BDE80840FFF7DEBD08BD00BFA2
:105DD0000C0400200044004008B54FF4E1330A48A9
:105DE0000A4AC0E9002300230C22C0E90233C0E9BB
:105DF00005230361C36103F04FFB18B1BDE8084000
:105E0000FFF7C2BD08BD00BFC4030020004800402A
:105E100010B504468AB01022002106A807F090F8B9
:105E200023684B4A934231D14A4B4FF400709A6930
:105E300006A942F480429A619A69002402F48042E1
:105E40000092009A9A6942F004029A619B6903F0F9
:105E500004030193019B0223CDE9060303233E487B
:105E6000099300F0E7FF4FF480633B4806A9CDE9B2
:105E70000634089400F0DEFF25202246214601F07A
:105E800037F9252001F064F90AB010BD334A934276
:105E90002CD1304B0421DA692F4842F40032DA6108
:105EA000DA69002402F400320292029A9A6942F0FE
:105EB00004029A619B6903F004030393039B02238A
:105EC000CDE90613032306A9099300F0B3FF0823C5
:105ED000214806A9CDE90634089400F0ABFF26203E
:105EE0002246214601F004F92620CBE71C4A9342C2
:105EF000CAD1184B1B48DA6906A942F48022DA613C
:105F0000DA69002402F480220492049A9A6942F029
:105F100008029A619B694FF4806203F008030593BD
:105F2000059B0223CDE906230323099300F082FF9A
:105F30004FF400630B4806A9CDE90634089400F03D
:105F400079FF27202246214601F0D2F8272099E741
:105F500000380140001002400008014000440040A9
:105F600000480040000C014008B506230748084AD5
:105F7000C0E9002340F6FF73836003F0AFFC18B163
:105F8000BDE80840FFF700BD08BD00BF9C0400202D
:105F90000030004008B50548054B036003F0CDFC18
:105FA00018B1BDE80840FFF7EFBC08BDA804002009
:105FB000003002400268084B82B09A420AD1A3F531
:105FC00000535A6942F040025A615B6903F0400392
:105FD0000193019B02B0704700300240FEE7FEE7EC
:105FE000FEE7FEE7FEE77047014801F017BB00BF80
:105FF00000030020FFF7F8BF014802F079BF00BF9F
:10600000B0040020014802F077BA00BF2803002046
:10601000014803F0EFBA00BF54040020014803F028
:10602000E9BA00BF0C040020014803F0E3BA00BF46
:10603000C40300200E4B82B09A6942F001029A61BB
:106040009A6902F001020092009ADA6942F08052E5
:10605000DA61DB69074A03F080530193019B5368BF
:1060600023F0E06343F00073536002B0704700BF59
:1060700000100240000001401E4B70B59A6988B0C4
:1060800042F400629A619B6901A903F400630293E0
:10609000064603A8184D029B00F0D6FD00F0C4FD93
:1060A000164B2B6040F2E733EB60154BB0FBF3F07F
:1060B00000230138686028462B61AB60AB6102F0B9
:1060C000DDFF044680B9284602F0E4FE044658B9D4
:1060D000192001F03DF80F2E09D82246314619202B
:1060E00001F006F8074B1E60204608B070BD012481
:1060F000FAE700BF00100240B0040020002C01406D
:1061000040420F000C000020034B1A68D36823F0B4
:106110000103D360704700BFB0040020034B1A682E
:10612000D36843F00103D360704700BFB004002080
:10613000F7B5002604460D46019600F0EFFA2368F5
:1061400007469A68D10508D50120A36A84F824601F
:1061500043F02003A36203B0F0BD5A68D20503D414
:10616000DB6A13F4700F3DD03D4B02201E6800F037
:1061700003FE23683B4A1969B6FBF0F611423A4A1E
:1061800051D1D868394908424DD1196911425BD1C2
:10619000DA68374B1A420CBF142329235E43019B54
:1061A000B34223D26A1C04D0002D53D1019BB342C9
:1061B0000AD3019B01330193F1E76E1C13D065B93B
:1061C00023681B6898070DD4A36A032043F00403D7
:1061D000A362002384F82430BDE700F09FFAC01BBF
:1061E000A842EDD8226813689907E6D56FF012032C
:1061F00022681360A36A43F40073A362936803F4F4
:106200006023B3F5602F0CD1237B53B9A36A23F429
:106210008073A362A36ADB0403D4A36A43F001037F
:10622000A362002097E71969114203D1D968104A87
:1062300011420BD019690F4A114209D1DB68134290
:106240000CBF5423FC23A9E72923A7E75423A5E780
:10625000FC23A3E700F062FAC01BA842A6D8A8E777
:1062600004000020244992249224491224499200D7
:1062700092244900499224000368D86C70470000BA
:10628000002373B5019390F824300446012B6CD0A1
:10629000012380F824304D680268062D086805EB5C
:1062A000850322D81F26556B053B9E4025EA06052F
:1062B00000FA03F32B43536309288B6800EB400576
:1062C0004FF0070129D9D6681E3DA94026EA0101F1
:1062D000AB400B43D360A0F11003012B25D9002064
:1062E000002384F8243002B070BD0C2D4FF01F0540
:1062F00009D8166B233B9D4026EA050500FA03F3F7
:106300002B431363D8E7D66A413B9D4026EA050537
:1063100000FA03F32B43D362CEE71069A94020EAC9
:106320000101AB400B431361D9E7114B9A4216D1DF
:1063300093681B02D3D49368102843F4000393603E
:10634000CDD10C4B0C4A1B68B3FBF2F30A2253432A
:106350000193019B002BC2D0019B013BF8E7A36A8C
:10636000012043F02003A362BAE70220BBE700BF8D
:10637000002401400400002040420F00002337B5F4
:106380000193036804469A68D20702D5002003B03F
:1063900030BD9A6842F001029A60144B144A1B689F
:1063A000B3FBF2F30193019BE3B900F0B7F90546A3
:1063B00023689B68DB07E9D400F0B0F9401B022892
:1063C000F6D923689B6813F00103F1D1A26A01207A
:1063D00042F01002A262E26A84F8243042F0010224
:1063E000E262D4E7019B013BDCE700BF0400002030
:1063F00040420F0010B590F824300446012B54D0D1
:10640000012380F82430FFF7B9FF002849D1A36A9F
:10641000274A23F4407323F0010343F48073A362FB
:106420002368934204D123494A6812F4702F2ED175
:10643000A26A22F48012A2625A68520541BFA26A7F
:1064400022F4405242F48052A262A26A12F48052B4
:106450001CBFE26A22F00602E262002284F82420D5
:106460006FF002021A609A6802F46022B2F5602F9F
:1064700013D10F4A934205D1A2F58062526812F4FB
:10648000702F0AD19A6842F4A0029A6010BDA26AE5
:1064900042F48012A2624A68CFE79A6842F48012FE
:1064A000F3E7002384F82430F0E70220EEE700BF92
:1064B000002801400024014038B5036804469A686A
:1064C000D10701D4002038BD9A6822F001029A60F9
:1064D00000F024F9054623689B68DB07F2D500F03D
:1064E0001DF9401B0228F6D923689B68DA07F2D50C
:1064F000A36A012043F01003A362E36A43F001039F
:10650000E362E0E7F8B5044600286DD0836A23B95A
:10651000C36280F82430FFF7BDFA2046FFF7CCFFB6
:10652000A36A13F0100361D100285FD1A26A6168E9
:1065300022F4885222F0020242F00202E569A668C3
:10654000A262227B2943B6F5807F41EA420136D020
:10655000771E7D427D412D02277D012F06D182BB12
:10656000A269013A45EA423242F400652268B6F572
:10657000807F576827F4694745EA070555609768A3
:106580001D4D05EA070545EA0105956001D0012E7C
:1065900002D12369013B1B05D56A25F470052B4305
:1065A000D3629268154B1340994213D10023E362E2
:1065B000A36A23F0030343F00103A362F8BD354649
:1065C000CAE7A26A42F02002A262E26A42F0010235
:1065D000E262CBE7A36A23F0120343F01003A36245
:1065E000E36A43F00103E3620120E7E7A36A43F0B3
:1065F0001003A362F8E700BFFDF7E1FFFE0E1FFFE7
:10660000002373B5019390F824300446012B62D027
:10661000012380F82430FFF74FFF2046FFF7AEFE3E
:10662000054600282FD1A36A022023F4885323F0C3
:10663000020343F00203A362284B1E6800F09CFB98
:10664000B6FBF0F676000196019B03BB22689368C7
:1066500043F00803936000F061F8064623689A68E7
:10666000110718D49A6842F004029A6000F056F8B4
:10667000064623689B685B0723D4A36A23F00303C1
:1066800043F00103A362002384F8243016E0019B49
:10669000013B0193D8E700F041F8801B0A28DDD9BF
:1066A00023689B681807D9D5A36A012523F0120334
:1066B00043F01003A362002384F82430284602B07C
:1066C00070BD00F02BF8801B0A28D2D923689B6884
:1066D0005A07CED5E8E70225F0E700BF0400002006
:1066E000074A08B51368032043F01003136000F055
:1066F000EDFC0F20FFF7C0FCFFF79CFC002008BD5D
:1067000000200240034A044B11681B780B441360BD
:10671000704700BFF804002008000020014B1868F3
:10672000704700BFF804002038B50446FFF7F6FFB5
:106730000546631C1EBF044B1B78E418FFF7EEFFF1
:10674000431BA342FAD338BD080000202DE9F341D2
:10675000054638B30368DB0710D42B689F075ED467
:106760002B68190700F195802B685A0700F1C1804A
:10677000EB69002B40F02C81002029E0904C6368ED
:1067800003F00C03042B07D0636803F00C03082B01
:106790000AD16368DE0307D523689C03DDD56B68E7
:1067A000002BDAD1012013E06B68B3F5803F12D1E2
:1067B000236843F480332360FFF7B0FF0646236865
:1067C0009803CAD4FFF7AAFF801B6428F7D90320D7
:1067D00002B0BDE8F0819BB9236823F480332360C5
:1067E000236823F480232360FFF798FF064623687D
:1067F0009903B2D5FFF792FF801B6428F7D9E6E72B
:10680000B3F5A02F236803D143F480232360CFE79F
:1068100023F480332360236823F48023CBE7684C80
:10682000636813F00C0F07D0636803F00C03082BA8
:1068300010D16368DA030DD423689B0702D52B6956
:10684000012BAFD123686A6923F0F80343EAC2033E
:10685000236085E72A695B4B6AB101221A60FFF762
:106860005DFF064623689F07ECD4FFF757FF801BA8
:106870000228F7D9ABE71A60FFF750FF06462368F6
:1068800098077FF56DAFFFF749FF801B0228F6D907
:106890009DE7AA694A4E4B4BE2B10122C3F880241E
:1068A000FFF73CFF0446736A9B070DD54FF4FA527D
:1068B000454B1B68B3FBF2F3019300BF019B5A1ECB
:1068C0000192002BF9D14FE7FFF728FF001B0228A8
:1068D000E9D97CE7C3F88024FFF720FF0446736AF8
:1068E0009F077FF541AFFFF719FF001B0228F6D97C
:1068F0006DE7334CE369D80024D40127E36943F002
:106900008053E361E36903F080530093009B2F4EB3
:106910003368D90518D5EB68012B26D1236A43F0DB
:1069200001032362FFF7FAFE41F288380646236A24
:106930009B073FD5002F3FF41BAFE36923F0805343
:10694000E36115E70027E2E7336843F480733360BF
:10695000FFF7E4FE80463368DA05DCD4FFF7DEFE9D
:10696000A0EB08006428F6D931E7ABB9236A41F2FD
:10697000883823F001032362236A23F0040323628F
:10698000FFF7CCFE0646236A9807D3D5FFF7C6FE6D
:10699000801B4045F7D91AE7052B236A03D143F042
:1069A00004032362BAE723F001032362236A23F07E
:1069B0000403B6E7FFF7B2FE801B4045B7D906E7F0
:1069C000001002400000424204000020007000401D
:1069D0002A4C626802F00C02082A3ED00022022BE8
:1069E000274B1A662CD1FFF799FE064623689901BA
:1069F00020D42B6AB3F5803F05D16268A96822F4E0
:106A000000320A436260696A62680B4322F47412BE
:106A10001343012263601A4B1A66FFF77FFE054697
:106A200023689A013FF5A8AEFFF778FE401B0228C5
:106A3000F6D9CCE6FFF772FE801B0228D6D9C6E64F
:106A4000FFF76CFE054623689B017FF595AEFFF7C7
:106A500065FE401B0228F6D9B9E6012B3FF4A2AE31
:106A600060682B6A00F480329A427FF49BAE6B6AB6
:106A700000F47010C01A18BF0120A9E600100240EF
:106A8000000042420D4A536803F00C01082912D15C
:106A90000B48C3F38341DB03405C09D55368094AC3
:106AA000C3F340435043084AD35CB0FBF3F0704754
:106AB000064B584370470348704700BF0010024020
:106AC0006ED0000800127A006CD0000800093D006A
:106AD0002DE9F0410D46044610B90120BDE8F081D2
:106AE000444A136803F007038B4228D321688E07BA
:106AF00030D4CA0743D43F4A136803F00703AB42BC
:106B000065D822683C4D12F0040F6CD1130706D5EE
:106B10006B68226923F4605343EAC2036B60FFF79A
:106B2000B1FF6B68354AC3F30313D35CD840344BD1
:106B30001860344B1868FFF79FFA0020CEE71368FF
:106B400023F007030B431360136803F007038B4222
:106B5000C3D1CBE7284B11F0040F1EBF5A6842F493
:106B6000E0625A60080742BF5A6842F460525A60B5
:106B70005A68A06822F0F00202435A60B9E76268DE
:106B80001D4E012A33681AD113F4003FA5D0736853
:106B900041F2883823F0030313437360FFF7BEFD0F
:106BA00007467368626803F00C03B3EB820FA2D050
:106BB000FFF7B4FDC01B4045F3D903208EE7022A3E
:106BC00002D113F0007FE1E713F0020FDEE7136854
:106BD00023F007032B431360136803F00703AB4252
:106BE0007FF47BAF8DE76B68E16823F4E0630B43D0
:106BF0006B608BE700200240001002405CD0000870
:106C0000040000200C000020044B054A5B68C3F31D
:106C10000223D35C034A1068D8407047001002403A
:106C200054D0000804000020044B054A5B68C3F3FD
:106C3000C223D35C034A1068D8407047001002405A
:106C400054D00008040000200F2303600B4B5A6847
:106C500002F0030242605A6802F0F00282605A6851
:106C600002F4E062C2605B68DB0803F4E063036186
:106C7000034B1B6803F007030B60704700100240D2
:106C80000020024003682DE9F3410546D80721D5CD
:106C9000364CE369D9002BD40126E36943F08053D5
:106CA000E361E36903F080530193019B304F3B683C
:106CB000DA051FD5236A6A6813F440732ED1236A5C
:106CC0006A6823F44073134323621EB1E36923F01F
:106CD0008053E3612A68910706D52449A8684B6868
:106CE00023F4404303434B60D30636D4002012E024
:106CF0000026DBE73B6843F480733B60FFF70EFD43
:106D000080463B68DB05D5D4FFF708FDA0EB080003
:106D10006428F6D9032002B0BDE8F08102F4407285
:106D20009A42CCD00120134A236AC2F840040020C2
:106D300023F44071DF07C2F840042162BFD5FFF79A
:106D4000EDFC41F288380746236A9807B7D4FFF76D
:106D5000E5FCC01B4045F7D9DCE7044AE968536805
:106D600023F480030B435360C0E700BF00100240D0
:106D70000070004000004242022808B544D01028AC
:106D800003D0012822D0002034E0254B5A6818682F
:106D900010F080702ED0C2F383412248D20348BF46
:106DA0005A68405C41BF2049C2F34042895C1F4A97
:106DB0005B684CBFB2FBF1F21D4A5B0202FB00F0C4
:106DC00018D403234000B0FBF3F013E040F202318B
:106DD000134A136A1940B1F5817F1ED003F4407342
:106DE000B3F5007F07D149F64040536A13F0020F14
:106DF00008BF002008BDB3F5407FC4D113684FF22F
:106E0000244013F4003FF3E7FFF70EFF044B5B68E9
:106E1000C3F3813301335B00D5E74FF40040E9E76A
:106E20000010024080D000087ED0000800127A00D6
:106E300000093D002DE9F74F00244FF00F0E2646C4
:106E4000DFF884C1614B00F104080A6832FA06F5E4
:106E500002D103B0BDE8F08F012505FA06F702EA7A
:106E6000070537EA020276D14A68032A07D8013AB1
:106E7000022A00F28380DFE802F091969C00122A39
:106E800000F0948069D8112A00F08A80FF2D94BF09
:106E90008146C1464FEA8602D9F8007088BF203A81
:106EA0000EFA02FA27EA0A0704FA02F21743C9F8AF
:106EB0000070D1F8049019F0805F4CD0DCF81820F5
:106EC00026F0030742F00102CCF81820DCF8182065
:106ED00007F1804702F00102019207F5803706F0C2
:106EE000030A019A4FEA8A0ABA680EFA0AFB22EAF2
:106EF0000B0B374A904260D002F5806290425ED020
:106F000002F5806290425CD002F58062904214BF2C
:106F10000422032202FA0AF242EA0B02BA609A68D9
:106F200019F4801F14BF2A43AA439A60DA6819F43F
:106F3000001F14BF2A43AA43DA605A6819F4003FBD
:106F400014BF2A43AA435A601A6819F4803F14BF39
:106F50002A43AA431A60013677E7DFF878904A455A
:106F60000CD014D8A9F580194A4507D009F5702925
:106F70004A4503D0A9F580194A4587D18A68D2B11C
:106F8000012A4FF008040CBF076147617EE7DFF874
:106F900048904A45F2D009F58039EDE7CC6875E7AD
:106FA000CC68043472E7CC6808346FE7CC680C34E2
:106FB0006CE700246AE7042468E70022AAE70122BC
:106FC000A8E70222A6E700BF00100240000401402B
:106FD0000008014000002210000031100AB10161D8
:106FE00070470904FBE7C36801EA030221EA0301D1
:106FF00041EA02410161704790F821200346022ACC
:1070000006D0042282630120002283F820207047EA
:107010000268C06B116821F00E011160116821F047
:107020000101116001211A6C01FA02F24260002094
:1070300083F82110E8E7000008B590F82130022B12
:1070400003D004238363012008BD03681A6822F07B
:107050000E021A601A6822F001021A60174A93425F
:107060001FD0143293421ED0143293421DD01432DA
:1070700093421DD0143293421DD01432934214BF58
:107080004FF080734FF480130D4A5360012380F852
:107090002130002380F82030436B03B19847002053
:1070A000D2E70123F0E71023EEE74FF48073EBE71C
:1070B0004FF48053E8E74FF48033E5E708000240DF
:1070C0000000024090F821007047000007490302C9
:1070D000CA6803F4E06322F4E0621204120C134362
:1070E00043F0BF6343F40033CB60704700ED00E032
:1070F000154B30B5DC68C4F30224C4F10703251D29
:10710000042B28BF0423062D4FF0FF3594BF002425
:10711000033C05FA03F321EA0303A54022EA050232
:10712000A340002843EA0203ACBF00F16040074AD5
:107130004FEA0313DBB2ABBF00F5614000F00F0074
:1071400080F80033135430BD00ED00E014ED00E092
:10715000002807DB01234109034A00F01F00834098
:1071600042F82130704700BF00E100E020BF00BFBF
:107170007047000090FAA0F0B0FA80F00122024BB4
:1071800003449B001A6070472080831090FAA0F09F
:10719000B0FA80F00022024B03449B001A60704753
:1071A00020808310064A0129136923F00403136128
:1071B00001D130BF704740BF20BF20BF704700BF24
:1071C00000ED00E00F4A08B51368012923F002031F
:1071D0001360136823F0010343EA000313600A4BB2
:1071E0001A6942F004021A6105D130BF1A6922F00F
:1071F00004021A6108BD40BFFFF7B8FFFFF7B6FFF2
:10720000F4E700BF0070004000ED00E0054A13689D
:1072100043F002031360044A136943F0040313614B
:1072200030BF70470070004000ED00E038B5044604
:1072300000286ED090F820300BB9FEF775FC22685C
:10724000136843F001031360FFF768FA05462368EB
:107250005A68D10751D51A6822F002021A60FFF766
:107260005DFA054623685A68920754D4227E0020AE
:10727000012A1A680CBF42F0800222F080021A60D4
:10728000627E012A1A680CBF42F0400222F04002DE
:107290001A60A27E012A1A680CBF42F0200222F076
:1072A00020021A60E27E012A1A680CBF22F0100246
:1072B00042F010021A60227F012A1A680CBF42F0C5
:1072C000080222F008021A60627F012A1A680CBFC5
:1072D00042F0040222F004021A60D4E902210A43B7
:1072E00021690A4361690A43616801390A43DA6125
:1072F0000123606284F820300CE0FFF70FFA401B96
:107300000A28A4D9636A43F400336362052384F82E
:107310002030012038BDFFF701FA401B0A28A1D90F
:10732000F0E770B590F820200368013A012A62D88E
:107330000120D3F8002242F00102C3F800224A697A
:10734000D3F81C5202F01F04A04025EA0005C3F840
:107350001C52CD69C44395BBD3F80C52CE6825406E
:10736000C3F80C528D8803EBC20245EA0645C2F809
:1073700040528E680D8845EA0645C2F844528A6933
:107380007ABBD3F804222240C3F804220A6962BB04
:10739000D3F814221440C3F814420A6A012A04BF25
:1073A000D3F81C2202434FF0000008BFC3F81C2290
:1073B000D3F8002222F00102C3F8002270BD012D93
:1073C000DDD1D3F80C520E680543C3F80C528D88FA
:1073D00003EBC20245EA0645C2F840528E688D8929
:1073E000C9E7D3F804220243CEE7D3F814220243BC
:1073F000C3F81422D1E7436A43F480234362012097
:10740000DCE738B590F820300446012B1FD1022369
:10741000026880F82030136823F001031360FFF73F
:107420007DF905462368586810F0010001D16062BB
:1074300038BDFFF773F9401B0A28F3D9636A43F498
:1074400000336362052384F820300120F0E7436AAB
:1074500043F400234362F8E7F0B590F82050046845
:10746000013D012DA6683CD816F0E05F33D0012520
:10747000C6F3016085401D60D1E9025700F1180391
:1074800015BB0D681B0147EA4557E75004EB001395
:10749000050100200E692C44C3F88461097D01298F
:1074A00002BFD3F8841141F48071C3F8841151688C
:1074B000C4F88C111268C4F88821D3F8802142F0F6
:1074C0000102C3F88021F0BD4E683D4345EAC60580
:1074D0001B01E550DAE7436A43F4001343620120DD
:1074E000F1E7436A43F48023F8E7F0B590F82040D1
:1074F000013C012C71D8066841B9F468A40707D192
:10750000436A43F4001343620120F0BD3469F5E798
:1075100006EB0115D5F8B0710C0107F00407976070
:10752000002F50D1D5F8B0717F0D1760D5F8B0712C
:10753000264407F00207D760D5F8B4713F074EBF65
:107540000827D5F8B47107F00F071761D5F8B471A3
:10755000D5F8B451C7F307272D0C97615561D6F8BC
:10756000B8211A7002682244D2F8B821120A5A705F
:1075700002682244D2F8B821120C9A7002682244A0
:10758000D2F8B821120EDA7002682244D2F8BC2177
:107590001A7102682244D2F8BC21120A5A71026898
:1075A0002244D2F8BC21120C9A7102682244D2F80B
:1075B000BC21120EDA71036851B9DA6842F0200278
:1075C000DA600020A1E7D5F8B071FF085760ADE799
:1075D0001A6942F020021A61F3E7436A43F48023F8
:1075E00091E790F82030013B012B05D8026800207C
:1075F0005369194351617047436A43F480234362DE
:107600000120704770477047704770477047704758
:107610007047704770477047704770472DE9F84FC3
:10762000036805465E69D3F8049016F00104D3F8A8
:107630000880D3F80CB0D3F810A09F6927D018F0B9
:10764000010F07D0012218F0020F9A6000F0A58008
:10765000FFF7D8FF002418F4807F0AD04FF480721F
:107660002B6818F4007F9A6000F0A6802846FFF788
:10767000CAFF18F4803F0AD04FF480322B6818F408
:10768000003F9A6000F0A8802846FFF7BDFF310751
:1076900007D51BF0100F1FBF10222B6844F4007495
:1076A000DA60720708D51BF0080F05D008222B6896
:1076B0002846DA60FFF7ACFFB30706D52B68DB6816
:1076C000980702D0284602F00FFC710607D51AF081
:1076D000100F1FBF10222B6844F480641A61B20699
:1076E00008D51AF0080F05D008222B6828461A6121
:1076F000FFF790FFF30606D52B681B69980702D0A9
:107700002846FFF786FFB10308D519F0100F05D002
:1077100010222B6828465A60FFF77DFFF20308D538
:1077200019F0080F05D008222B6828465A60FFF789
:1077300073FF330428D519F0040F2A6822D0F0050E
:1077400044BF07F001031C43B10503D5BB0748BF85
:1077500044F00204700503D5790748BF44F00404DF
:1077600033050FD517F070030CD0402B54D043D8FD
:10777000202B4BD0302B4CD0102B44D0936923F0CE
:1077800070039361042353602CB16B6A2846234332
:107790006B62FFF742FFBDE8F88F18F0040F05D1C8
:1077A00018F0080F05D1FFF730FF53E74FF40064DE
:1077B00051E74FF480544EE718F4806F02D044F440
:1077C000005456E718F4006F02D044F4804450E7A8
:1077D0002846FFF71BFF4CE718F4802F02D044F433
:1077E000004454E718F4002F02D044F480344EE7EC
:1077F0002846FFF70CFF4AE7502B10D0602BBDD175
:1078000044F48074BAE744F00804B7E744F0100485
:10781000B4E744F02004B1E744F04004AEE744F09C
:107820008004ABE7016800224B6913F4806310D039
:107830006FF480634B612023026380F83D3080F851
:107840003E20036C80F83C2043F0040303640120D5
:107850007047184670472DE9F84606460F46914690
:107860001D464FEA114A3368BAF1010F0CBF5C693B
:107870009C6927EA0404A4B2B4FA84F46409A1451B
:1078800001D0002025E06A1CEED0FEF747FF089BE0
:10789000C01AA84201D8002DE5D13368BAF1010F12
:1078A0000CBF5B699B6927EA03039BB2B3FA83F3BE
:1078B0005B099945D7D1002320220120336386F844
:1078C0003D2086F83E30326C86F83C3042F0200293
:1078D0003264BDE8F8862DE9F04104460F461646AD
:1078E00098462568686927EA000080B2C0B16B69D4
:1078F0005A0517D52B68202243F400732B606FF4D0
:1079000080636B610023236384F83D2084F83E305C
:10791000236C43F0040323640023012084F83C30EB
:10792000BDE8F081731CDDD0FEF7F8FEA0EB080087
:10793000B04201D8002ED4D123685A6927EA020246
:1079400092B2002ACDD000232022236384F83D2068
:1079500084F83E30236C1343DDE770B504460D46D2
:10796000164623685B691B0601D500201EE02046F1
:10797000FFF758FFC8B96A1CF3D0FEF7CFFE801B93
:10798000A84201D8002DECD123685B6913F0800375
:10799000E7D12022236384F83D2084F83E30226C16
:1079A00084F83C3042F020022264012070BD70B5A2
:1079B00004460D46164623685B695B0701D5002027
:1079C0001EE02046FFF72EFFC8B96A1CF3D0FEF771
:1079D000A5FE801BA84201D8002DECD123685B696D
:1079E00013F00403E7D12022236384F83D2084F8B8
:1079F0003E30226C84F83C3042F0200222640120A8
:107A000070BD70B504460D46164621684B6913F0EB
:107A1000400301D0002011E04A69D2060FD56FF073
:107A200010024A612022236384F83D2084F83E300E
:107A3000236C23640023012084F83C3070BDFEF7E2
:107A40006DFE801BA84201D8002DDED123685B6942
:107A500013F04003D9D12022236384F83D2084F819
:107A60003E30236C1343E4E770B5044608B90120A7
:107A700070BD90F83D3003F0FF021BB980F83C2048
:107A8000FEF7C4F8242384F83D3023681A6822F0F6
:107A900001021A601A6842F400421A601A6822F45D
:107AA00000421A60FFF7B0F83F4B65689D4294BFF3
:107AB0003E4B3F4B98428CBF00230123002BD6D175
:107AC000394E3C4BB542B0FBF3F388BF4FF496768A
:107AD0002268516821F03F0141EA030182BF7343EC
:107AE0004FF47A76B3FBF6F35160116A013321F05B
:107AF0003F010B431362D169431E2B4821F44F41D0
:107B0000854221F0FF0132D86D00B3FBF5F340F65A
:107B1000FC700133034242D0C3F30B031943D1611C
:107B20001168D4E9073021F0C00103430B4313600F
:107B30009168D4E9030321F40341034321F0FF01D9
:107B40000B439360D168D4E9053021F0FF01034372
:107B50000B43D3601368002043F00103136020231C
:107B6000206484F83D30206384F83E0080E7A068FC
:107B700050B905EB4505B3FBF5F30133C3F30B0334
:107B80007BB143F40043C9E719206843B3FBF0F32A
:107B90000133C3F30B0323B143F44043BEE7042393
:107BA000BCE70123BAE700BFA08601007F841E0066
:107BB000FF083D0040420F002DE9F043044685B028
:107BC00098460D4691460C9FFEF7A8FD94F83D306F
:107BD0000646202B04D00225284605B0BDE8F083D8
:107BE00000901923012220465C49FFF734FE00284B
:107BF000F1D194F83C30012BEDD00123216884F8B9
:107C00003C300B68DA075EBF0B6843F001030B6082
:107C10000B6823F400630B60212384F83D301023AC
:107C200084F83E3000232364A4F82A80638DC4F8CE
:107C3000249023854A4BE362E36A082B04D0012B8E
:107C400002D013F5803F04D10B6843F480730B60BE
:107C500002E0236B122BF7D000223B464FF00111BC
:107C600020460096FFF7F7FD226840B11368DB0558
:107C700001D40125B0E74FF400732364F9E72369C9
:107C8000B3F5804F21D105F0FE05156133463A4624
:107C900020463449FFF71FFE05460028E9D1236836
:107CA00003905A6903929B690393039B238DF3B955
:107CB00021680A6842F400720A60202284F83C308D
:107CC00084F83D2084F83E3086E7EB1103F006038C
:107CD00043F0F0031361204633463A462249FFF74A
:107CE000FAFD0028C5D12368EDB21D61CEE732460A
:107CF00039462046FFF731FE40B1236C042BB8D142
:107D00002268136843F400731360B2E7636A206863
:107D10001A4612F8011B01616262628D013A92B249
:107D20006285228DD0F814C0511E89B21CF0040F58
:107D300021850AD049B15978023301616362638DAC
:107D4000023A013B9BB26385228532463946204682
:107D5000FFF72DFE0028A9D0CFE700BF02001000DA
:107D60000000FFFF02000100080001002DE9F043C0
:107D700098460023044689B002930E469146109F10
:107D8000FEF7CCFC94F83D300546202B04D00226AB
:107D9000304609B0BDE8F083009019230122204647
:107DA0008F49FFF758FD0028F1D194F83C30012BA2
:107DB000EDD00123216884F83C300B68DB075EBFFF
:107DC0000B6843F001030B600B6823F400630B6046
:107DD000222384F83D30102384F83E3000232364AE
:107DE000A4F82A80638DC4F8249023857D4BE36238
:107DF000E36A0A68082B42F480620A6004D0012B0F
:107E000002D013F5803F04D10B6843F480730B60FC
:107E100002E0236B112BF7D03B4600224FF00111FB
:107E200020460095FFF717FD236838B11B68D80579
:107E300044BF4FF4007323640126A9E72269B2F519
:107E4000804F29D146F00106F6B21E612B463A4614
:107E500020466549FFF73FFD06460028ECD1228DFC
:107E60002368002A4DD103905A6903929A690392BC
:107E7000039A1A6842F400721A60DFF87081DFF822
:107E80007091238D002B6CD1202284F83C3084F833
:107E90003D2084F83E307BE74FEAE61808F00608FC
:107EA00048F0F0021A6120462B463A465149FFF746
:107EB00012FD0028C0D12368F6B23A461E61204662
:107EC0002B464949FFF707FD02460028B4D1236835
:107ED0000790596920460791996907910799196890
:107EE00041F4807119603B464FF001110095FFF796
:107EF000B2FC226808B1136899E748F0F1031361F6
:107F0000A4E7012A11D11A6822F480621A6072B6BD
:107F1000236804905A6904929A690492049A1A6830
:107F200042F400721A6062B6A7E7022A1A680ED1FC
:107F300042F400621A6072B6236805905A6905928D
:107F40009A690592059A1A6822F48062EAE742F477
:107F500080621A6006905A6906929B690693069B96
:107F60008BE7032B00F28880012B16D12A46394675
:107F70002046FFF746FD00287FF45EAF23681A69AC
:107F8000636A1A70636A01336362238D013B238540
:107F9000638D013B9BB2638573E7022B4FF00002B8
:107FA0003B4641462046009526D1FFF754FC002869
:107FB0007FF442AF72B623681A6842F400721A6006
:107FC0001A69636A1A70636A01336362238D013B25
:107FD0002385638D013B9BB2638562B6CEE700BF0C
:107FE000020010000000FFFF020001000400010079
:107FF0000400002008000100FFF72DFC00287FF49A
:108000001BAF2268136823F48063136072B646F2D4
:10801000A81123681A69636A1A70626A531C636242
:10802000238D013B2385638D013B9BB26385D9F88A
:108030000030B3FBF1F323214B430293029B013B3E
:108040000293029B6BB92022236384F83D2084F8BD
:108050003E30226C42F02002226462B684F83C304A
:10806000EAE6236859694907E8D5196841F40071BF
:1080700019601B695370A6E72A4639462046FFF768
:10808000C0FC00287FF4D8AE23681A69636A1A70AE
:10809000628D616A013A92B24B1C6285226863620A
:1080A000238D5069013B9BB2400723857FF5E9AEE4
:1080B000032B02BF136823F48063136013694B70B2
:1080C00060E700BF37B504460020019094F83D00FA
:1080D000202802D0022003B030BD46F2A815224865
:1080E0000068B0FBF5F0192568430190019801384C
:1080F0000190019850B92023206384F83D3084F822
:108100003E00236C43F020032364E3E72568A8695D
:108110008007EBD494F83C000128DBD02868C00726
:108120005EBF286840F001002860286820F40060E5
:108130002860212084F83D00102084F83E000020B3
:1081400020646385638D84F83C002385074B62625D
:10815000E36261646B6843F4E0636B602B6843F433
:1081600080732B60B7E700BF040000200000FFFF12
:1081700037B504460020019094F83D00202802D035
:10818000022003B030BD46F2A81524480068B0FBB9
:10819000F5F0192568430190019801380190019884
:1081A00050B92023206384F83D3084F83E00236CCE
:1081B00043F020032364E3E72568A8698007EBD434
:1081C00094F83C000128DBD02868C0075EBF28680F
:1081D00040F001002860286820F400602860222018
:1081E00084F83D00102084F83E0000202064638560
:1081F000638D84F83C002385094B6262E36261640D
:108200006B6843F4E0636B602B6843F480632B601E
:108210002B6843F480732B60B3E700BF0400002099
:108220000000FFFF70477047704770477047704706
:10823000704790F83D2008B5036DD2B283B9C36C86
:108240000268012B836C05D1DBB21361036D02332D
:10825000036508BDC3F307231361036D0133F7E71B
:10826000036D012B03D1836C0268DBB2F4E7036D6D
:10827000022B2FD1222A05D10268136843F48073A0
:108280001360EAE7438D9BB263B1212A0AD1436AA6
:10829000026813F8011B11614362438D013B9BB2DD
:1082A0004385D6E7438D9BB2002BD2D1212AD0D172
:1082B0000268516821F4E0615160116841F4007175
:1082C00011602022036380F83D2080F83E30FFF7E4
:1082D000AFFFBEE703685A69120644BF00221A6165
:1082E000B7E7704770477047002337B546F2A811CB
:1082F00001932C4B406A1B6890F83D20B3FBF1F3CF
:1083000023214B4301930368D2B2019941BB016C15
:1083100041F020010164446B0CB10021A162816B2A
:1083200009B100258D621D6825F480651D6000255A
:10833000458504B1656301B14D63196821F0010100
:10834000196090F83D10602911D1202380F83D304C
:10835000002380F83E300364FFF7C5FF03B030BD53
:1083600001990139019119688905CED4D3E702F04A
:108370002802282A0ED1196841F0010119601968F4
:1083800041F4806119600023036380F83D20FFF70A
:10839000A9FFE3E7202380F83D30002380F83E303A
:1083A000F5E700BF0400002010B590F83D2090F8DC
:1083B0003E300446102BD9B2D2B2036801D0402916
:1083C00013D1222A11D1196821F40061196059686A
:1083D00011F4006106D1602A1EBF202284F83D20DE
:1083E00084F83E100022226307E002F028012829C9
:1083F000EDD10022226384F83D105A6812F4006225
:108400004FD05A68606B22F400625A6090F82130B5
:10841000012B374B2BD04363FEF70EFE50B1226881
:10842000606B136823F001031360202384F83D3050
:10843000436B9847236C19071FBF2268536823F4C6
:10844000E063536094F83D30226CDBB252070DD5E7
:10845000282B0BD1274B2022E362002320462363E5
:1084600084F83D2084F83E30FFF7E1FE10BDA06B9C
:108470004363FEF7E1FD0028DCD023685A6951060A
:1084800005D51A69636A1A70636A013363622268E8
:10849000A06B136823F001031360202384F83D30A0
:1084A000C6E794F83D10602915D1202184F83D10CD
:1084B00022645A69520605D51A69636A1A70636A9A
:1084C0000133636222682046136823F001031360BE
:1084D000FFF709FFAEE75A69500605D51A69636AC6
:1084E0001A70636A013363622046FFF7FBFEA1E75F
:1084F000E98200080000FFFFF0B5044603688FB072
:108500005A68C66A90F83E0094F83D101028C5B22B
:10851000C9B202D0402D40F0E5829F69586910F041
:10852000010F07D1B6F52A0F02D0B6F12A4F51D16B
:108530000FB0F0BD96054DD5E26AB2F52A0F0CD109
:108540000122E26294F83E20402A11D1226D52B9F4
:10855000626C02F0FE021A61EAE7E26AB2F12A4FA7
:10856000F0D10822EDE7626C42F00102D2B2F2E7EC
:108570002269B2F5804F1AD194F83D20212A626C0D
:1085800011D102F0FE021A61626B0AB1926A2AB935
:10859000A26B002ACCD0926A002AC9D05A6842F451
:1085A00000625A60C4E742F00102D2B2EBE7226DEA
:1085B00032B9626CD21102F0060242F0F002CAE750
:1085C000226D012AB4D1626CD21102F0060242F08F
:1085D000F102C0E7060703D5960501D5626CE4E712
:1085E000860740F1F080960540F1ED8094F83E104A
:1085F000E26A256B94F83D00C9B2222840F0DB8086
:10860000206D40B9402906D100905A6900929B69BB
:108610000093009B8CE7216D89B92069B0F5404F2C
:108620000DD101915A6901929A690192019A1A68D1
:1086300042F480721A60236D0133236578E7618DFF
:1086400089B251B902915A6902929A690292029AC8
:108650001A6842F400721A6019E0618D89B201292A
:1086600049D112F5803F1BD11A6822F480621A604A
:108670005A6812F400620CD01A6822F480621A6000
:10868000002203925A6903929B690393039B002380
:10869000D3E704925A6904929A690492049AD7E73C
:1086A000082A1CD0202A1AD0122D0DD1012A16D149
:1086B0001A6822F480621A60002205925A690592B3
:1086C0009B690593059BE2E7102AF1D8864941FA98
:1086D00002F2D707ECD41A6842F48062EBE71A681A
:1086E00022F480621A60002206925A6906929A6900
:1086F0000692069AACE7618D89B2022938D1102A18
:1087000003D87A49D140CE0718D4196841F40061E2
:108710001960002107915969079199690791079993
:10872000196821F48061196059680D05AFD5202AB8
:108730001BD8072A0ED8012AA9D111E0196841F4E3
:10874000806119600021089159690891996908911F
:108750000899E9E7A2F10801654ACA40D00796D511
:108760005A6842F480525A6091E712F5803FE3E77D
:10877000196841F4806119605968090510D5202AEB
:1087800016D8072A06D8012A0AD15A6842F480521C
:108790005A6005E0A2F10801554ACA40D207F4D454
:1087A000002209925A6909929B690993099B6EE715
:1087B00012F5803FE8E700220A925A690A929B6903
:1087C0000A930A9BB4E67F0740F194805E68360501
:1087D0003FF5AEAE070600F004063ED550053CD589
:1087E000002E3DD194F83D20258D94F83E10D2B254
:1087F000E06AC9B2C5B9212A18D1082858D0202862
:1088000056D010F5803F53D05A6822F4E0625A6087
:1088100011232363002384F83E302023204684F86C
:108820003D30FFF7FFFC83E6212A05D040297FF485
:108830007FAE222A7FF47CAE628D92B21AB95A685A
:1088400022F48062ADE694F83E20402A16D12046FC
:108850000FB0BDE8F040FFF7ECBC002E3FF468AE6F
:1088600097057FF565AE212939D1E16A94F83D205D
:10887000212A7FF45DAE628D92B24AB1626A12F82B
:10888000011B19616262638D013B9BB263854FE6F8
:1088900008290DD020290BD011F5803F08D0596848
:1088A00021F4E06159601123236384F83E20B4E78A
:1088B0005A68204622F4E0625A601A6842F4007254
:1088C0001A6000232022236384F83D2094F83E2080
:1088D00084F83E30402AA4D1FFF7AAFC28E6402DB8
:1088E0007FF426AEB3E700BFEBFFFEFF14000100EC
:1088F0000101000159680E053FF51AAE450600F06A
:10890000040140F18680500540F18380002940F049
:10891000838094F83D20222A7FF40AAEE06A628DBB
:1089200092B2032A14D91A69636A1A70636A01330E
:108930006362638D013B9BB26385638D9BB2032BA6
:108940007FF4F6AD2268536823F480635360EFE54B
:10895000E56A022D3FF473AF012A3FF670AF0B9129
:1089600046F2A811784A1268B2FBF1F202EB8202D9
:108970000B920B9A013A0B920B99D1B9226C2046BB
:1089800042F0200222645A6822F4E0625A601A69B6
:10899000636A1A70636A01336362638D013B9BB241
:1089A0006385202384F83D3084F83E10FFF79AFC5D
:1089B000BEE51A6812F40072DBD1196821F48061F7
:1089C0001960596821F4E06159601969636A197086
:1089D000636A01336362638D013B9BB2638520232D
:1089E00084F83D3094F83E3084F83E20402B04D18A
:1089F00022632046FFF775FC9AE5082801D020285D
:108A000001D1002300E0122320462363FFF70BFC73
:108A10008EE500293FF48CAD92057FF589ADE26AC1
:108A2000608D616A80B2042809D15A6822F480629C
:108A30005A601B690B70636A0133636223E7608DC0
:108A400080B203280CD15868042A20F48060586052
:108A5000EFD0022AEDD01A6822F480621A60E8E7AB
:108A6000608D80B20228E4D1042A33D007D8012ACD
:108A700007D0022A2ED0186840F4007004E0102AB3
:108A8000F9D1186820F4806018601B690B70616A66
:108A90004B1C6362638D013B9BB2638523681B693A
:108AA0004B70636A216801336362638D013B9BB243
:108AB00063854B6823F440734B60202384F83D307A
:108AC00094F83E30402B4FF0000384F83E3005D13F
:108AD00023638EE7186840F48060D5E7082A90D0B9
:108AE000202A8DE7206C10B30025586987072DD503
:108AF00096052BD5226C02B19D6994F83D2002F0B9
:108B00002802282A16D15A682F0622F480625A6059
:108B10004FF0000385F00401204654BFA289228B48
:108B2000C1F3800184F83C30FFF780FB00E59D69CC
:108B30005869DBE700220C9259690C919B6984F813
:108B40003C200C930C9BF3E404000020C60640F18B
:108B5000B180950540F1AE8094F83D505A68EDB271
:108B600022F4E0625A6000220D925A690D921A684E
:108B700042F001021A600D9A1A6822F480621A60AB
:108B80005A68100520D505F0F702222A4AD1A06BB9
:108B90000268526892B26285628D92B21AB1226CFA
:108BA00042F0040222645A6822F400625A60FEF71E
:108BB00089FA012808D0A06B794B4363FEF73CFA91
:108BC00010B1A06B436B9847638D9BB213B32368BE
:108BD0005A69510709D51A69636A1A70636A0133C1
:108BE0006362638D013B9BB2638523685A695206B9
:108BF00009D51A69636A1A70636A01336362638D07
:108C0000013B9BB26385638D9BB21BB1236C43F028
:108C100004032364236C13B320460FB0BDE8F04077
:108C2000FFF7C2BB606B0268526892B26285628DC8
:108C300092B21AB1226C42F0040222645A6822F401
:108C400000625A60FEF73EFA0128BDD0606B544BBB
:108C50004363FEF7F1F90028B6D0606BB2E72A2D26
:108C600006D123632823204684F83D30FFF7DDFA40
:108C700094F83D30282B0CD14A4B2022E36200238C
:108C80002046236384F83D2084F83E30FFF7CFFA76
:108C90004EE4236B222B02D0222D7FF449AC00231B
:108CA0002022236384F83D2084F83E302046FFF7DD
:108CB000BCFA3DE401F0F701212900F0040535D1AB
:108CC000070627D5560525D53DBB94F83D00628D96
:108CD000C0B292B2002A3FF42BAC626A12F8015B78
:108CE0001D616262628D013A92B26285628D92B2BA
:108CF000002A7FF41DAC29287FF41AAC5A6820465C
:108D000022F480625A602823216384F83D30FFF703
:108D10008BFA0DE4002D3FF40BAC95057FF508AC04
:108D2000628D92B2002A3FF403ACA7E5400627D536
:108D3000510525D53DBB94F83D20618DD2B289B255
:108D400000293FF4F5AB1969636A1970636A01334E
:108D50006362638D013B9BB26385638D9BB2002B85
:108D60007FF4E6AB2A2A7FF4E3AB2268536823F44E
:108D70008063536022232363282384F83D3095E7E2
:108D8000002D3FF4D5AB92057FF5D2AB628D92B248
:108D9000002A3FF4CDAB1A69636A1A704BE600BF34
:108DA000E98200080000FFFF036A026A70B522F042
:108DB00001020262446882690D6822F073022A434C
:108DC0008D6823F002032B430A4DA8420BD1CD68D6
:108DD00023F008032B4324F44074D1E905563543AE
:108DE00023F004032C43446082614A6842630362B7
:108DF00070BD00BF002C0140036A026A70B522F406
:108E0000807202624468C2690D6822F073022A43CC
:108E10008D6823F4007343EA05230B4DA8420DD15E
:108E2000CD6823F4006343EA052324F44054D1E9D8
:108E30000556354323F4806344EA05144460C26157
:108E40004A68C263036270BD002C0140036A026A73
:108E500030B522F4805202624468C2690D6822F47F
:108E6000E64242EA05228D6823F4005343EA0533C3
:108E7000064DA84202BF4D6924F4804444EA85149B
:108E80004460C2614A680264036230BD002C014044
:108E90007047000090F83D30012B20D1022380F86C
:108EA0003D300368DA6842F00102DA600D4A93420D
:108EB0000AD0B3F1804F07D0A2F59432934203D089
:108EC00002F58062934204D19A6802F00702062AF2
:108ED00003D01A6842F001021A6000207047012096
:108EE000704700BF002C01407047704770477047C3
:108EF000036870B5DD681E690446B1070DD5AA0781
:108F00000BD56FF002021A61012202779B699B0761
:108F100069D0FFF7EAFF00232377710710D56A07AE
:108F20000ED56FF00402236820461A6102222277D0
:108F30009B6913F4407F5CD0FFF7D7FF00232377B2
:108F400033070FD528070DD56FF008022368204698
:108F50001A6104222277DB69990750D0FFF7C5FF19
:108F600000232377F20610D5EB060ED56FF0100222
:108F7000236820461A6108222277DB6913F4407FB8
:108F800043D0FFF7B2FF00232377F00708D5E907A6
:108F900006D56FF00102236820461A61FCF7EAFC4F
:108FA000320608D52B0606D56FF0800223682046CE
:108FB0001A6100F008FA700608D5690606D56FF048
:108FC0004002236820461A61FFF791FFB20622D5BE
:108FD000AB0620D56FF0200223682046BDE8704024
:108FE0001A6100F0EFB9FFF77FFF2046FFF77EFF21
:108FF00091E7FFF779FF2046FFF778FF9EE7FFF73D
:1090000073FF2046FFF772FFAAE7FFF76DFF2046C8
:10901000FFF76CFFB7E770BD174A036890420AD0AC
:10902000B0F1804F07D0A2F59432904203D002F500
:109030008062904207D14A6823F070031343CA68E4
:1090400023F4407313434A6923F0800313430360FE
:109050008B68C3620B688362074B984204BF0B693D
:109060000363012343610369DB0742BF036923F004
:1090700001030361704700BF002C014010B5044696
:1090800030B390F83D3003F0FF021BB980F83C206C
:10909000FFF7FEFE0223206884F83D30211DFFF714
:1090A000BBFF0123002084F8463084F83E3084F86A
:1090B0003F3084F8403084F8413084F8423084F8FE
:1090C000433084F8443084F8453084F83D3010BD96
:1090D0000120FCE710B5044630B390F83D3003F0B2
:1090E000FF021BB980F83C20FCF7CAFD0223206870
:1090F00084F83D30211DFFF78FFF0123002084F805
:10910000463084F83E3084F83F3084F8403084F8AC
:10911000413084F8423084F8433084F8443084F895
:10912000453084F83D3010BD0120FCE7036A026A37
:1091300070B522F010020262446882690D6822F460
:10914000E64242EA05228D6823F0200343EA051334
:109150000B4DA8420DD1CD6823F0800343EA0513DF
:1091600024F44064D1E90556354323F0400344EA32
:109170008504446082614A688263036270BD00BFF7
:10918000002C014038B590F83C300446012B4FD0FC
:109190000120082A84F83C003AD006D8BAB1042A43
:1091A00026D0002384F83C3038BD0C2AF9D1206841
:1091B000FFF74CFEC3690A6943F40063C361C369E6
:1091C00023F48063C361C36943EA02232EE020686D
:1091D000FFF7EAFD83690A6943F008038361836945
:1091E00023F0040383618369134383610020D8E77C
:1091F0002068FFF79BFF83690A6943F4006383617A
:10920000836923F480638361836943EA0223ECE783
:109210002068FFF7F1FDC3690A6943F00803C361E1
:10922000C36923F00403C361C3691343C361DDE76A
:109230000220B9E710B50124036A01F01F018C4038
:1092400023EA04030362036A8A401A43026210BDE0
:1092500008B529B990F83E30012B1DD001202EE031
:10926000042907D190F83F30012BF7D1022380F871
:109270003F3014E0082907D190F84030012BEDD1A0
:10928000022380F840300AE090F84130012BE5D10C
:10929000022380F8413002E0022380F83E3000686B
:1092A0000122FFF7C7FF0F4B984209D0B0F1804F62
:1092B0000BD1836803F00703062B0DD1002008BDF6
:1092C000436C43F400434364F3E7074B9842F0D008
:1092D00003F580639842ECD0036843F00103036018
:1092E000ECE700BF002C014000040040FFF7B0BFD6
:1092F00038B50022044600680D46FFF79BFF184B67
:1093000098420DD141F21113026A1A4208D140F27B
:109310004443026A1A4202BF436C23F4004343648D
:1093200041F21113026A1A4208D140F24443026A20
:109330001A4202BF036823F00103036001231DB931
:1093400084F83E30002038BD042D02D184F83F302F
:10935000F8E7082D0CBF84F8403084F84130F1E77D
:10936000002C0140FFF7C4BF30B590F83C300246F6
:10937000012B4FF0020022D0136882F83D005C6898
:109380000D6824F070042C4398685C600C4CA34278
:109390000AD0B3F1804F07D0A4F59434A34203D090
:1093A00004F58064A34204D1496820F080000143A1
:1093B00099600123002082F83D3082F83C0030BDE6
:1093C000002C014070477047026802F10C0353E81B
:1093D000003F23F490730C3242E800310268002908
:1093E000F2D102F1140353E8003F23F0010302F12C
:1093F000140C4CE800310029F3D1036B012B0BD185
:1094000002F10C0353E8003F23F0100302F10C0CAF
:109410004CE800310029F3D1202380F842300023AA
:109420000363704710B504460368C1681A6922F4E3
:1094300040520A431A6182680069D9680243606930
:1094400021F4B05121F00C0102430A43DA605A6959
:10945000A16922F440720A435A610E4A934215D11F
:10946000FDF7E2FB19234343626820689200B3FBD7
:10947000F2F36422B3FBF2F102FB11331B0132332E
:10948000B3FBF2F303EB0113836010BDFDF7BCFBEC
:10949000E8E700BF0038014010B5044648B390F833
:1094A000413003F0FF021BB980F84020FCF7B0FC0C
:1094B0002423226884F84130D368204623F40053E3
:1094C000D360FFF7AFFF236800201A6922F49042AF
:1094D0001A615A6922F02A025A61DA6842F400528B
:1094E000DA602023606484F8413084F8423060639D
:1094F00010BD0120FCE790F84130202B10D189B13C
:1095000082B1C28482840023212201620168436403
:1095100080F84120CA68184642F08002CA6070474D
:1095200002207047012070477047704708B500233C
:10953000406AC385C384FFF7F8FF08BD704790F801
:10954000423007B5222B42D181680268B1F5805FB5
:10955000836A3FD1016900293FD15268C2F30802F2
:1095600023F8022B8362C38D013B9BB2C385002B82
:109570002DD10268D16821F02001D160D16821F499
:109580008071D160516921F001015161202280F880
:1095900042204363026B012A026828D1036302F16F
:1095A0000C0353E8003F23F0100302F10C0C4CE8CD
:1095B00000310029F3D11368DB0605D5019113684A
:1095C000019353680193019B818DFFF7B7FF03B0AF
:1095D0005DF804FB39B9016929B95268D2B21A7031
:1095E000836A0133BEE7526802F07F02F7E700F0BA
:1095F00021FBECE7036873B51A6804461607D968BF
:109600005D6908D1960668D58D0666D502B0BDE8BD
:109610007040FFF794BF05F0010001F49075054319
:109620005BD0D60705D5CD0542BF636C43F001037F
:109630006364530704D518B1636C43F00203636499
:10964000960704D518B1636C43F0040363641507EF
:1096500007D501F0200303431EBF636C43F00803EA
:109660006364636C002B32D0920604D58B0602D55E
:109670002046FFF764FF266820467369626C03F09A
:10968000400302F0080253EA020522D0FFF79CFED5
:1096900073695E0618D5226802F1140353E8003F8F
:1096A00023F04003143242E800310029F3D1E06B8B
:1096B00050B1744B4363FDF7BFFC40B1E06B436BAB
:1096C00002B0BDE8704018472046FFF72EFF02B0F9
:1096D00070BDFFF72AFF6564F9E7206B012840F0B1
:1096E0009480D50640F19180C80640F18E8000221A
:1096F00001921A6801925A680192019A5A695206B7
:109700004DD5E16B0A68526892B2002ADFD0A08D75
:109710009042DCD9E2858A69202A36D003F10C0216
:1097200052E8002F22F4807203F10C0040E800217F
:109730000029F3D103F1140252E8002F22F00102B4
:1097400003F1140040E800210029F3D103F11402D1
:1097500052E8002F22F0400203F1140040E80021FB
:109760000029F3D1202284F84220216303F10C0266
:1097700052E8002F22F0100203F10C0040E8002113
:109780000029F3D1E06BFDF737FC02236363E38D1F
:10979000A18DC91A89B22046FFF7D0FE97E7E28D66
:1097A000E08DA18D80B292B2002890D0891A89B242
:1097B00000298CD003F10C0252E8002F22F49072A1
:1097C00003F10C0545E800200028F3D103F1140251
:1097D00052E8002F22F0010203F1140545E80020B1
:1097E0000028F3D1202284F84220206303F10C02E8
:1097F00052E8002F22F0100203F10C0545E800208A
:109800000028F3D102236363C5E7160628D50D06A9
:1098100026D594F84120212A7FF459AFA168226A05
:10982000B1F5805F17D12169A9B932F8021BC1F3E4
:10983000080159602262E28C013A92B2E284002A65
:109840007FF445AFDA6822F08002DA60DA6842F02D
:109850004002DA603BE7511C216212785A60EAE765
:1098600050067FF534AF4A067FF531AFDA682046FF
:1098700022F04002DA60202384F84130FFF754FEE2
:1098800025E700BF2D9500080023C28543642223ED
:109890008285026980F84230816203681AB1DA6811
:1098A00042F48072DA605A69002042F001025A6183
:1098B000DA6842F02002DA60704770B490F84260D3
:1098C000202E06D141B13AB10024046370BCFFF7E9
:1098D000DBBF022070BC70470120FBE770B5044677
:1098E00018B34CF6CC42036841F23C361A6045F29C
:1098F00055521A6042685A6082689A60FCF70EFFFF
:1099000005462268D06810F0030003D14AF6AA2366
:10991000136070BDFCF702FF401BB042F1D9236811
:10992000DB689B07EDD00320F3E70120F1E74AF65F
:10993000AA22036800201A60704710B5044650B18F
:10994000437903F0FF0213B90271FCF733FB0123E3
:109950000020637110BD0120FCE70346022058710E
:10996000186810B5846801EB820244F00104846039
:10997000914203D1012200685A7110BD51F8044B85
:109980000460F5E7012810B5044613D002281FD063
:1099900060BB0A2216491748FBF792FE0A221649B5
:1099A0001648FBF78DFE012215491648BDE8104008
:1099B000FFF783BF0A2214491448FBF781FE0A22ED
:1099C00013491448FBF77CFE224613491348EDE780
:1099D0000A2213491348FBF773FEFF22124913486A
:1099E000FBF76EFE012212491248DFE710BD00BFEF
:1099F00086060020A00600207C060020900600209D
:109A00001C05002054040020520600206C06002093
:109A1000480600205C0600201B0500200C040020E6
:109A20001C060020380600201D0500202806002006
:109A30001A050020C4030020002313B530480DF19F
:109A400002018DF802308DF803308DF804308DF866
:109A500005308DF806308DF80730FBF799FE9DF83C
:109A600002309BB9274C94F84130202B0ED10DF1D8
:109A700005012348FBF7D0FE23492148FBF76BFE85
:109A800020469DF805202049FFF735FD1F480DF1C0
:109A90000301FBF77DFE9DF803309BB91C4C94F845
:109AA0004130202B0ED10DF106011848FBF7B4FE12
:109AB00018491648FBF74FFE20469DF80620154929
:109AC000FFF719FD144801A9FBF762FE9DF8043069
:109AD0009BB9124C94F84130202B0ED10DF10701A7
:109AE0000D48FBF799FE0E490B48FBF734FE204664
:109AF0009DF807200A49FFF7FEFC02B010BD00BF29
:109B0000A006002054040020100500206C06002050
:109B10000C0400200605002038060020C4030020A5
:109B2000FC040020032838B50C46154627D8012828
:109B300011D0022818D000BB1248FFF7DCFC022825
:109B40001BD12A4621461048FBF778FE06280CBF99
:109B50000920032038BD0D48FFF7CDFC02280CD1A9
:109B60002A4621460A48EFE70A48FFF7C4FC0228C4
:109B700003D12A4621460848E6E70020EAE7052007
:109B8000E8E700BF54040020A00600200C040020D9
:109B90006C060020C403002038060020032870B59E
:109BA0000D4616461C463BD801281DD0022829D058
:109BB000002837D119461C48FBF72EFE08B10120BA
:109BC00070BD2378B3420AD80BB90820F8E72946BC
:109BD0001548FBF7C0FD003818BF0120F0E7124818
:109BE000FBF7CCFD0620EBE719461048FBF714FE07
:109BF0000028E4D12378B342F1D8002BE5D02946E0
:109C00000A48E6E719460A48FBF706FE0028D6D1BF
:109C10002378B342E3D8002BD7D029460448D8E7AD
:109C20000520CDE70020CBE7900600205C06002051
:109C3000280600200268154B10B59A42044608D148
:109C4000134901221348FFF738FE11491248FBF768
:109C5000B3FD2268114B9A4208D1114901221148E3
:109C6000FFF72BFE0E491048FBF7A6FD22680F4BAD
:109C70009A420AD10E4901220E48FFF71EFEBDE8A6
:109C800010400B490C48FBF797BD10BD0038014050
:109C90001C050020540400209006002000440040D1
:109CA0001B0500200C0400205C060020004800403A
:109CB0001A050020C403002028060020054BC3E934
:109CC00000011A81044B1A781AB9012203491A704B
:109CD0000A707047C0060020D4060020D20600207B
:109CE0000A2808B506D1012205481021FDF776F9AA
:109CF000002008BD0B2801D10022F5E70120F8E77C
:109D0000000801400122044B1A700A23B0FBF3F053
:109D1000024B1880704700BFCC060020CE06002002
:109D200010B5094C002220461021FDF757F92046B6
:109D300000224021FDF752F9BDE8104001224FF406
:109D400000510248FDF74AB90008014000100140E7
:109D500038B5554D2B78012B3ED1544C2378013B1F
:109D6000032B1ED8DFE803F04631026D50490B6823
:109D70004BB31B8833B14FF47A7253434D4AB2FB55
:109D8000F3F39BB24C4A13804A684C49013B096883
:109D900012888B620A23B2FBF3F3494A137004233F
:109DA0002370484B484C1B78012B75D1474A2388B8
:109DB00012889A426DD14FF400514548FDF713F9CE
:109DC0000023238038BD0123DCE700213B48FFF757
:109DD000C9FA00232B70E3E73E490B78012BE0D151
:109DE0003D4C2378013B042BDBD8DFE803F0033440
:109DF000092A3D0000213148FFF778FA0323CFE715
:109E00003648374D02782B6833F81230BBB14FF427
:109E10007A715943274BB3FBF1F39BB226490B8070
:109E20006968264D013B2D6831F81210AB620A2398
:109E3000B1FBF3F3224901320B700270AFE701234B
:109E4000ECE7284A1E491378097899421ED100236D
:109E500013700223A4E700211848FFF783FA0222B7
:109E6000174B1A7005239BE71E4A15481378007894
:109E700098420BD100231A481370184A00891578AC
:109E8000854212BF012313700B7089E701331370F1
:109E900087E701339BB294E701224FF400510C484D
:109EA000FDF79CF88CE700BFD1060020D306002008
:109EB000B806002000879303B40600207C0300202E
:109EC000B3060020CC060020B0060020CE060020FD
:109ED00000100140D2060020D4060020D006002049
:109EE000C0060020B206002037B500210C4C0D4DF5
:109EF00022462B46C4E90011FDF7F7FAD4E9002306
:109F00001A4301920422084C0DEB02012046FBF794
:109F100095FC082229462046FBF790FC03B030BD93
:109F200068070020600700205007002030B5154D5D
:109F30008BB02846FDF765FA002401230A22CDE9FB
:109F4000064308930D2369462846CDE90442099348
:109F5000CDE90044CDE90244FDF7E3F902212846AA
:109F6000FDF73FFB084B21462846084AFDF7BDFA9E
:109F7000782207490748FBF7A3FB00F045FA0BB02E
:109F800030BD00BF000300206007002068070020EC
:109F9000D50600205007002008B500F089FCBDE878
:109FA000084000F033BB000070B50A4E0546347817
:109FB00014B10124204670BDFBF73AFBC2B2402A1F
:109FC000F8D829460220FFF7ADFD01233370024B7C
:109FD0001C70EEE7C0070020BF070020F8B50B4F4C
:109FE0003E78012E10D10A4D2C786CB9FF22214603
:109FF0000848FBF71FFB084BFF220220A3F1FF01DB
:10A00000FFF7CCFD3C702E70F8BD00BFC0070020EC
:10A01000BF070020C4070020C308002010B5194C5A
:10A020000220FFF7AFFC2046FF220021FBF702FBD6
:10A030001548FFF7B9FF18B36420FCF775FBFFF76D
:10A04000CDFF1248FFF7B0FFD0B10123642084F8A0
:10A050000031FCF769FBFFF7C1FF0D48FFF7A4FFD4
:10A0600070B16420FCF760FBFFF7B8FF0948FFF709
:10A070009BFF6420FCF758FBBDE81040FFF7AEBF24
:10A0800010BD00BFC407002090D00008A4D0000875
:10A09000B0D00008C9D0000870B5914D2B78012BC5
:10A0A0005CD1904C2378013B052B4FD8DFE803F0BF
:10A0B0000330394E4E528C4D2B78013B042B45D842
:10A0C000DFE803F0030A11181F008848FFF76CFF50
:10A0D000022323702B7039E08548FFF765FF0223C8
:10A0E00023700323F6E78348FFF75EFF0223237004
:10A0F0000423EFE78048FFF757FF0223237005236F
:10A10000E8E77E48FFF750FF022323700623E1E7CC
:10A110007B4A13780A2B40F0D88000231370032366
:10A1200016E0FFF75BFF704B1E78062E0FD17549C6
:10A130007548FBF7A4FA002840F0CC8073497248B8
:10A14000FBF79DFA002800F0C580267070BD012342
:10A150002370FBE70123644A1370F9E76C4D2B78F9
:10A16000012BF3D16B4C2378013B072BEED801A2D6
:10A1700052F823F095A100089FA10008A3A10008B0
:10A18000C1A100084DA10008DDA20008BBA2000883
:10A19000D1A200086048FFF707FF0223D8E75F4A13
:10A1A000B7E7FFF71BFF57495748FBF768FA08B1B5
:10A1B0000423CDE755495448FBF761FA0623C7E766
:10A1C0000026574D574950482E70FBF758FA002883
:10A1D00056D001232022314653482B70FBF72AFA30
:10A1E000142231465148FBF725FA0E2250483146D9
:10A1F000FBF720FA4448FF23024610F8011B41B147
:10A20000222903F1FF33117018BF013213F0FF034D
:10A21000F3D100232C213C481370FBF7FFF9C8B1A0
:10A22000421C117813460A2902F10102F9D13E4A73
:10A2300013F8011F0D2938D100231370831C1A460F
:10A2400013F8011B2C29FAD1394B033082422FD845
:10A2500000221A70374B36481D68FBF7E9F929468A
:10A2600002463348FBF7E8F9334B2F481D68FBF7EC
:10A27000DFF9294602462C48FBF7DEF92F4810E0AB
:10A2800022492148FBF7FBF910B102232B7095E717
:10A290002B491D48FBF7F3F90028EFD00323294889
:10A2A0002B70FFF781FE072352E702F8011BBFE77F
:10A2B00010F8011B03F8011BC8E7234A13780A2B87
:10A2C00003D100231370082342E7013313703DE7E5
:10A2D000FFF784FE00232B70052339E70023F9E6FE
:10A2E000C207002012000020BE070020D7D00008BF
:10A2F000B0070020C5D00008900700201000002003
:10A3000086070020E1D00008C4070020E4D0000840
:10A31000C307002013000020EAD0000885070020B2
:10A32000C1070020F6D00008C5080020E50800207D
:10A33000F90800208C0700208807002002D10008BF
:10A34000FAD00008C9D000088407002010B52348BF
:10A35000FCF756F92148FCF74DF801211F48FBF79F
:10A36000E7FE1F4CB8B1002323601E4A1278012A71
:10A370002ED11D490A689A421C4A09D90B601378EC
:10A380000133DBB2032B137022D1FA21184B197061
:10A39000002313701CE01148FBF76EFF40F6AC532E
:10A3A00058434FF47A73B0FBF3F3124A23609042A0
:10A3B0000FD90C4C207858B90C490A780132D2B226
:10A3C000032A0A7004D101222270074A0870136020
:10A3D00010BD094A9042C8D3FAE700BFD00200205E
:10A3E000100900200D090020080900200C09002098
:10A3F00014090020C77DAF00C0D8A700014B1B780F
:10A40000037070471409002030B5254C254D0FCD41
:10A410000FC42B68244D2360244C0FCD0FC42B6830
:10A42000234D2360234C0FCD0FC42B68224D236096
:10A43000224C0FCD0FC42B68214D2360214C0FCD32
:10A440000FC42B68204D2360204C0FCD0FC42B6808
:10A450001F4D23601F4C0FCD0FC42B681E4D236072
:10A460001E4C0FCD0FC42B681D4D23601D4C0FCD0E
:10A470000FC42B681C4D23601C4C0FCD0FC42B68E0
:10A480001B4D23601B4C0FCD0FC495E803001A4DE4
:10A4900084E803000FCD194C0FC42B68236030BD36
:10A4A000FC0900200C010020F8000020E809002031
:10A4B000E4000020D4090020D0000020C0090020C2
:10A4C000BC000020AC090020A80000209809002052
:10A4D00094000020840900208000002070090020E2
:10A4E0006C0000205C090020580000204809002072
:10A4F00040000020300900202C0000201C09002012
:10A5000030B5034C034D0FCD0FC42B68236030BD15
:10A51000E8090020F800002030B5034C034D0FCDB2
:10A520000FC42B68236030BDD4090020E400002054
:10A5300030B5034C034D0FCD0FC42B68236030BDE5
:10A54000C0090020D000002030B5034C034D0FCDD2
:10A550000FC42B68236030BDAC090020BC00002074
:10A5600030B5034C034D0FCD0FC42B68236030BDB5
:10A5700098090020A800002030B5034C034D0FCDF2
:10A580000FC42B68236030BD840900209400002094
:10A5900030B5034C034D0FCD0FC42B68236030BD85
:10A5A000700900208000002030B5034C034D0FCD12
:10A5B0000FC42B68236030BD5C0900206C000020B4
:10A5C00030B5034C034D0FCD0FC42B68236030BD55
:10A5D000480900205800002030B5044C044D0FCD30
:10A5E0000FC495E8030084E8030030BD3009002063
:10A5F0004000002030B5034C034D0FCD0FC42B6835
:10A60000236030BD1C0900202C0000200023F0B581
:10A6100085B08A480DF103018DF80330FBF7B8F8D7
:10A62000874D884E884F9DF80340002C64D041F23E
:10A630008831864A13888B4200F2DF800A33138008
:10A6400041F28831824A13888B4200F2D9800A3362
:10A65000138041F288317F4A13888B4200F2D38005
:10A660000A33138041F288317B4A13888B4200F20F
:10A67000CD800A33138041F28831784A13888B42A7
:10A6800000F2C7800A33138042F21071744A1388B3
:10A690008B4200F2C1800A33138041F28831714A43
:10A6A00013888B4200F2BB800A33138041F2883159
:10A6B0006D4A13888B4200F2B5800A33138042F250
:10A6C00010716A4A13888B4200F2AF800A331380FC
:10A6D00041F28831664A13888B4200F2A9800A331E
:10A6E000138041F28831634A13888B4200F2A380C1
:10A6F0000A33138005B0F0BD042250480DEB02016F
:10A70000FBF711F8019BAB425BD00CD8A3F5887224
:10A71000042A11D86FF488721344032B1FD8DFE882
:10A7200003F02C574965B3422ED00CD8524A9342BD
:10A7300032D0524A934252D0082240480DEB0201D7
:10A74000FAF7F1FF13E0BB422DD04D4A9342F3D10B
:10A7500008224C493948FAF7E6FF424B1AE0082232
:10A7600049493648FAF7DFFF384B00221A800DF1CD
:10A7700003013248FBF70CF855E7082243492F48FC
:10A78000FAF7D1FF324BF0E7082241492B48FAF79C
:10A79000CAFF304B1C80EAE708223E492748FAF7F7
:10A7A000C2FF2D4BF6E708223B492448FAF7BBFFCE
:10A7B0002A4BEFE7082239492048FAF7B4FF284B23
:10A7C000D3E7082236491D48FAF7ADFF264BE1E7EB
:10A7D000082234491948FAF7A6FF244BC5E7082296
:10A7E00031491648FAF79FFF214BD3E708222F493A
:10A7F0001248FAF798FF1F4BB7E7FFF781FE1FE7F4
:10A80000FFF78AFE25E7FFF793FE2BE7FFF79CFE95
:10A8100031E7FFF7A5FE37E7FFF7AEFE3DE7FFF7AD
:10A82000B7FE43E7FFF7C0FE49E7FFF7C9FE4FE772
:10A83000FFF7D2FE55E7FFF7DDFE5BE7500700208C
:10A84000F4FF0018F428FE18F428FF18240A00204A
:10A85000220A0020200A00201E0A00201C0A0020D4
:10A860001A0A0020180A0020160A0020140A0020E4
:10A87000120A0020100A0020F4E50618EF60FA180A
:10A88000E550FF1870090020E8090020D4090020D5
:10A89000C0090020AC09002098090020840900208C
:10A8A0005C09002048090020300900201C09002014
:10A8B0000A2210B50B4C2388B3FBF2F102FB1133D3
:10A8C0009BB22BB9084B094A09490A48FCF7C4FD59
:10A8D00044F61F6223880A339BB2934288BF002349
:10A8E000238010BD260A002018090020FC09002042
:10A8F00014000020000300200020FFF743B80A46A0
:10A90000014618B112B10020FFF70CB907207047BB
:10A9100010B413460C46014628B124B1224600204B
:10A9200010BCFFF73BB9072010BC704770B5B0F5FD
:10A93000806F0446154686B021D209B9102A20D866
:10A94000114E96F83D30202B15D12A460DF1050009
:10A950008DF80440FAF7ECFDE10901F00E013046F4
:10A960006B1C01AA41F0A001FDF7ACFB04460120DD
:10A97000FBF7DAFE04B10324204606B070BD0A24BA
:10A98000FAE70724F8E700BF28030020B0F5806F3E
:10A99000F7B50D46164627D209B9102A26D8144F06
:10A9A00097F83D30202B1BD1C40904F00E0444F06D
:10A9B000A104214601230DF107028DF80700384656
:10A9C000FDF780FB0120FBF7AFFE214633462A4608
:10A9D0003846FDF7CDFB04460120FBF7A5FE04B188
:10A9E0000324204603B0F0BD0A24FAE70724F8E761
:10A9F00028030020B0F5806F2DE9FF410D46164673
:10AA000026D209B9102A25D8134F97F83D30202BAC
:10AA10001AD14FF00108C40904F00E0444F0A10457
:10AA2000434621468DF80F000DF10F023846CDF850
:10AA30000080FDF7C1F833462A4621463846CDF856
:10AA40000080FDF793F900B1032004B0BDE8F08168
:10AA50000A20FAE70720F8E72803002030B50C4C5D
:10AA60000346207803280ED1B3F5806F0DD2002065
:10AA7000084D2880084D296008490B80084B1A8032
:10AA80000123237030BD0320FCE70A20FAE700BF52
:10AA900020010020280A0020300A00202C0A002073
:10AAA0002A0A0020F8B500230E4EB0F5806F0F463D
:10AAB0001446338013D3F8BD0822FFF79BFF338879
:10AAC000083C08333380A4B23188281B082C80B29C
:10AAD0003944F1D8E2B2BDE8F840FFF78BBF10442B
:10AAE00085B2F1E7280A0020F8B5184D2B78032B22
:10AAF00013D0174C174E18492288184FB6F800C0CB
:10AB00000968082A388861440BD8012BD2B205D1D4
:10AB1000FFF70CFF08B903232B70F8BDFFF736FFD2
:10AB2000F8E7012B4FF008020DD1FFF7FFFE0028D8
:10AB3000F3D13B8808333B80338808333380238844
:10AB4000083B2380E9E7FFF721FFF0E72001002021
:10AB50002A0A0020280A0020300A00202C0A00209F
:10AB600010B5104B1A461B688342FBD35468111969
:10AB7000884201BF416810460919516044680119B3
:10AB80008B420CD1084909688B4203D05968214493
:10AB9000416019689042016018BF106010BD1946ED
:10ABA000F8E700BF480A0020440A0020F8B5044630
:10ABB00000F02CFB3F490B68F3B93F4A3F4D50076B
:10ABC0001FBFD01D20F0070002F54062131A0CBF12
:10ABD0004FF44063024600201344083B23F0070370
:10ABE00068602A60C3E90000981AC2E900300B606F
:10ABF000334B1860334B1860002C4AD004F0070325
:10AC0000A3F11102A24251D304F1100EAEEB030CDA
:10AC1000BCF1000F4ADD2B4F3E68664546D3274AFC
:10AC200015686868604501D22C68BCB90968A942FA
:10AC30003CD0A3EB0E0329680344102B1468116069
:10AC400014D905EB0C0042070BD04FF0500383F3EF
:10AC50001188BFF36F8FBFF34F8FFEE72A4625465B
:10AC6000DFE74360C5F804C0FFF77AFF00236A6896
:10AC70001349B61A42F000426A60134A08682B6012
:10AC80001368864203F101033E6038BF0E6008344A
:10AC9000136000F079FB63070AD04FF0500383F391
:10ACA0001188BFF36F8FBFF34F8FFEE70024F0E7EB
:10ACB0002046F8BD440A0020500A0020480A00201F
:10ACC0003C0A0020400A0020380A002010B5044643
:10ACD00080B350F8043C002B08DB4FF0500383F3A3
:10ACE0001188BFF36F8FBFF34F8FFEE750F8082C2A
:10ACF00042B14FF0500383F31188BFF36F8FBFF35E
:10AD00004F8FFEE723F0004340F8043C00F07EFA4A
:10AD1000094A54F8043C1168A4F108000B4413607C
:10AD2000FFF71EFFBDE81040044A136801331360AB
:10AD300000F02ABB10BD00BF400A0020340A0020EA
:10AD40004FF0FF3200F10803C0E9022343600361C2
:10AD500000230360704700230361704743689A68CB
:10AD60004B608A6051609960036808610133036039
:10AD7000704730B50C68631C0AD103695A684A6091
:10AD800091608B605960036808610133036030BDD6
:10AD900000F10802134652681568A542FAD9EDE79A
:10ADA0000369D0E901128A6051605968814208BF85
:10ADB0005A60002202611A68013A1A6018687047E6
:10ADC000F8B5204B204C06461D6820680F4604301D
:10ADD000FFF7E6FF40B922681C49D06A01220B68E0
:10ADE000824023EA02030B60731C13D197B1184B06
:10ADF00021685A688A6090682168C86021680431B7
:10AE00004160216804319160226853611A680132FF
:10AE10001A60F8BD2368AD195D6007D30D4B186843
:10AE20002168BDE8F8400431FFF7A3BF0A4B18685A
:10AE300021680431FFF79DFF084B1A68AA4288BFBA
:10AE40001D60E6E7741600207817002070160020B9
:10AE50007C160020BC160020C016002058160020CA
:10AE6000064A13681968064B19B94FF0FF321A6089
:10AE700070471268D2681268F9E700BFC016002058
:10AE80005816002080B5164C164F174E236883B90C
:10AE9000164B1B68012B09D94FF0E0234FF080526D
:10AEA000C3F8042DBFF34F8FBFF36F8F00F0D8FCB2
:10AEB000EBE700F0BFFBFB68DD68281DFFF770FFC4
