:020000040800F2
:10000000005000206D030008811C0008831C0008BC
:10001000851C0008871C0008891C000800000000DF
:10002000000000000000000000000000690300085C
:100030008B1C000800000000690300086903000829
:1000400069030008690300086903000869030008E0
:1000500069030008690300086903000869030008D0
:1000600069030008690300086903000869030008C0
:1000700069030008690300086903000869030008B0
:1000800069030008690300086903000869030008A0
:100090006903000869030008690300086903000890
:1000A000690300088D1C0008690300086903000843
:1000B0006903000869030008690300086903000870
:1000C0006903000869030008690300086903000860
:1000D0006903000869030008991C00086903000807
:1000E0006903000869030008690300086903000840
:1000F0006903000869030008690300086903000830
:10010000690300086903000869030008690300081F
:10011000690300086903000869030008690300080F
:1001200069030008690300086903000869030008FF
:10013000844641EA000313F0030349D1403A23D334
:100140000B6803604B6843608B688360CB68C36057
:100150000B6903614B6943618B698361CB69C3613F
:100160000B6A03624B6A43628B6A8362CB6AC36227
:100170000B6B03634B6B43638B6B8363CB6BC3630F
:1001800040304031403ADBD230320BD30B68036051
:100190004B6843608B688360CB68C360103010315C
:1001A000103AF3D20C3205D351F8043B40F8043B2B
:1001B000043AF9D2043208D0D2071CBF11F8013B2F
:1001C00000F8013B01D30B8803806046704700BFF5
:1001D000082A13D38B07B1D010F00303AED0C3F1BC
:1001E0000403D21ADB071CBF11F8013B00F8013BE6
:1001F000A4D331F8023B20F8023B9FE7043AD9D35D
:10020000013A11F8013B00F8013BF9D20B78037079
:100210004B7843708B7883706046704702F04AB821
:1002200010B548B141B14AB10023C45CCC5401338C
:100230009A42FAD1002010BD0220FCE70720FAE71D
:10024000034641B14AB102810160012200201A73C4
:10025000586058817047042070470520704710B5DA
:100260000446D1B1C8B1037BCBB9838800680122B1
:100270001844FFF7D5FFA0B96389013B9BB26381A6
:1002800013B90123237310BD2289A388013A934235
:1002900016BF0133A080A380F5E70420F3E7032015
:1002A000F1E70820EFE770B505460C4661B158B19B
:1002B000468900200E44B44200D170BD2146284634
:1002C000FFF7CDFF0134F6E70420F6E730B1002355
:1002D000012243600273438118467047042070472F
:1002E00040B139B10389428900209A1A53425341DF
:1002F0000B70704704207047002373B504460E4608
:100300008DF8073011B308B30DF10701FFF7E8FFCF
:10031000D0B99DF80730012B1AD0237BE588012B3B
:100320001FBF23890135B5FBF3F203FB125521688A
:10033000EDB2012230462944FFF772FF50B96389BC
:10034000E58001336381207302B070BD0420FBE7B8
:100350000220F9E70820F7E720B119B1438900200E
:100360000B80704704207047FEE700000748084AEA
:1003700008B50849121AFFF7DBFE0748074A0021B3
:10038000121A01F097FF01F059FFFEE70400002068
:1003900014000020A0230008180000207003002093
:1003A00030B5102489B0224600210DEB040001F085
:1003B00081FF184B184D9A69214642F020029A613C
:1003C0009A69284602F020020192019A9A6942F045
:1003D00004029A619A6902F004020292029A9A69EE
:1003E00042F008029A619B69002203F0080303931C
:1003F000039B00F065FD01220023CDE905230223C4
:1004000028460DEB04010494079300F085FC09B025
:1004100030BD00BF001002400008014008B54FF495
:10042000E1330A480A4AC0E9002300230C22C0E94C
:100430000233C0E905230361C36101F0DFF818B19D
:10044000BDE8084001F034BF08BD00BF60000020D7
:100450000044004010B504468AB01022002106A8CE
:1004600001F028FF23684B4A934231D14A4B4FF4A5
:1004700000709A6906A942F480429A619A69002440
:1004800002F480420092009A9A6942F004029A6152
:100490009B6903F004030193019B0223CDE906034A
:1004A00003233E48099300F037FC4FF480633B4838
:1004B00006A9CDE90634089400F02EFC252022463A
:1004C000214600F079FD252000F0A6FD0AB010BD00
:1004D000334A93422CD1304B0421DA692F4842F43D
:1004E0000032DA61DA69002402F400320292029AE0
:1004F0009A6942F004029A619B6903F00403039332
:10050000039B0223CDE90613032306A9099300F0F8
:1005100003FC0823214806A9CDE90634089400F01D
:10052000FBFB26202246214600F046FD2620CBE795
:100530001C4A9342CAD1184B1B48DA6906A942F4F7
:100540008022DA61DA69002402F480220492049A9B
:100550009A6942F008029A619B694FF4806203F045
:1005600008030593059B0223CDE906230323099382
:1005700000F0D2FB4FF400630B4806A9CDE9063426
:10058000089400F0C9FB27202246214600F014FD04
:10059000272099E700380140001002400008014080
:1005A0000044004000480040000C01400E4B82B067
:1005B0009A6942F001029A619A6902F0010200927E
:1005C000009ADA6942F08052DA61DB69074A03F087
:1005D00080530193019B536823F0E06343F0007361
:1005E000536002B0704700BF00100240000001409D
:1005F0001E4B70B59A6988B042F400629A619B699B
:1006000001A903F400630293064603A8184D029B58
:1006100000F0EAFA00F0D8FA164B2B6040F2E7330C
:10062000EB60154BB0FBF3F00023013868602846FF
:100630002B61AB60AB6100F019FF044680B928461E
:1006400000F020FE044658B9192000F0E5FC0F2EFA
:1006500009D822463146192000F0AEFC074B1E6037
:10066000204608B070BD0124FAE700BF0010024028
:10067000F0000020002C014040420F000C00002040
:100680007047000010B54FF0FF320024044B1A6190
:100690001C61DA60DC60FFF7F3FF204610BD00BF8D
:1006A00000100240074A08B51368032043F0100306
:1006B000136000F06FFC0F20FFF79AFFFFF776FF43
:1006C000002008BD00200240034A044B11681B783B
:1006D0000B441360704700BF380100200800002061
:1006E000014B1868704700BF380100202DE9F34125
:1006F000054638B30368DB0710D42B689F075ED428
:100700002B68190700F195802B685A0700F1C1800A
:10071000EB69002B40F02C81002029E0904C6368AD
:1007200003F00C03042B07D0636803F00C03082BC1
:100730000AD16368DE0307D523689C03DDD56B68A7
:10074000002BDAD1012013E06B68B3F5803F12D1A2
:10075000236843F480332360FFF7C2FF0646236813
:100760009803CAD4FFF7BCFF801B6428F7D9032085
:1007700002B0BDE8F0819BB9236823F48033236085
:10078000236823F480232360FFF7AAFF064623682B
:100790009903B2D5FFF7A4FF801B6428F7D9E6E7D9
:1007A000B3F5A02F236803D143F480232360CFE760
:1007B00023F480332360236823F48023CBE7684C41
:1007C000636813F00C0F07D0636803F00C03082B69
:1007D00010D16368DA030DD423689B0702D52B6917
:1007E000012BAFD123686A6923F0F80343EAC203FF
:1007F000236085E72A695B4B6AB101221A60FFF723
:100800006FFF064623689F07ECD4FFF769FF801B44
:100810000228F7D9ABE71A60FFF762FF06462368A4
:1008200098077FF56DAFFFF75BFF801B0228F6D9B5
:100830009DE7AA694A4E4B4BE2B10122C3F88024DE
:10084000FFF74EFF0446736A9B070DD54FF4FA522B
:10085000454B1B68B3FBF2F3019300BF019B5A1E8B
:100860000192002BF9D14FE7FFF73AFF001B022856
:10087000E9D97CE7C3F88024FFF732FF0446736AA6
:100880009F077FF541AFFFF72BFF001B0228F6D92A
:100890006DE7334CE369D80024D40127E36943F0C2
:1008A0008053E361E36903F080530093009B2F4E74
:1008B0003368D90518D5EB68012B26D1236A43F09C
:1008C00001032362FFF70CFF41F288380646236AD2
:1008D0009B073FD5002F3FF41BAFE36923F0805304
:1008E000E36115E70027E2E7336843F48073336080
:1008F000FFF7F6FE80463368DA05DCD4FFF7F0FE3A
:10090000A0EB08006428F6D931E7ABB9236A41F2BD
:10091000883823F001032362236A23F0040323624F
:10092000FFF7DEFE0646236A9807D3D5FFF7D8FE09
:10093000801B4045F7D91AE7052B236A03D143F002
:1009400004032362BAE723F001032362236A23F03E
:100950000403B6E7FFF7C4FE801B4045B7D906E79E
:1009600000100240000042420400002000700040DD
:100970002A4C626802F00C02082A3ED00022022BA8
:10098000274B1A662CD1FFF7ABFE06462368990168
:1009900020D42B6AB3F5803F05D16268A96822F4A0
:1009A00000320A436260696A62680B4322F474127F
:1009B0001343012263601A4B1A66FFF791FE054646
:1009C00023689A013FF5A8AEFFF78AFE401B022874
:1009D000F6D9CCE6FFF784FE801B0228D6D9C6E6FE
:1009E000FFF77EFE054623689B017FF595AEFFF776
:1009F00077FE401B0228F6D9B9E6012B3FF4A2AEE0
:100A000060682B6A00F480329A427FF49BAE6B6A76
:100A100000F47010C01A18BF0120A9E600100240AF
:100A2000000042420D4A536803F00C01082912D11C
:100A30000B48C3F38341DB03405C09D55368094A83
:100A4000C3F340435043084AD35CB0FBF3F0704714
:100A5000064B584370470348704700BF00100240E0
:100A60008623000800127A008423000800093D0054
:100A70002DE9F0410D46044610B90120BDE8F08192
:100A8000444A136803F007038B4228D321688E077A
:100A900030D4CA0743D43F4A136803F00703AB427C
:100AA00065D822683C4D12F0040F6CD1130706D5AF
:100AB0006B68226923F4605343EAC2036B60FFF75B
:100AC000B1FF6B68354AC3F30313D35CD840344B92
:100AD0001860344B1868FFF78BFD0020CEE71368D1
:100AE00023F007030B431360136803F007038B42E3
:100AF000C3D1CBE7284B11F0040F1EBF5A6842F454
:100B0000E0625A60080742BF5A6842F460525A6075
:100B10005A68A06822F0F00202435A60B9E762689E
:100B20001D4E012A33681AD113F4003FA5D0736813
:100B300041F2883823F0030313437360FFF7D0FDBD
:100B400007467368626803F00C03B3EB820FA2D010
:100B5000FFF7C6FDC01B4045F3D903208EE7022AEC
:100B600002D113F0007FE1E713F0020FDEE7136814
:100B700023F007032B431360136803F00703AB4212
:100B80007FF47BAF8DE76B68E16823F4E0630B4390
:100B90006B608BE7002002400010024074230008C5
:100BA000040000200C000020044B054A5B68C3F3DE
:100BB0000223D35C034A1068D840704700100240FB
:100BC0006C23000804000020044B054A5B68C3F353
:100BD000C223D35C034A1068D8407047001002401B
:100BE0006C230008040000200F2303600B4B5A689D
:100BF00002F0030242605A6802F0F00282605A6812
:100C000002F4E062C2605B68DB0803F4E063036146
:100C1000034B1B6803F007030B6070470010024092
:100C20000020024003682DE9F3410546D80721D58D
:100C3000364CE369D9002BD40126E36943F0805395
:100C4000E361E36903F080530193019B304F3B68FC
:100C5000DA051FD5236A6A6813F440732ED1236A1C
:100C60006A6823F44073134323621EB1E36923F0DF
:100C70008053E3612A68910706D52449A8684B6828
:100C800023F4404303434B60D30636D4002012E0E4
:100C90000026DBE73B6843F480733B60FFF720FDF1
:100CA00080463B68DB05D5D4FFF71AFDA0EB0800B2
:100CB0006428F6D9032002B0BDE8F08102F4407246
:100CC0009A42CCD00120134A236AC2F84004002083
:100CD00023F44071DF07C2F840042162BFD5FFF75B
:100CE000FFFC41F288380746236A9807B7D4FFF71C
:100CF000F7FCC01B4045F7D9DCE7044AE9685368B4
:100D000023F480030B435360C0E700BF0010024090
:100D100000700040000042422DE9F74F00244FF0E0
:100D20000F0E2646DFF884C1614B00F104080A6803
:100D300032FA06F502D103B0BDE8F08F012505FABD
:100D400006F702EA070537EA020276D14A68032A63
:100D500007D8013A022A00F28380DFE802F0919678
:100D60009C00122A00F0948069D8112A00F08A8031
:100D7000FF2D94BF8146C1464FEA8602D9F8007024
:100D800088BF203A0EFA02FA27EA0A0704FA02F2AA
:100D90001743C9F80070D1F8049019F0805F4CD067
:100DA000DCF8182026F0030742F00102CCF81820E6
:100DB000DCF8182007F1804702F00102019207F5E4
:100DC000803706F0030A019A4FEA8A0ABA680EFAD7
:100DD0000AFB22EA0B0B374A904260D002F5806290
:100DE00090425ED002F5806290425CD002F5806253
:100DF000904214BF0422032202FA0AF242EA0B02D2
:100E0000BA609A6819F4801F14BF2A43AA439A60F3
:100E1000DA6819F4001F14BF2A43AA43DA605A683B
:100E200019F4003F14BF2A43AA435A601A6819F400
:100E3000803F14BF2A43AA431A60013677E7DFF8E0
:100E400078904A450CD014D8A9F580194A4507D0A6
:100E500009F570294A4503D0A9F580194A4587D17B
:100E60008A68D2B1012A4FF008040CBF07614761BC
:100E70007EE7DFF848904A45F2D009F58039EDE782
:100E8000CC6875E7CC68043472E7CC6808346FE747
:100E9000CC680C346CE700246AE7042468E700227D
:100EA000AAE70122A8E70222A6E700BF001002403D
:100EB0000004014000080140000022100000311031
:100EC0000AB1016170470904FBE790F8212003464D
:100ED000022A06D0042282630120002283F8202007
:100EE00070470268C06B116821F00E011160116833
:100EF00021F00101116001211A6C01FA02F2426035
:100F0000002083F82110E8E708B590F82130022B83
:100F100003D004238363012008BD03681A6822F00C
:100F20000E021A601A6822F001021A60174A9342F0
:100F30001FD0143293421ED0143293421DD014326B
:100F400093421DD0143293421DD01432934214BFE9
:100F50004FF080734FF480130D4A5360012380F8E3
:100F60002130002380F82030436B03B198470020E4
:100F7000D2E70123F0E71023EEE74FF48073EBE7AD
:100F80004FF48053E8E74FF48033E5E70800024070
:100F90000000024007490302CA6803F4E06322F438
:100FA000E0621204120C134343F0BF6343F40033B6
:100FB000CB60704700ED00E0154B30B5DC68C4F342
:100FC0000224C4F10703251D042B28BF0423062D8A
:100FD0004FF0FF3594BF0024033C05FA03F321EAE8
:100FE0000303A54022EA0502A340002843EA0203C6
:100FF000ACBF00F16040074A4FEA0313DBB2ABBF5E
:1010000000F5614000F00F0080F80033135430BD4C
:1010100000ED00E014ED00E0002807DB01234109AA
:10102000034A00F01F00834042F82130704700BFA0
:1010300000E100E0114AD36813F0100305D0104915
:10104000CB6943F00203CB611023D268500706D569
:101050000B4943F00403CA6942F00102CA61074A1E
:10106000D169C90708D50648C16941F00401C161C9
:10107000D16921F00101D161D360704700200240A5
:1010800040010020064B186910F0800007D0054A87
:101090005A6002F188325A601869C0F3C010704774
:1010A0000020024023016745034A0020136943F0F2
:1010B00080031361704700BF0020024070B50546F1
:1010C000FFF70EFB0646114CE368D80712D4E3681D
:1010D000990644BF2023E360E368DA0606D4E36997
:1010E000DB0703D4E06810F0040007D0FFF7A2FF8D
:1010F000012003E06B1CE7D00DB9032070BDFFF7A2
:10110000EFFA801BA842DFD9F7E700BF00200240BA
:101110002DE9F84FDFF894A01F469AF818300546DD
:10112000012B884691463FD001234CF250308AF87B
:101130001830FFF7C3FF90BB012D03D0022D14BF61
:101140000425022500263346DFF864B03401C4F1DB
:101150002001A4F1200207FA01F129FA04F4CAF8E7
:101160001C300C4327FA02F21443DBF81020A4B21F
:1011700042F00102CBF810204CF2503028F8164013
:10118000FFF79CFFDBF8102022F00102CBF81020C3
:1011900028B90136F2B295424FF00003D6D80023A9
:1011A0008AF81830BDE8F88F0220FBE740010020E4
:1011B000002002400022064BDA61064B1A6942F019
:1011C00002021A6158611A6942F040021A617047BE
:1011D00040010020002002402DE9F041264F054645
:1011E0003B7E8846012B44D001243C7603684CF2B8
:1011F0005030022B1AD1FFF761FF20B101200023EC
:101200003B76BDE8F0811D4CF86123694CF250300B
:1012100043F004032361236943F040032361FFF794
:101220004DFF236923F004032361E8E7FFF746FF3E
:101230000028E3D14FF0FF33C8F800302046AE68F5
:101240000E4CD5E9023203EB8223B342D7D93046A4
:10125000FFF7B0FF4CF25030FFF730FF236923F067
:101260000203236110B1C8F80060C8E706F5806684
:10127000E7E70220C5E700BF400100200020024050
:101280007047000090F83D30012B20D1022380F8F8
:101290003D300368DA6842F00102DA600D4A934299
:1012A0000AD0B3F1804F07D0A2F59432934203D015
:1012B00002F58062934204D19A6802F00702062A7E
:1012C00003D01A6842F001021A6000207047012022
:1012D000704700BF002C014070477047704770474F
:1012E000036870B5DD681E690446B1070DD5AA070D
:1012F0000BD56FF002021A61012202779B699B07EE
:1013000069D0FFF7EAFF00232377710710D56A073A
:101310000ED56FF00402236820461A61022222775C
:101320009B6913F4407F5CD0FFF7D7FF002323773E
:1013300033070FD528070DD56FF008022368204624
:101340001A6104222277DB69990750D0FFF7C5FFA5
:1013500000232377F20610D5EB060ED56FF01002AE
:10136000236820461A6108222277DB6913F4407F44
:1013700043D0FFF7B2FF00232377F00708D5E90732
:1013800006D56FF00102236820461A6100F086FF3F
:10139000320608D52B0606D56FF08002236820465A
:1013A0001A6100F090F8700608D5690606D56FF04E
:1013B0004002236820461A61FFF791FFB20622D54A
:1013C000AB0620D56FF0200223682046BDE87040B0
:1013D0001A6100F077B8FFF77FFF2046FFF77EFF26
:1013E00091E7FFF779FF2046FFF778FF9EE7FFF7C9
:1013F00073FF2046FFF772FFAAE7FFF76DFF204655
:10140000FFF76CFFB7E770BD174A036890420AD038
:10141000B0F1804F07D0A2F59432904203D002F58C
:101420008062904207D14A6823F070031343CA6870
:1014300023F4407313434A6923F08003134303608A
:101440008B68C3620B688362074B984204BF0B69C9
:101450000363012343610369DB0742BF036923F090
:1014600001030361704700BF002C014010B5044622
:1014700030B390F83D3003F0FF021BB980F83C20F8
:10148000FFF7FEFE0223206884F83D30211DFFF7A0
:10149000BBFF0123002084F8463084F83E3084F8F6
:1014A0003F3084F8403084F8413084F8423084F88A
:1014B000433084F8443084F8453084F83D3010BD22
:1014C0000120FCE770477047026802F10C0353E803
:1014D000003F23F490730C3242E800310268002987
:1014E000F2D102F1140353E8003F23F0010302F1AB
:1014F000140C4CE800310029F3D1036B012B0BD104
:1015000002F10C0353E8003F23F0100302F10C0C2E
:101510004CE800310029F3D1202380F84230002329
:101520000363704710B504460368C1681A6922F462
:1015300040520A431A6182680069D96802436069AF
:1015400021F4B05121F00C0102430A43DA605A69D8
:10155000A16922F440720A435A610E4A934215D19E
:10156000FFF732FB19234343626820689200B3FB04
:10157000F2F36422B3FBF2F102FB11331B013233AD
:10158000B3FBF2F303EB0113836010BDFFF70CFB19
:10159000E8E700BF00380140F7B505460C4617469E
:1015A0001E462A68136834EA030301D1002021E0B3
:1015B000701CF7D0FFF794F8C01B86421CD3DEB135
:1015C0002B68DA685107ECD5802CEAD0402CE8D0A3
:1015D0001A681207E5D5002401941A68284601927A
:1015E0005B680193019BFFF76FFF082301206B6489
:1015F00085F8404003B0F0BD0320FBE710B504467A
:1016000048B390F8413003F0FF021BB980F8402046
:10161000FEF720FF2423226884F84130D368204657
:1016200023F40053D360FFF77DFF236800201A697D
:1016300022F490421A615A6922F02A025A61DA6849
:1016400042F40052DA602023606484F8413084F868
:101650004230606310BD0120FCE72DE9F843984655
:1016600090F841300446202B0E4617463FD1002902
:101670003FD0002A3DD021230025456480F8413029
:10168000FFF72EF8A3688146B3F5805FA784E7844F
:1016900003D123690BB935461E46E38C9BB253B97F
:1016A00043464A4640212046FFF776FF202350B9A3
:1016B00084F841300AE043464A4680212046FFF73D
:1016C0006BFF28B12023032084F84130BDE8F88364
:1016D00022684EB935F8023BC3F308035360E18C2E
:1016E000013989B2E184D8E716F8013BF6E7022018
:1016F000ECE70120EAE77047704708B50023406A2D
:10170000C385C384FFF7F8FF08BD704790F84230E7
:1017100007B5222B42D181680268B1F5805F836AE8
:101720003FD1016900293FD15268C2F3080223F872
:10173000022B8362C38D013B9BB2C385002B2DD14D
:101740000268D16821F02001D160D16821F4807154
:10175000D160516921F001015161202280F84220BD
:101760004363026B012A026828D1036302F10C0370
:1017700053E8003F23F0100302F10C0C4CE8003159
:101780000029F3D11368DB0605D501911368019395
:1017900053680193019B818DFFF7B7FF03B05DF89C
:1017A00004FB39B9016929B95268D2B21A70836A47
:1017B0000133BEE7526802F07F02F7E700F01CFA3F
:1017C000ECE70000036873B51A6804461607D96889
:1017D0005D6908D1960668D58D0666D502B0BDE86C
:1017E0007040FFF793BF05F0010001F490750543C9
:1017F0005BD0D60705D5CD0542BF636C43F001032E
:101800006364530704D518B1636C43F00203636447
:10181000960704D518B1636C43F00403636415079D
:1018200007D501F0200303431EBF636C43F0080398
:101830006364636C002B32D0920604D58B0602D50C
:101840002046FFF763FF266820467369626C03F049
:10185000400302F0080253EA020522D0FFF734FEEB
:1018600073695E0618D5226802F1140353E8003F3D
:1018700023F04003143242E800310029F3D1E06B39
:1018800050B1744B4363FFF73FFB40B1E06B436BD8
:1018900002B0BDE8704018472046FFF72DFF02B0A8
:1018A00070BDFFF729FF6564F9E7206B012840F060
:1018B0009480D50640F19180C80640F18E800022C8
:1018C00001921A6801925A680192019A5A69520665
:1018D0004DD5E16B0A68526892B2002ADFD0A08D24
:1018E0009042DCD9E2858A69202A36D003F10C02C5
:1018F00052E8002F22F4807203F10C0040E800212E
:101900000029F3D103F1140252E8002F22F0010262
:1019100003F1140040E800210029F3D103F114027F
:1019200052E8002F22F0400203F1140040E80021A9
:101930000029F3D1202284F84220216303F10C0214
:1019400052E8002F22F0100203F10C0040E80021C1
:101950000029F3D1E06BFFF7B8FA02236363E38D4C
:10196000A18DC91A89B22046FFF7CFFE97E7E28D15
:10197000E08DA18D80B292B2002890D0891A89B2F0
:1019800000298CD003F10C0252E8002F22F490724F
:1019900003F10C0545E800200028F3D103F11402FF
:1019A00052E8002F22F0010203F1140545E800205F
:1019B0000028F3D1202284F84220206303F10C0296
:1019C00052E8002F22F0100203F10C0545E8002038
:1019D0000028F3D102236363C5E7160628D50D0658
:1019E00026D594F84120212A7FF459AFA168226AB4
:1019F000B1F5805F17D12169A9B932F8021BC1F393
:101A0000080159602262E28C013A92B2E284002A13
:101A10007FF445AFDA6822F08002DA60DA6842F0DB
:101A20004002DA603BE7511C216212785A60EAE713
:101A300050067FF534AF4A067FF531AFDA682046AD
:101A400022F04002DA60202384F84130FFF753FE91
:101A500025E700BFFB1600080023C285436422234C
:101A60008285026980F84230816203681AB1DA68BF
:101A700042F48072DA605A69002042F001025A6131
:101A8000DA6842F02002DA60704770B490F8426081
:101A9000202E06D141B13AB10024046370BCFFF797
:101AA000DBBF022070BC70470120FBE7012810B5A6
:101AB000044613D002281FD060BB0A2216491748DB
:101AC000FEF7BEFB0A2216491648FEF7B9FB0122B3
:101AD00015491648BDE81040FFF7D7BF0A22144940
:101AE0001448FEF7ADFB0A2213491448FEF7A8FB81
:101AF000224613491348EDE70A2213491348FEF71B
:101B00009FFBFF2212491348FEF79AFB012212495C
:101B10001248DFE710BD00BFCA020020E402002027
:101B2000C0020020D402002062010020A800002092
:101B300096020020B00200208C020020A0020020AB
:101B40006101002060000020620200207C02002071
:101B5000630100206C0200206001002018000020BA
:101B6000032870B50D4616461C463BD801281DD0EB
:101B7000022829D0002837D119461C48FEF7ECFB73
:101B800008B1012070BD2378B3420AD80BB90820F0
:101B9000F8E729461548FEF786FB003818BF0120F4
:101BA000F0E71248FEF792FB0620EBE719461048D3
:101BB000FEF7D2FB0028E4D12378B342F1D8002B02
:101BC000E5D029460A48E6E719460A48FEF7C4FB6D
:101BD0000028D6D12378B342E3D8002BD7D02946AA
:101BE0000448D8E70520CDE70020CBE7D402002049
:101BF000A00200206C0200200268154B10B59A422A
:101C0000044608D1134901221348FFF73EFF11494A
:101C10001248FEF771FB2268114B9A4208D1114914
:101C200001221148FFF731FF0E491048FEF764FB0F
:101C300022680F4B9A420AD10E4901220E48FFF743
:101C400024FFBDE810400B490C48FEF755BB10BD02
:101C50000038014062010020A8000020D4020020CA
:101C6000004400406101002060000020A00200202C
:101C70000048004060010020180000206C02002095
:101C8000FEE7FEE7FEE7FEE7FEE770470148FFF7E5
:101C900027BB00BFF00000200148FFF793BD00BF45
:101CA00060000020034B04495A688B601B6883F373
:101CB000088810470050000800ED00E04FF6FB4296
:101CC00008B50E4B1968914209D14FF6FA221A60F5
:101CD0003A220B4B1A7001220A4B1A7008BD0A4BAC
:101CE0001A680A4B9A4205D1FEF7CCFCBDE80840C1
:101CF000FFF7D8BF0022024BECE700BF0000002036
:101D000014030020F4020020FC4F0008FAABFAABE9
:101D1000044B1B7813B1012B02D07047FFF7CEBFE5
:101D200000F018B8F40200200A2307B540308DF8FF
:101D300004008DF805108DF8063003224FF0FF33B4
:101D400001A90348FFF789FC03B05DF804FB00BF5D
:101D5000600000202DE9F04FAE4E89B03378002BA3
:101D600000F04B813A2B18D13B230021AA481B22BB
:101D70003370FEF753FA01211020FFF7D5FFA74D6E
:101D80002C783CB9A44B21461878FFF7CDFF0323EC
:101D900034702B7009B0BDE8F08F9F4C3B2B22783C
:101DA0004AD1342A40F0F0809D4B1B78E35C0A2B2B
:101DB000E5D1002204342146134611F8010F013207
:101DC000042A40EA0323F8D10022114695484360D3
:101DD00014F8015F0132042A45EA0121F8D1B3F574
:101DE000304F816024D801228C4B1A7000228E4B18
:101DF0001A70FFF747F90028FBD12C238B4A049077
:101E000003A904A8CDE90623FFF7E6F9FFF74CF98B
:101E10000028FBD1FFF736F901460028FAD17E48A9
:101E20001B22FEF7FBF93C23012134203370A4E789
:101E300000227A4B1A70A2E73C2B40F0A580362A8C
:101E400040F0A280764B1B78E35C0A2B97D12146A9
:101E50004FF0000C637862799F1E0A3BDDB2237954
:101E6000A07911F8079F13440344FFB24B445FFA73
:101E70008CFEAE4518D3E15D5B42DBB29942D7D10F
:101E8000B9F1050F3FF67BAF01A353F829F000BF6E
:101E9000E71E0008851F00087F1D00087F1D000841
:101EA000B51E0008851F000811F801EF0CF1010CA8
:101EB0007344DCE723895E4A59BA082B1180B7D1F5
:101EC0004FF00062012100245A4B1A60534B1970E5
:101ED000554B1C703620FFF727FF1B2200214E4870
:101EE000FEF79CF94BE7DFF84CA1534BDAF80050B2
:101EF0001B686FF30F05054345EA02259D42CAF8AA
:101F0000005036D04FF000080127DFF830B118E05C
:101F10004B4A1BF80300D25C42EA00224948C05CED
:101F200042EA00424848C35C42EA036200230220BE
:101F300001920091FFF7ECF8DDE90012F0B908F129
:101F4000040822795FFA88F39A4208EB0501DFD88A
:101F5000012F4FF00004314B12D11F70324B394624
:101F600036201C70FFF7E0FE1B2221462A48FEF7B0
:101F700055F9DAF80030304A136000E74F46D5E7EC
:101F80001C70F6E70121A5E7372A7FF4F8AE244B51
:101F90001B78E35C0A2B7FF4F2AEFFF785F804466A
:101FA0000028FAD1FFF76EF84FF0FF3200232749DF
:101FB0000220FFF7ADF8FFF777F8FFF763F800238B
:101FC000234A22490220FFF7A3F8FFF76DF8012109
:101FD0003720FFF7A9FE1B2221460F48FEF71EF906
:101FE000BFF34F8F1B491C4BCA6802F4E0621343D6
:101FF000CB60BFF34F8F00BFFDE7074B1A78102A65
:102000007FF4BDAE064A12789B5C0A2B04BF3A23CC
:102010003370B4E6140300203703002010000020C2
:1020200036030020040300200203002000500008B3
:1020300000030020F8020020FC02002040030020E2
:102040003F0300204103002042030020FC4F000812
:10205000FAABFAAB00ED00E00400FA050120FFF74F
:1020600025BD0000F0B585B00A2201200DF1030363
:1020700001A9FFF775FD082823D000242746164A3A
:102080009DF803001678154B01A95FFA84FC06EB56
:102090000C056045EDB216D80FB1304410701978B8
:1020A000362916D1597861B10B4413F8013C0A2B3B
:1020B00007D10B4B01391970002313700122094B12
:1020C0001A7005B0F0BD11F8017B01345F5501278E
:1020D000DBE71178E8E700BF1603002017030020B4
:1020E000150300203503002070B50D4B1C78012C22
:1020F00014D10C4C4518A8420BD100240A48007892
:1021000010700A46074821461C70FEF787F82046E3
:1021100070BD14F8016B00F8016BECE70120F7E7E4
:1021200035030020170300201503002030B595B0BB
:10213000102200210CA800F0BDF8142200210DEBA4
:10214000020000F0B7F81022002101A800F0B2F858
:1021500002244FF4803309220125CDE90A23CDE979
:1021600011434FF480130AA80E9510951393FEF7B0
:10217000BDFA08B172B6FEE70F23CDE905344FF47E
:1021800080630790CDE90830294605A8FEF770FC6A
:1021900008B172B6FEE74FF4804301A8019403939F
:1021A000FEF740FD08B172B6FEE715B030BD08B5C8
:1021B000FEF778FAFFF7BAFFFEF7F2F8BDE808403D
:1021C000FEF72CB9102210B588B00DEB02000021EB
:1021D00000F070F8174B184C9A69204642F0200224
:1021E0009A619A69802102F020020192019A9A690B
:1021F00042F004029A619A6902F004020292029A81
:102200009A6942F008029A619B69002203F0080370
:102210000393039BFEF754FE802201230021CDE9A6
:10222000042302232046CDE9061304A9FEF774FD1A
:1022300008B010BD001002400008014080B5FFF753
:10224000B6FFFFF70BFFFFF7BDFF012280210E480D
:10225000FEF736FE0D4D0E4F0E4EFFF703FF3A46CA
:102260001B210A48FFF740FF0446307048B91B2283
:1022700009492846FDF7D4FF1B2221462846FDF7D1
:10228000CDFFFFF745FDE8E70008014052030020BD
:102290003603002011000020370300200268034BA2
:1022A0009A4201D1FEF710BA704700BF002C0140DE
:1022B00072B6FEE770B5860747D0541E002A3ED09E
:1022C0000346CAB201E0013C39D303F8012B9D0754
:1022D000F9D1032C2CD9CDB205EB05250F2C1A46CC
:1022E00005EB054534D9A4F1100C2CF00F0603F1D1
:1022F000100EB6444FEA1C1CC2E90055C2E9025553
:1023000010327245F8D10CF1010214F00C0F03EBFE
:10231000021204F00F0C13D0ACF1040323F00303FA
:102320000433134442F8045B9342FBD10CF00304E2
:102330002CB1C9B21C4403F8011BA342FBD170BDF0
:1023400064461346002CF4D1F9E703461446C0E76F
:10235000A446E1E7F8B500BFF8BC08BC9E4670474C
:0C236000F8B500BFF8BC08BC9E467047F2
:10236C000000000001020304000000000000000057
:10237C00010203040607080901020203040506070B
:0C238C0008090A0B0C0D0E0F10100000C9
:0823980098DDFF7F0100000049
:1023A00000127A000100000010000000030100008C
:044FFC00FFFFFFFFB5
:020000042000DA
:0400000000000000FC
:040000050800036D7F
:00000001FF
